{
  "_format": "hh3-artifact-1",
  "contractName": "MesaCompartida",
  "sourceName": "contracts/MesaCompartida.sol",
  "abi": [
    {
      "inputs": [
        {
          "internalType": "address",
          "name": "_plateNFT",
          "type": "address"
        }
      ],
      "stateMutability": "nonpayable",
      "type": "constructor"
    },
    {
      "inputs": [
        {
          "internalType": "address",
          "name": "owner",
          "type": "address"
        }
      ],
      "name": "OwnableInvalidOwner",
      "type": "error"
    },
    {
      "inputs": [
        {
          "internalType": "address",
          "name": "account",
          "type": "address"
        }
      ],
      "name": "OwnableUnauthorizedAccount",
      "type": "error"
    },
    {
      "inputs": [
        {
          "internalType": "address",
          "name": "token",
          "type": "address"
        }
      ],
      "name": "SafeERC20FailedOperation",
      "type": "error"
    },
    {
      "anonymous": false,
      "inputs": [
        {
          "indexed": true,
          "internalType": "address",
          "name": "previousOwner",
          "type": "address"
        },
        {
          "indexed": true,
          "internalType": "address",
          "name": "newOwner",
          "type": "address"
        }
      ],
      "name": "OwnershipTransferred",
      "type": "event"
    },
    {
      "inputs": [
        {
          "internalType": "address",
          "name": "",
          "type": "address"
        }
      ],
      "name": "beneficiaryProfiles",
      "outputs": [
        {
          "internalType": "string",
          "name": "name",
          "type": "string"
        },
        {
          "internalType": "uint256",
          "name": "ratingSum",
          "type": "uint256"
        },
        {
          "internalType": "uint256",
          "name": "ratingCount",
          "type": "uint256"
        },
        {
          "internalType": "uint256",
          "name": "totalRedemptions",
          "type": "uint256"
        }
      ],
      "stateMutability": "view",
      "type": "function"
    },
    {
      "inputs": [
        {
          "internalType": "address",
          "name": "",
          "type": "address"
        }
      ],
      "name": "buyerProfiles",
      "outputs": [
        {
          "internalType": "string",
          "name": "name",
          "type": "string"
        },
        {
          "internalType": "uint256",
          "name": "totalPurchases",
          "type": "uint256"
        }
      ],
      "stateMutability": "view",
      "type": "function"
    },
    {
      "inputs": [
        {
          "internalType": "uint256",
          "name": "_transactionId",
          "type": "uint256"
        }
      ],
      "name": "claimVoucher",
      "outputs": [],
      "stateMutability": "nonpayable",
      "type": "function"
    },
    {
      "inputs": [
        {
          "internalType": "uint256",
          "name": "_transactionId",
          "type": "uint256"
        }
      ],
      "name": "confirmDelivery",
      "outputs": [],
      "stateMutability": "nonpayable",
      "type": "function"
    },
    {
      "inputs": [
        {
          "internalType": "string",
          "name": "_name",
          "type": "string"
        }
      ],
      "name": "createBeneficiaryProfile",
      "outputs": [],
      "stateMutability": "nonpayable",
      "type": "function"
    },
    {
      "inputs": [
        {
          "internalType": "string",
          "name": "_name",
          "type": "string"
        }
      ],
      "name": "createBuyerProfile",
      "outputs": [],
      "stateMutability": "nonpayable",
      "type": "function"
    },
    {
      "inputs": [
        {
          "internalType": "string",
          "name": "_name",
          "type": "string"
        },
        {
          "internalType": "string",
          "name": "_description",
          "type": "string"
        },
        {
          "internalType": "string",
          "name": "_ipfsHash",
          "type": "string"
        },
        {
          "internalType": "uint256",
          "name": "_maxSupply",
          "type": "uint256"
        },
        {
          "internalType": "uint256",
          "name": "_expiresAt",
          "type": "uint256"
        }
      ],
      "name": "createPlate",
      "outputs": [
        {
          "internalType": "uint256",
          "name": "",
          "type": "uint256"
        }
      ],
      "stateMutability": "nonpayable",
      "type": "function"
    },
    {
      "inputs": [
        {
          "internalType": "string",
          "name": "_name",
          "type": "string"
        },
        {
          "internalType": "string",
          "name": "_ensDomain",
          "type": "string"
        }
      ],
      "name": "createVendorProfile",
      "outputs": [],
      "stateMutability": "nonpayable",
      "type": "function"
    },
    {
      "inputs": [
        {
          "internalType": "uint256",
          "name": "",
          "type": "uint256"
        }
      ],
      "name": "escrowAmount",
      "outputs": [
        {
          "internalType": "uint256",
          "name": "",
          "type": "uint256"
        }
      ],
      "stateMutability": "view",
      "type": "function"
    },
    {
      "inputs": [],
      "name": "getAvailableVouchersForBeneficiary",
      "outputs": [
        {
          "components": [
            {
              "internalType": "address",
              "name": "buyer",
              "type": "address"
            },
            {
              "internalType": "address",
              "name": "vendor",
              "type": "address"
            },
            {
              "internalType": "uint256",
              "name": "amount",
              "type": "uint256"
            },
            {
              "internalType": "contract IERC20",
              "name": "token",
              "type": "address"
            },
            {
              "internalType": "enum MesaCompartida.DeliveryStatus",
              "name": "status",
              "type": "uint8"
            },
            {
              "internalType": "uint256",
              "name": "timestamp",
              "type": "uint256"
            },
            {
              "internalType": "uint256",
              "name": "voucherTokenId",
              "type": "uint256"
            }
          ],
          "internalType": "struct MesaCompartida.VoucherTransaction[]",
          "name": "",
          "type": "tuple[]"
        }
      ],
      "stateMutability": "view",
      "type": "function"
    },
    {
      "inputs": [
        {
          "internalType": "address",
          "name": "_beneficiary",
          "type": "address"
        }
      ],
      "name": "getBeneficiaryProfile",
      "outputs": [
        {
          "components": [
            {
              "internalType": "string",
              "name": "name",
              "type": "string"
            },
            {
              "internalType": "uint256",
              "name": "ratingSum",
              "type": "uint256"
            },
            {
              "internalType": "uint256",
              "name": "ratingCount",
              "type": "uint256"
            },
            {
              "internalType": "uint256",
              "name": "totalRedemptions",
              "type": "uint256"
            }
          ],
          "internalType": "struct MesaCompartida.BeneficiaryProfile",
          "name": "",
          "type": "tuple"
        }
      ],
      "stateMutability": "view",
      "type": "function"
    },
    {
      "inputs": [
        {
          "internalType": "address",
          "name": "_buyer",
          "type": "address"
        }
      ],
      "name": "getBuyerProfile",
      "outputs": [
        {
          "components": [
            {
              "internalType": "string",
              "name": "name",
              "type": "string"
            },
            {
              "internalType": "uint256",
              "name": "totalPurchases",
              "type": "uint256"
            }
          ],
          "internalType": "struct MesaCompartida.BuyerProfile",
          "name": "",
          "type": "tuple"
        }
      ],
      "stateMutability": "view",
      "type": "function"
    },
    {
      "inputs": [
        {
          "internalType": "uint256",
          "name": "_transactionId",
          "type": "uint256"
        }
      ],
      "name": "getEscrowAmount",
      "outputs": [
        {
          "internalType": "uint256",
          "name": "",
          "type": "uint256"
        }
      ],
      "stateMutability": "view",
      "type": "function"
    },
    {
      "inputs": [],
      "name": "getMarketplaceVouchers",
      "outputs": [
        {
          "components": [
            {
              "internalType": "string",
              "name": "name",
              "type": "string"
            },
            {
              "internalType": "string",
              "name": "description",
              "type": "string"
            },
            {
              "internalType": "string",
              "name": "ipfsHash",
              "type": "string"
            },
            {
              "internalType": "address",
              "name": "vendor",
              "type": "address"
            },
            {
              "internalType": "uint256",
              "name": "createdAt",
              "type": "uint256"
            },
            {
              "internalType": "uint256",
              "name": "expiresAt",
              "type": "uint256"
            },
            {
              "internalType": "uint256",
              "name": "maxSupply",
              "type": "uint256"
            },
            {
              "internalType": "uint256",
              "name": "availableVouchers",
              "type": "uint256"
            }
          ],
          "internalType": "struct PlateNFT.PlateMetadata[]",
          "name": "",
          "type": "tuple[]"
        }
      ],
      "stateMutability": "view",
      "type": "function"
    },
    {
      "inputs": [
        {
          "internalType": "address",
          "name": "_vendor",
          "type": "address"
        },
        {
          "internalType": "address",
          "name": "_token",
          "type": "address"
        }
      ],
      "name": "getVendorEarnings",
      "outputs": [
        {
          "internalType": "uint256",
          "name": "",
          "type": "uint256"
        }
      ],
      "stateMutability": "view",
      "type": "function"
    },
    {
      "inputs": [
        {
          "internalType": "address",
          "name": "_vendor",
          "type": "address"
        }
      ],
      "name": "getVendorProfile",
      "outputs": [
        {
          "components": [
            {
              "internalType": "string",
              "name": "name",
              "type": "string"
            },
            {
              "internalType": "uint256",
              "name": "ratingSum",
              "type": "uint256"
            },
            {
              "internalType": "uint256",
              "name": "ratingCount",
              "type": "uint256"
            },
            {
              "internalType": "uint256",
              "name": "totalSales",
              "type": "uint256"
            },
            {
              "internalType": "bool",
              "name": "verified",
              "type": "bool"
            }
          ],
          "internalType": "struct MesaCompartida.VendorProfile",
          "name": "",
          "type": "tuple"
        }
      ],
      "stateMutability": "view",
      "type": "function"
    },
    {
      "inputs": [
        {
          "internalType": "uint256",
          "name": "_transactionId",
          "type": "uint256"
        }
      ],
      "name": "getVoucherBeneficiary",
      "outputs": [
        {
          "internalType": "address",
          "name": "",
          "type": "address"
        }
      ],
      "stateMutability": "view",
      "type": "function"
    },
    {
      "inputs": [
        {
          "internalType": "uint256",
          "name": "_transactionId",
          "type": "uint256"
        }
      ],
      "name": "getVoucherTransaction",
      "outputs": [
        {
          "components": [
            {
              "internalType": "address",
              "name": "buyer",
              "type": "address"
            },
            {
              "internalType": "address",
              "name": "vendor",
              "type": "address"
            },
            {
              "internalType": "uint256",
              "name": "amount",
              "type": "uint256"
            },
            {
              "internalType": "contract IERC20",
              "name": "token",
              "type": "address"
            },
            {
              "internalType": "enum MesaCompartida.DeliveryStatus",
              "name": "status",
              "type": "uint8"
            },
            {
              "internalType": "uint256",
              "name": "timestamp",
              "type": "uint256"
            },
            {
              "internalType": "uint256",
              "name": "voucherTokenId",
              "type": "uint256"
            }
          ],
          "internalType": "struct MesaCompartida.VoucherTransaction",
          "name": "",
          "type": "tuple"
        }
      ],
      "stateMutability": "view",
      "type": "function"
    },
    {
      "inputs": [
        {
          "internalType": "address",
          "name": "",
          "type": "address"
        }
      ],
      "name": "isBeneficiary",
      "outputs": [
        {
          "internalType": "bool",
          "name": "",
          "type": "bool"
        }
      ],
      "stateMutability": "view",
      "type": "function"
    },
    {
      "inputs": [
        {
          "internalType": "address",
          "name": "",
          "type": "address"
        }
      ],
      "name": "isBuyer",
      "outputs": [
        {
          "internalType": "bool",
          "name": "",
          "type": "bool"
        }
      ],
      "stateMutability": "view",
      "type": "function"
    },
    {
      "inputs": [
        {
          "internalType": "address",
          "name": "",
          "type": "address"
        }
      ],
      "name": "isVendor",
      "outputs": [
        {
          "internalType": "bool",
          "name": "",
          "type": "bool"
        }
      ],
      "stateMutability": "view",
      "type": "function"
    },
    {
      "inputs": [
        {
          "internalType": "uint256",
          "name": "_transactionId",
          "type": "uint256"
        }
      ],
      "name": "markReady",
      "outputs": [],
      "stateMutability": "nonpayable",
      "type": "function"
    },
    {
      "inputs": [],
      "name": "owner",
      "outputs": [
        {
          "internalType": "address",
          "name": "",
          "type": "address"
        }
      ],
      "stateMutability": "view",
      "type": "function"
    },
    {
      "inputs": [],
      "name": "plateNFT",
      "outputs": [
        {
          "internalType": "contract PlateNFT",
          "name": "",
          "type": "address"
        }
      ],
      "stateMutability": "view",
      "type": "function"
    },
    {
      "inputs": [
        {
          "internalType": "address",
          "name": "",
          "type": "address"
        }
      ],
      "name": "platformBalance",
      "outputs": [
        {
          "internalType": "uint256",
          "name": "",
          "type": "uint256"
        }
      ],
      "stateMutability": "view",
      "type": "function"
    },
    {
      "inputs": [],
      "name": "platformFeePercent",
      "outputs": [
        {
          "internalType": "uint256",
          "name": "",
          "type": "uint256"
        }
      ],
      "stateMutability": "view",
      "type": "function"
    },
    {
      "inputs": [
        {
          "internalType": "uint256",
          "name": "_voucherTokenId",
          "type": "uint256"
        },
        {
          "internalType": "uint256",
          "name": "_amount",
          "type": "uint256"
        },
        {
          "internalType": "address",
          "name": "_token",
          "type": "address"
        }
      ],
      "name": "purchaseVoucher",
      "outputs": [
        {
          "internalType": "uint256",
          "name": "",
          "type": "uint256"
        }
      ],
      "stateMutability": "nonpayable",
      "type": "function"
    },
    {
      "inputs": [],
      "name": "renounceOwnership",
      "outputs": [],
      "stateMutability": "nonpayable",
      "type": "function"
    },
    {
      "inputs": [
        {
          "internalType": "address",
          "name": "_plateNFT",
          "type": "address"
        }
      ],
      "name": "setPlateNFT",
      "outputs": [],
      "stateMutability": "nonpayable",
      "type": "function"
    },
    {
      "inputs": [
        {
          "internalType": "uint256",
          "name": "_feePercent",
          "type": "uint256"
        }
      ],
      "name": "setPlatformFee",
      "outputs": [],
      "stateMutability": "nonpayable",
      "type": "function"
    },
    {
      "inputs": [
        {
          "internalType": "address",
          "name": "newOwner",
          "type": "address"
        }
      ],
      "name": "transferOwnership",
      "outputs": [],
      "stateMutability": "nonpayable",
      "type": "function"
    },
    {
      "inputs": [
        {
          "internalType": "address",
          "name": "",
          "type": "address"
        },
        {
          "internalType": "address",
          "name": "",
          "type": "address"
        }
      ],
      "name": "vendorEarnings",
      "outputs": [
        {
          "internalType": "uint256",
          "name": "",
          "type": "uint256"
        }
      ],
      "stateMutability": "view",
      "type": "function"
    },
    {
      "inputs": [
        {
          "internalType": "address",
          "name": "",
          "type": "address"
        }
      ],
      "name": "vendorProfiles",
      "outputs": [
        {
          "internalType": "string",
          "name": "name",
          "type": "string"
        },
        {
          "internalType": "uint256",
          "name": "ratingSum",
          "type": "uint256"
        },
        {
          "internalType": "uint256",
          "name": "ratingCount",
          "type": "uint256"
        },
        {
          "internalType": "uint256",
          "name": "totalSales",
          "type": "uint256"
        },
        {
          "internalType": "bool",
          "name": "verified",
          "type": "bool"
        }
      ],
      "stateMutability": "view",
      "type": "function"
    },
    {
      "inputs": [
        {
          "internalType": "uint256",
          "name": "",
          "type": "uint256"
        }
      ],
      "name": "vendorRated",
      "outputs": [
        {
          "internalType": "bool",
          "name": "",
          "type": "bool"
        }
      ],
      "stateMutability": "view",
      "type": "function"
    },
    {
      "inputs": [
        {
          "internalType": "uint256",
          "name": "",
          "type": "uint256"
        }
      ],
      "name": "voucherBeneficiary",
      "outputs": [
        {
          "internalType": "address",
          "name": "",
          "type": "address"
        }
      ],
      "stateMutability": "view",
      "type": "function"
    },
    {
      "inputs": [],
      "name": "voucherTransactionCounter",
      "outputs": [
        {
          "internalType": "uint256",
          "name": "",
          "type": "uint256"
        }
      ],
      "stateMutability": "view",
      "type": "function"
    },
    {
      "inputs": [
        {
          "internalType": "uint256",
          "name": "",
          "type": "uint256"
        }
      ],
      "name": "voucherTransactions",
      "outputs": [
        {
          "internalType": "address",
          "name": "buyer",
          "type": "address"
        },
        {
          "internalType": "address",
          "name": "vendor",
          "type": "address"
        },
        {
          "internalType": "uint256",
          "name": "amount",
          "type": "uint256"
        },
        {
          "internalType": "contract IERC20",
          "name": "token",
          "type": "address"
        },
        {
          "internalType": "enum MesaCompartida.DeliveryStatus",
          "name": "status",
          "type": "uint8"
        },
        {
          "internalType": "uint256",
          "name": "timestamp",
          "type": "uint256"
        },
        {
          "internalType": "uint256",
          "name": "voucherTokenId",
          "type": "uint256"
        }
      ],
      "stateMutability": "view",
      "type": "function"
    }
  ],
  "bytecode": "0x60806040525f600b55348015610013575f5ffd5b50604051612f34380380612f348339810160408190526100329161011f565b338061005857604051631e4fbdf760e01b81525f60048201526024015b60405180910390fd5b610061816100d0565b506001600160a01b0381166100ab5760405162461bcd60e51b815260206004820152601060248201526f125b9d985b1a59081c1b185d1953919560821b604482015260640161004f565b600e80546001600160a01b0319166001600160a01b039290921691909117905561014c565b5f80546001600160a01b038381166001600160a01b0319831681178455604051919092169283917f8be0079c531659141344cd1fd0a4f28419497f9722a3daafe3b4186f6b6457e09190a35050565b5f6020828403121561012f575f5ffd5b81516001600160a01b0381168114610145575f5ffd5b9392505050565b612ddb806101595f395ff3fe608060405234801561000f575f5ffd5b506004361061021e575f3560e01c80637e0ae5f71161012a578063b326d665116100b4578063e9aa988511610079578063e9aa9885146105eb578063ee54d54f146105fe578063f2fde38b14610620578063fd84cb9714610633578063fea1426514610646575f5ffd5b8063b326d66514610550578063b875bbb714610563578063c3f70de514610584578063c67e32e9146105a4578063c9321edb146105c3575f5ffd5b80638da5cb5b116100fa5780638da5cb5b146104e357806396e8ddb4146104f35780639ade9687146105065780639d19b22614610519578063a0af70f01461053b575f5ffd5b80637e0ae5f7146104915780637ec2b0d4146104a4578063809587c2146104c75780638c639a85146104da575f5ffd5b80633ebb309a116101ab5780635480df891161017b5780635480df891461040f5780635cc387d91461042f5780635d19e56c1461045757806360fe0ffd14610476578063715018a614610489575f5ffd5b80633ebb309a146103a7578063451ee191146103d25780634b300ad2146103f15780634fff1d1414610406575f5ffd5b8063145984a8116101f1578063145984a8146102a55780631948f46c146102cf5780631f11fd9d146103405780632a55feec146103725780633cd4198214610394575f5ffd5b8063014ae408146102225780630caccdb51461024f5780630f5c8db41461026f57806312e8e2c314610290575b5f5ffd5b610235610230366004612248565b610666565b604051610246959493929190612298565b60405180910390f35b61026261025d3660046122d0565b61071d565b6040516102469190612376565b61028261027d366004612384565b6107fc565b604051908152602001610246565b6102a361029e3660046122d0565b610828565b005b6102826102b3366004612384565b600d60209081525f928352604080842090915290825290205481565b61032d6102dd3660046122d0565b600160208190525f91825260409091208054918101546002820154600383015460048401546005909401546001600160a01b0395861695938416949293821692600160a01b90920460ff16919087565b60405161024697969594939291906123bb565b61036261034e3660046122d0565b60026020525f908152604090205460ff1681565b6040519015158152602001610246565b610362610380366004612248565b60076020525f908152604090205460ff1681565b6102a36103a2366004612248565b610884565b600e546103ba906001600160a01b031681565b6040516001600160a01b039091168152602001610246565b6102826103e03660046122d0565b5f908152600a602052604090205490565b6103f96108f7565b6040516102469190612404565b610282600f5481565b61042261041d366004612248565b610b33565b6040516102469190612451565b6103ba61043d3660046122d0565b60096020525f90815260409020546001600160a01b031681565b6102826104653660046122d0565b600a6020525f908152604090205481565b6102a3610484366004612587565b610c48565b6102a3610d47565b61028261049f3660046125c0565b610d5a565b6104b76104b2366004612248565b610e3a565b604051610246949392919061265c565b6102a36104d53660046122d0565b610ee7565b610282600b5481565b5f546001600160a01b03166103ba565b6102a3610501366004612587565b610fc8565b6102a36105143660046122d0565b61109c565b610362610527366004612248565b60086020525f908152604090205460ff1681565b610543611278565b604051610246919061268a565b61028261055e366004612771565b61145d565b610576610571366004612248565b6119ad565b6040516102469291906127a7565b610597610592366004612248565b611a4e565b60405161024691906127c8565b6102826105b2366004612248565b600c6020525f908152604090205481565b6103ba6105d13660046122d0565b5f908152600960205260409020546001600160a01b031690565b6102a36105f93660046127f9565b611b23565b61036261060c366004612248565b60066020525f908152604090205460ff1681565b6102a361062e366004612248565b611c88565b6102a36106413660046122d0565b611cc5565b610659610654366004612248565b611fac565b604051610246919061285c565b60036020525f9081526040902080548190610680906128a1565b80601f01602080910402602001604051908101604052809291908181526020018280546106ac906128a1565b80156106f75780601f106106ce576101008083540402835291602001916106f7565b820191905f5260205f20905b8154815290600101906020018083116106da57829003601f168201915b505050506001830154600284015460038501546004909501549394919390925060ff1685565b61075a6040805160e0810182525f808252602082018190529181018290526060810182905290608082019081526020015f81526020015f81525090565b5f82815260016020818152604092839020835160e08101855281546001600160a01b039081168252938201548416928101929092526002808201549483019490945260038101549283166060830152909290916080840191600160a01b90910460ff16908111156107cd576107cd6122e7565b60028111156107de576107de6122e7565b81526004820154602082015260059091015460409091015292915050565b6001600160a01b038083165f908152600d60209081526040808320938516835292905220545b92915050565b6108306120aa565b600a81111561087f5760405162461bcd60e51b815260206004820152601660248201527546656520746f6f206869676820286d6178203130252960501b60448201526064015b60405180910390fd5b600b55565b61088c6120aa565b6001600160a01b0381166108d55760405162461bcd60e51b815260206004820152601060248201526f125b9d985b1a59081c1b185d1953919560821b6044820152606401610876565b600e80546001600160a01b0319166001600160a01b0392909216919091179055565b60605f805b600f5481101561096f575f5f82815260016020526040902060030154600160a01b900460ff166002811115610933576109336122e7565b14801561095457505f818152600960205260409020546001600160a01b0316155b156109675781610963816128ed565b9250505b6001016108fc565b505f816001600160401b03811115610989576109896124a2565b6040519080825280602002602001820160405280156109f757816020015b6109e46040805160e0810182525f808252602082018190529181018290526060810182905290608082019081526020015f81526020015f81525090565b8152602001906001900390816109a75790505b5090505f805b600f54811015610b2a575f5f82815260016020526040902060030154600160a01b900460ff166002811115610a3457610a346122e7565b148015610a5557505f818152600960205260409020546001600160a01b0316155b15610b22575f81815260016020818152604092839020835160e08101855281546001600160a01b039081168252938201548416928101929092526002808201549483019490945260038101549283166060830152909290916080840191600160a01b90910460ff1690811115610acd57610acd6122e7565b6002811115610ade57610ade6122e7565b815260200160048201548152602001600582015481525050838381518110610b0857610b08612905565b60200260200101819052508180610b1e906128ed565b9250505b6001016109fd565b50909392505050565b610b636040518060a00160405280606081526020015f81526020015f81526020015f81526020015f151581525090565b6001600160a01b0382165f9081526003602052604090819020815160a08101909252805482908290610b94906128a1565b80601f0160208091040260200160405190810160405280929190818152602001828054610bc0906128a1565b8015610c0b5780601f10610be257610100808354040283529160200191610c0b565b820191905f5260205f20905b815481529060010190602001808311610bee57829003601f168201915b505050918352505060018201546020820152600282015460408201526003820154606082015260049091015460ff16151560809091015292915050565b335f9081526008602052604090205460ff1615610cb15760405162461bcd60e51b815260206004820152602160248201527f416c726561647920726567697374657265642061732062656e656669636961726044820152607960f81b6064820152608401610876565b5f815111610cd15760405162461bcd60e51b815260040161087690612919565b335f818152600860209081526040808320805460ff191660011790558051608081018252858152808301849052808201849052606081018490529383526005909152902081518190610d23908261298b565b50602082015160018201556040820151600282015560609091015160039091015550565b610d4f6120aa565b610d585f6120d6565b565b335f9081526006602052604081205460ff16610db85760405162461bcd60e51b815260206004820152601e60248201527f4f6e6c792076656e646f72732063616e2063726561746520706c6174657300006044820152606401610876565b600e54604051637e0ae5f760e01b81526001600160a01b0390911690637e0ae5f790610df09089908990899089908990600401612a45565b6020604051808303815f875af1158015610e0c573d5f5f3e3d5ffd5b505050506040513d601f19601f82011682018060405250810190610e309190612a92565b9695505050505050565b60056020525f9081526040902080548190610e54906128a1565b80601f0160208091040260200160405190810160405280929190818152602001828054610e80906128a1565b8015610ecb5780601f10610ea257610100808354040283529160200191610ecb565b820191905f5260205f20905b815481529060010190602001808311610eae57829003601f168201915b5050505050908060010154908060020154908060030154905084565b5f818152600160208190526040909120908101546001600160a01b03163314610f525760405162461bcd60e51b815260206004820152601a60248201527f4f6e6c792076656e646f722063616e206d61726b2072656164790000000000006044820152606401610876565b5f6003820154600160a01b900460ff166002811115610f7357610f736122e7565b14610fb15760405162461bcd60e51b815260206004820152600e60248201526d496e76616c69642073746174757360901b6044820152606401610876565b600301805460ff60a01b1916600160a01b17905550565b335f9081526007602052604090205460ff16156110275760405162461bcd60e51b815260206004820152601b60248201527f416c7265616479207265676973746572656420617320627579657200000000006044820152606401610876565b5f8151116110475760405162461bcd60e51b815260040161087690612919565b335f818152600760209081526040808320805460ff1916600117905580518082018252858152808301849052938352600490915290208151819061108b908261298b565b506020820151816001015590505050565b5f818152600160205260408120906003820154600160a01b900460ff1660028111156110ca576110ca6122e7565b1461110f5760405162461bcd60e51b8152602060048201526015602482015274566f7563686572206e6f7420617661696c61626c6560581b6044820152606401610876565b5f828152600960205260409020546001600160a01b0316156111735760405162461bcd60e51b815260206004820152601760248201527f566f756368657220616c726561647920636c61696d65640000000000000000006044820152606401610876565b335f9081526008602052604090205460ff166111e15760405162461bcd60e51b815260206004820152602760248201527f4f6e6c7920726567697374657265642062656e656669636961726965732063616044820152666e20636c61696d60c81b6064820152608401610876565b5f828152600960205260409081902080546001600160a01b03191633908117909155600e546005840154845493516366debc2160e01b815260048101919091526001600160a01b039384166024820152604481019290925291909116906366debc21906064015f604051808303815f87803b15801561125e575f5ffd5b505af1158015611270573d5f5f3e3d5ffd5b505050505050565b60605f600e5f9054906101000a90046001600160a01b03166001600160a01b031663a39dbca66040518163ffffffff1660e01b81526004015f60405180830381865afa1580156112ca573d5f5f3e3d5ffd5b505050506040513d5f823e601f3d908101601f191682016040526112f19190810190612bda565b90505f805b825181101561133a575f83828151811061131257611312612905565b602002602001015160e001511115611332578161132e816128ed565b9250505b6001016112f6565b505f816001600160401b03811115611354576113546124a2565b6040519080825280602002602001820160405280156113d157816020015b6113be6040518061010001604052806060815260200160608152602001606081526020015f6001600160a01b031681526020015f81526020015f81526020015f81526020015f81525090565b8152602001906001900390816113725790505b5090505f805b8451811015611453575f8582815181106113f3576113f3612905565b602002602001015160e00151111561144b5784818151811061141757611417612905565b602002602001015183838151811061143157611431612905565b60200260200101819052508180611447906128ed565b9250505b6001016113d7565b5090949350505050565b600e546040516331a9108f60e11b8152600481018590525f9182916001600160a01b0390911690636352211e90602401602060405180830381865afa1580156114a8573d5f5f3e3d5ffd5b505050506040513d601f19601f820116820180604052508101906114cc9190612c98565b90506001600160a01b0381166115165760405162461bcd60e51b815260206004820152600f60248201526e24b73b30b634b2103b37bab1b432b960891b6044820152606401610876565b5f841161155a5760405162461bcd60e51b81526020600482015260126024820152710416d6f756e74206d757374206265203e20360741b6044820152606401610876565b6001600160a01b0383166115a05760405162461bcd60e51b815260206004820152600d60248201526c24b73b30b634b2103a37b5b2b760991b6044820152606401610876565b6001600160a01b0381165f9081526006602052604090205460ff166115ff5760405162461bcd60e51b815260206004820152601560248201527415995b991bdc881b9bdd081c9959da5cdd195c9959605a1b6044820152606401610876565b600e5460405163bffb29e760e01b8152600481018790525f916001600160a01b03169063bffb29e790602401606060405180830381865afa158015611646573d5f5f3e3d5ffd5b505050506040513d601f19601f8201168201806040525081019061166a9190612cb3565b600e54815160405163e6ae2b7d60e01b81529293505f926001600160a01b039092169163e6ae2b7d916116a39160040190815260200190565b5f60405180830381865afa1580156116bd573d5f5f3e3d5ffd5b505050506040513d5f823e601f3d908101601f191682016040526116e49190810190612d18565b90508160200151156117385760405162461bcd60e51b815260206004820152601860248201527f566f756368657220616c72656164792072656465656d656400000000000000006044820152606401610876565b8060a00151421061177f5760405162461bcd60e51b8152602060048201526011602482015270141b185d19481a185cc8195e1c1a5c9959607a1b6044820152606401610876565b600f80545f918261178f836128ed565b909155506040805160e0810182523381526001600160a01b0387811660208301529181018a90529088166060820152909150608081015f81524260208083019190915260409182018b90525f848152600180835290839020845181546001600160a01b03199081166001600160a01b039283161783559386015192820180548516938216939093179092559284015160028085019190915560608501516003850180549485169190931690811783556080860151936001600160a81b0319161790600160a01b908490811115611867576118676122e7565b021790555060a0820151600482015560c0909101516005909101555f818152600a602052604090208790556118a76001600160a01b03871633308a612125565b600e5460405163047ec48b60e01b8152600481018a90523360248201526001600160a01b039091169063047ec48b906044015f604051808303815f87803b1580156118f0575f5ffd5b505af1158015611902573d5f5f3e3d5ffd5b5050335f9081526007602052604090205460ff16915061197f905057335f818152600760209081526040808320805460ff191660019081179091558151606081018352808301858152815280840191909152938352600490915290208151819061196c908261298b565b50602082015181600101559050506119a2565b335f90815260046020526040812060010180549161199c836128ed565b91905055505b979650505050505050565b60046020525f90815260409020805481906119c7906128a1565b80601f01602080910402602001604051908101604052809291908181526020018280546119f3906128a1565b8015611a3e5780601f10611a1557610100808354040283529160200191611a3e565b820191905f5260205f20905b815481529060010190602001808311611a2157829003601f168201915b5050505050908060010154905082565b60408051808201909152606081525f60208201526001600160a01b0382165f90815260046020526040908190208151808301909252805482908290611a92906128a1565b80601f0160208091040260200160405190810160405280929190818152602001828054611abe906128a1565b8015611b095780601f10611ae057610100808354040283529160200191611b09565b820191905f5260205f20905b815481529060010190602001808311611aec57829003601f168201915b505050505081526020016001820154815250509050919050565b335f9081526006602052604090205460ff1615611b825760405162461bcd60e51b815260206004820152601c60248201527f416c726561647920726567697374657265642061732076656e646f72000000006044820152606401610876565b5f825111611ba25760405162461bcd60e51b815260040161087690612919565b5f815111611bf25760405162461bcd60e51b815260206004820152601a60248201527f454e5320646f6d61696e2063616e6e6f7420626520656d7074790000000000006044820152606401610876565b335f818152600660209081526040808320805460ff19166001179055805160a08101825286815280830184905280820184905260608101849052608081018490529383526003909152902081518190611c4b908261298b565b506020820151600182015560408201516002820155606082015160038201556080909101516004909101805460ff19169115159190911790555050565b611c906120aa565b6001600160a01b038116611cb957604051631e4fbdf760e01b81525f6004820152602401610876565b611cc2816120d6565b50565b5f8181526001602090815260408083206009909252909120546001600160a01b03168015611d4a57336001600160a01b03821614611d455760405162461bcd60e51b815260206004820152601c60248201527f4f6e6c792062656e65666963696172792063616e20636f6e6669726d000000006044820152606401610876565b611d9c565b81546001600160a01b03163314611d9c5760405162461bcd60e51b81526020600482015260166024820152754f6e6c792062757965722063616e20636f6e6669726d60501b6044820152606401610876565b60016003830154600160a01b900460ff166002811115611dbe57611dbe6122e7565b14611df75760405162461bcd60e51b81526020600482015260096024820152684e6f7420726561647960b81b6044820152606401610876565b60038201805460ff60a01b1916600160a11b179055600b5460028301545f91606491611e239190612d49565b611e2d9190612d60565b90505f818460020154611e409190612d7f565b60038501546001600160a01b03165f908152600c6020526040812080549293508492909190611e70908490612d92565b909155505060028401545f868152600a602052604090205414611ec75760405162461bcd60e51b815260206004820152600f60248201526e08ae6c6e4deee40dad2e6dac2e8c6d608b1b6044820152606401610876565b5f858152600a602052604081205560018401546003850154611ef6916001600160a01b03918216911683612192565b60018401546001600160a01b03165f908152600360208190526040822001805491611f20836128ed565b909155505060018401546001600160a01b039081165f908152600d60209081526040808320600389015490941683529290529081208054839290611f65908490612d92565b90915550506001600160a01b03831615611fa5576001600160a01b0383165f908152600560205260408120600301805491611f9f836128ed565b91905055505b5050505050565b611fd46040518060800160405280606081526020015f81526020015f81526020015f81525090565b6001600160a01b0382165f9081526005602052604090819020815160808101909252805482908290612005906128a1565b80601f0160208091040260200160405190810160405280929190818152602001828054612031906128a1565b801561207c5780601f106120535761010080835404028352916020019161207c565b820191905f5260205f20905b81548152906001019060200180831161205f57829003601f168201915b5050505050815260200160018201548152602001600282015481526020016003820154815250509050919050565b5f546001600160a01b03163314610d585760405163118cdaa760e01b8152336004820152602401610876565b5f80546001600160a01b038381166001600160a01b0319831681178455604051919092169283917f8be0079c531659141344cd1fd0a4f28419497f9722a3daafe3b4186f6b6457e09190a35050565b6040516001600160a01b03848116602483015283811660448301526064820183905261218c9186918216906323b872dd906084015b604051602081830303815290604052915060e01b6020820180516001600160e01b0383818316178352505050506121c8565b50505050565b6040516001600160a01b038381166024830152604482018390526121c391859182169063a9059cbb9060640161215a565b505050565b5f5f60205f8451602086015f885af1806121e7576040513d5f823e3d81fd5b50505f513d915081156121fe57806001141561220b565b6001600160a01b0384163b155b1561218c57604051635274afe760e01b81526001600160a01b0385166004820152602401610876565b6001600160a01b0381168114611cc2575f5ffd5b5f60208284031215612258575f5ffd5b813561226381612234565b9392505050565b5f81518084528060208401602086015e5f602082860101526020601f19601f83011685010191505092915050565b60a081525f6122aa60a083018861226a565b905085602083015284604083015283606083015282151560808301529695505050505050565b5f602082840312156122e0575f5ffd5b5035919050565b634e487b7160e01b5f52602160045260245ffd5b6003811061231757634e487b7160e01b5f52602160045260245ffd5b9052565b80516001600160a01b039081168352602080830151821690840152604080830151908401526060808301519091169083015260808082015190612360908401826122fb565b5060a0818101519083015260c090810151910152565b60e08101610822828461231b565b5f5f60408385031215612395575f5ffd5b82356123a081612234565b915060208301356123b081612234565b809150509250929050565b6001600160a01b0388811682528781166020830152604082018790528516606082015260e081016123ef60808301866122fb565b60a082019390935260c0015295945050505050565b602080825282518282018190525f918401906040840190835b818110156124465761243083855161231b565b6020939093019260e0929092019160010161241d565b509095945050505050565b602081525f825160a0602084015261246c60c084018261226a565b90506020840151604084015260408401516060840152606084015160808401526080840151151560a08401528091505092915050565b634e487b7160e01b5f52604160045260245ffd5b60405161010081016001600160401b03811182821017156124d9576124d96124a2565b60405290565b604051601f8201601f191681016001600160401b0381118282101715612507576125076124a2565b604052919050565b5f6001600160401b03821115612527576125276124a2565b50601f01601f191660200190565b5f82601f830112612544575f5ffd5b81356125576125528261250f565b6124df565b81815284602083860101111561256b575f5ffd5b816020850160208301375f918101602001919091529392505050565b5f60208284031215612597575f5ffd5b81356001600160401b038111156125ac575f5ffd5b6125b884828501612535565b949350505050565b5f5f5f5f5f60a086880312156125d4575f5ffd5b85356001600160401b038111156125e9575f5ffd5b6125f588828901612535565b95505060208601356001600160401b03811115612610575f5ffd5b61261c88828901612535565b94505060408601356001600160401b03811115612637575f5ffd5b61264388828901612535565b9598949750949560608101359550608001359392505050565b608081525f61266e608083018761226a565b6020830195909552506040810192909252606090910152919050565b5f602082016020835280845180835260408501915060408160051b8601019250602086015f5b8281101561276557603f198786030184528151805161010087526126d861010088018261226a565b9050602082015187820360208901526126f1828261226a565b9150506040820151878203604089015261270b828261226a565b915050606082015161272860608901826001600160a01b03169052565b506080828101519088015260a0808301519088015260c0808301519088015260e091820151919096015260209384019391909101906001016126b0565b50929695505050505050565b5f5f5f60608486031215612783575f5ffd5b8335925060208401359150604084013561279c81612234565b809150509250925092565b604081525f6127b9604083018561226a565b90508260208301529392505050565b602081525f8251604060208401526127e3606084018261226a565b9050602084015160408401528091505092915050565b5f5f6040838503121561280a575f5ffd5b82356001600160401b0381111561281f575f5ffd5b61282b85828601612535565b92505060208301356001600160401b03811115612846575f5ffd5b61285285828601612535565b9150509250929050565b602081525f82516080602084015261287760a084018261226a565b90506020840151604084015260408401516060840152606084015160808401528091505092915050565b600181811c908216806128b557607f821691505b6020821081036128d357634e487b7160e01b5f52602260045260245ffd5b50919050565b634e487b7160e01b5f52601160045260245ffd5b5f600182016128fe576128fe6128d9565b5060010190565b634e487b7160e01b5f52603260045260245ffd5b6020808252601490820152734e616d652063616e6e6f7420626520656d70747960601b604082015260600190565b601f8211156121c357805f5260205f20601f840160051c8101602085101561296c5750805b601f840160051c820191505b81811015611fa5575f8155600101612978565b81516001600160401b038111156129a4576129a46124a2565b6129b8816129b284546128a1565b84612947565b6020601f8211600181146129ea575f83156129d35750848201515b5f19600385901b1c1916600184901b178455611fa5565b5f84815260208120601f198516915b82811015612a1957878501518255602094850194600190920191016129f9565b5084821015612a3657868401515f19600387901b60f8161c191681555b50505050600190811b01905550565b60a081525f612a5760a083018861226a565b8281036020840152612a69818861226a565b90508281036040840152612a7d818761226a565b60608401959095525050608001529392505050565b5f60208284031215612aa2575f5ffd5b5051919050565b5f82601f830112612ab8575f5ffd5b8151612ac66125528261250f565b818152846020838601011115612ada575f5ffd5b8160208501602083015e5f918101602001919091529392505050565b8051612b0181612234565b919050565b5f6101008284031215612b17575f5ffd5b612b1f6124b6565b905081516001600160401b03811115612b36575f5ffd5b612b4284828501612aa9565b82525060208201516001600160401b03811115612b5d575f5ffd5b612b6984828501612aa9565b60208301525060408201516001600160401b03811115612b87575f5ffd5b612b9384828501612aa9565b604083015250612ba560608301612af6565b60608201526080828101519082015260a0808301519082015260c0808301519082015260e09182015191810191909152919050565b5f60208284031215612bea575f5ffd5b81516001600160401b03811115612bff575f5ffd5b8201601f81018413612c0f575f5ffd5b80516001600160401b03811115612c2857612c286124a2565b8060051b612c38602082016124df565b91825260208184018101929081019087841115612c53575f5ffd5b6020850192505b838310156119a25782516001600160401b03811115612c77575f5ffd5b612c8689602083890101612b06565b83525060209283019290910190612c5a565b5f60208284031215612ca8575f5ffd5b815161226381612234565b5f6060828403128015612cc4575f5ffd5b50604051606081016001600160401b0381118282101715612ce757612ce76124a2565b6040528251815260208301518015158114612d00575f5ffd5b60208201526040928301519281019290925250919050565b5f60208284031215612d28575f5ffd5b81516001600160401b03811115612d3d575f5ffd5b6125b884828501612b06565b8082028115828204841417610822576108226128d9565b5f82612d7a57634e487b7160e01b5f52601260045260245ffd5b500490565b81810381811115610822576108226128d9565b80820180821115610822576108226128d956fea2646970667358221220fb9a3a034cef397db2edbc31ab6d5aae5aec94dbe31fe7dd458cf5fb2086e11f64736f6c634300081c0033",
  "linkReferences": {},
  "deployedLinkReferences": {},
  "immutableReferences": {},
  "inputSourceName": "project/contracts/MesaCompartida.sol",
  "buildInfoId": "solc-0_8_28-bb1ea8dfaace2b518ee6200e1ad12fefd9e7fece"
}