{
  "_format": "hh3-artifact-1",
  "contractName": "MesaCompartida",
  "sourceName": "contracts/MesaCompartida.sol",
  "abi": [
    {
      "inputs": [
        {
          "internalType": "address",
          "name": "_plateNFT",
          "type": "address"
        }
      ],
      "stateMutability": "nonpayable",
      "type": "constructor"
    },
    {
      "inputs": [
        {
          "internalType": "address",
          "name": "owner",
          "type": "address"
        }
      ],
      "name": "OwnableInvalidOwner",
      "type": "error"
    },
    {
      "inputs": [
        {
          "internalType": "address",
          "name": "account",
          "type": "address"
        }
      ],
      "name": "OwnableUnauthorizedAccount",
      "type": "error"
    },
    {
      "inputs": [
        {
          "internalType": "address",
          "name": "token",
          "type": "address"
        }
      ],
      "name": "SafeERC20FailedOperation",
      "type": "error"
    },
    {
      "anonymous": false,
      "inputs": [
        {
          "indexed": true,
          "internalType": "address",
          "name": "previousOwner",
          "type": "address"
        },
        {
          "indexed": true,
          "internalType": "address",
          "name": "newOwner",
          "type": "address"
        }
      ],
      "name": "OwnershipTransferred",
      "type": "event"
    },
    {
      "inputs": [
        {
          "internalType": "address",
          "name": "",
          "type": "address"
        }
      ],
      "name": "beneficiaryProfiles",
      "outputs": [
        {
          "internalType": "string",
          "name": "name",
          "type": "string"
        },
        {
          "internalType": "uint256",
          "name": "ratingSum",
          "type": "uint256"
        },
        {
          "internalType": "uint256",
          "name": "ratingCount",
          "type": "uint256"
        },
        {
          "internalType": "uint256",
          "name": "totalRedemptions",
          "type": "uint256"
        }
      ],
      "stateMutability": "view",
      "type": "function"
    },
    {
      "inputs": [
        {
          "internalType": "address",
          "name": "",
          "type": "address"
        }
      ],
      "name": "buyerProfiles",
      "outputs": [
        {
          "internalType": "string",
          "name": "name",
          "type": "string"
        },
        {
          "internalType": "uint256",
          "name": "totalPurchases",
          "type": "uint256"
        }
      ],
      "stateMutability": "view",
      "type": "function"
    },
    {
      "inputs": [
        {
          "internalType": "uint256",
          "name": "_transactionId",
          "type": "uint256"
        }
      ],
      "name": "claimVoucher",
      "outputs": [],
      "stateMutability": "nonpayable",
      "type": "function"
    },
    {
      "inputs": [
        {
          "internalType": "uint256",
          "name": "_transactionId",
          "type": "uint256"
        }
      ],
      "name": "confirmDelivery",
      "outputs": [],
      "stateMutability": "nonpayable",
      "type": "function"
    },
    {
      "inputs": [
        {
          "internalType": "string",
          "name": "_name",
          "type": "string"
        }
      ],
      "name": "createBeneficiaryProfile",
      "outputs": [],
      "stateMutability": "nonpayable",
      "type": "function"
    },
    {
      "inputs": [
        {
          "internalType": "string",
          "name": "_name",
          "type": "string"
        }
      ],
      "name": "createBuyerProfile",
      "outputs": [],
      "stateMutability": "nonpayable",
      "type": "function"
    },
    {
      "inputs": [
        {
          "internalType": "string",
          "name": "_name",
          "type": "string"
        },
        {
          "internalType": "string",
          "name": "_description",
          "type": "string"
        },
        {
          "internalType": "string",
          "name": "_ipfsHash",
          "type": "string"
        },
        {
          "internalType": "uint256",
          "name": "_maxSupply",
          "type": "uint256"
        },
        {
          "internalType": "uint256",
          "name": "_expiresAt",
          "type": "uint256"
        }
      ],
      "name": "createPlate",
      "outputs": [
        {
          "internalType": "uint256",
          "name": "",
          "type": "uint256"
        }
      ],
      "stateMutability": "nonpayable",
      "type": "function"
    },
    {
      "inputs": [
        {
          "internalType": "string",
          "name": "_name",
          "type": "string"
        },
        {
          "internalType": "string",
          "name": "_ensDomain",
          "type": "string"
        }
      ],
      "name": "createVendorProfile",
      "outputs": [],
      "stateMutability": "nonpayable",
      "type": "function"
    },
    {
      "inputs": [
        {
          "internalType": "uint256",
          "name": "",
          "type": "uint256"
        }
      ],
      "name": "escrowAmount",
      "outputs": [
        {
          "internalType": "uint256",
          "name": "",
          "type": "uint256"
        }
      ],
      "stateMutability": "view",
      "type": "function"
    },
    {
      "inputs": [],
      "name": "getAvailableVouchersForBeneficiary",
      "outputs": [
        {
          "components": [
            {
              "internalType": "address",
              "name": "buyer",
              "type": "address"
            },
            {
              "internalType": "address",
              "name": "vendor",
              "type": "address"
            },
            {
              "internalType": "uint256",
              "name": "amount",
              "type": "uint256"
            },
            {
              "internalType": "contract IERC20",
              "name": "token",
              "type": "address"
            },
            {
              "internalType": "enum MesaCompartida.DeliveryStatus",
              "name": "status",
              "type": "uint8"
            },
            {
              "internalType": "uint256",
              "name": "timestamp",
              "type": "uint256"
            },
            {
              "internalType": "uint256",
              "name": "voucherTokenId",
              "type": "uint256"
            }
          ],
          "internalType": "struct MesaCompartida.VoucherTransaction[]",
          "name": "",
          "type": "tuple[]"
        }
      ],
      "stateMutability": "view",
      "type": "function"
    },
    {
      "inputs": [
        {
          "internalType": "address",
          "name": "_beneficiary",
          "type": "address"
        }
      ],
      "name": "getBeneficiaryProfile",
      "outputs": [
        {
          "components": [
            {
              "internalType": "string",
              "name": "name",
              "type": "string"
            },
            {
              "internalType": "uint256",
              "name": "ratingSum",
              "type": "uint256"
            },
            {
              "internalType": "uint256",
              "name": "ratingCount",
              "type": "uint256"
            },
            {
              "internalType": "uint256",
              "name": "totalRedemptions",
              "type": "uint256"
            }
          ],
          "internalType": "struct MesaCompartida.BeneficiaryProfile",
          "name": "",
          "type": "tuple"
        }
      ],
      "stateMutability": "view",
      "type": "function"
    },
    {
      "inputs": [
        {
          "internalType": "address",
          "name": "_buyer",
          "type": "address"
        }
      ],
      "name": "getBuyerProfile",
      "outputs": [
        {
          "components": [
            {
              "internalType": "string",
              "name": "name",
              "type": "string"
            },
            {
              "internalType": "uint256",
              "name": "totalPurchases",
              "type": "uint256"
            }
          ],
          "internalType": "struct MesaCompartida.BuyerProfile",
          "name": "",
          "type": "tuple"
        }
      ],
      "stateMutability": "view",
      "type": "function"
    },
    {
      "inputs": [
        {
          "internalType": "uint256",
          "name": "_transactionId",
          "type": "uint256"
        }
      ],
      "name": "getEscrowAmount",
      "outputs": [
        {
          "internalType": "uint256",
          "name": "",
          "type": "uint256"
        }
      ],
      "stateMutability": "view",
      "type": "function"
    },
    {
      "inputs": [],
      "name": "getMarketplaceVouchers",
      "outputs": [
        {
          "components": [
            {
              "internalType": "string",
              "name": "name",
              "type": "string"
            },
            {
              "internalType": "string",
              "name": "description",
              "type": "string"
            },
            {
              "internalType": "string",
              "name": "ipfsHash",
              "type": "string"
            },
            {
              "internalType": "address",
              "name": "vendor",
              "type": "address"
            },
            {
              "internalType": "uint256",
              "name": "createdAt",
              "type": "uint256"
            },
            {
              "internalType": "uint256",
              "name": "expiresAt",
              "type": "uint256"
            },
            {
              "internalType": "uint256",
              "name": "maxSupply",
              "type": "uint256"
            },
            {
              "internalType": "uint256",
              "name": "availableVouchers",
              "type": "uint256"
            }
          ],
          "internalType": "struct PlateNFT.PlateMetadata[]",
          "name": "",
          "type": "tuple[]"
        }
      ],
      "stateMutability": "view",
      "type": "function"
    },
    {
      "inputs": [
        {
          "internalType": "address",
          "name": "_vendor",
          "type": "address"
        },
        {
          "internalType": "address",
          "name": "_token",
          "type": "address"
        }
      ],
      "name": "getVendorEarnings",
      "outputs": [
        {
          "internalType": "uint256",
          "name": "",
          "type": "uint256"
        }
      ],
      "stateMutability": "view",
      "type": "function"
    },
    {
      "inputs": [
        {
          "internalType": "address",
          "name": "_vendor",
          "type": "address"
        }
      ],
      "name": "getVendorPlates",
      "outputs": [
        {
          "components": [
            {
              "internalType": "string",
              "name": "name",
              "type": "string"
            },
            {
              "internalType": "string",
              "name": "description",
              "type": "string"
            },
            {
              "internalType": "string",
              "name": "ipfsHash",
              "type": "string"
            },
            {
              "internalType": "address",
              "name": "vendor",
              "type": "address"
            },
            {
              "internalType": "uint256",
              "name": "createdAt",
              "type": "uint256"
            },
            {
              "internalType": "uint256",
              "name": "expiresAt",
              "type": "uint256"
            },
            {
              "internalType": "uint256",
              "name": "maxSupply",
              "type": "uint256"
            },
            {
              "internalType": "uint256",
              "name": "availableVouchers",
              "type": "uint256"
            }
          ],
          "internalType": "struct PlateNFT.PlateMetadata[]",
          "name": "",
          "type": "tuple[]"
        }
      ],
      "stateMutability": "view",
      "type": "function"
    },
    {
      "inputs": [
        {
          "internalType": "address",
          "name": "_vendor",
          "type": "address"
        }
      ],
      "name": "getVendorProfile",
      "outputs": [
        {
          "components": [
            {
              "internalType": "string",
              "name": "name",
              "type": "string"
            },
            {
              "internalType": "uint256",
              "name": "ratingSum",
              "type": "uint256"
            },
            {
              "internalType": "uint256",
              "name": "ratingCount",
              "type": "uint256"
            },
            {
              "internalType": "uint256",
              "name": "totalSales",
              "type": "uint256"
            },
            {
              "internalType": "bool",
              "name": "verified",
              "type": "bool"
            }
          ],
          "internalType": "struct MesaCompartida.VendorProfile",
          "name": "",
          "type": "tuple"
        }
      ],
      "stateMutability": "view",
      "type": "function"
    },
    {
      "inputs": [
        {
          "internalType": "uint256",
          "name": "_transactionId",
          "type": "uint256"
        }
      ],
      "name": "getVoucherBeneficiary",
      "outputs": [
        {
          "internalType": "address",
          "name": "",
          "type": "address"
        }
      ],
      "stateMutability": "view",
      "type": "function"
    },
    {
      "inputs": [
        {
          "internalType": "uint256",
          "name": "_transactionId",
          "type": "uint256"
        }
      ],
      "name": "getVoucherTransaction",
      "outputs": [
        {
          "components": [
            {
              "internalType": "address",
              "name": "buyer",
              "type": "address"
            },
            {
              "internalType": "address",
              "name": "vendor",
              "type": "address"
            },
            {
              "internalType": "uint256",
              "name": "amount",
              "type": "uint256"
            },
            {
              "internalType": "contract IERC20",
              "name": "token",
              "type": "address"
            },
            {
              "internalType": "enum MesaCompartida.DeliveryStatus",
              "name": "status",
              "type": "uint8"
            },
            {
              "internalType": "uint256",
              "name": "timestamp",
              "type": "uint256"
            },
            {
              "internalType": "uint256",
              "name": "voucherTokenId",
              "type": "uint256"
            }
          ],
          "internalType": "struct MesaCompartida.VoucherTransaction",
          "name": "",
          "type": "tuple"
        }
      ],
      "stateMutability": "view",
      "type": "function"
    },
    {
      "inputs": [
        {
          "internalType": "address",
          "name": "",
          "type": "address"
        }
      ],
      "name": "isBeneficiary",
      "outputs": [
        {
          "internalType": "bool",
          "name": "",
          "type": "bool"
        }
      ],
      "stateMutability": "view",
      "type": "function"
    },
    {
      "inputs": [
        {
          "internalType": "address",
          "name": "",
          "type": "address"
        }
      ],
      "name": "isBuyer",
      "outputs": [
        {
          "internalType": "bool",
          "name": "",
          "type": "bool"
        }
      ],
      "stateMutability": "view",
      "type": "function"
    },
    {
      "inputs": [
        {
          "internalType": "address",
          "name": "",
          "type": "address"
        }
      ],
      "name": "isVendor",
      "outputs": [
        {
          "internalType": "bool",
          "name": "",
          "type": "bool"
        }
      ],
      "stateMutability": "view",
      "type": "function"
    },
    {
      "inputs": [
        {
          "internalType": "uint256",
          "name": "_transactionId",
          "type": "uint256"
        }
      ],
      "name": "markReady",
      "outputs": [],
      "stateMutability": "nonpayable",
      "type": "function"
    },
    {
      "inputs": [],
      "name": "owner",
      "outputs": [
        {
          "internalType": "address",
          "name": "",
          "type": "address"
        }
      ],
      "stateMutability": "view",
      "type": "function"
    },
    {
      "inputs": [],
      "name": "plateNFT",
      "outputs": [
        {
          "internalType": "contract PlateNFT",
          "name": "",
          "type": "address"
        }
      ],
      "stateMutability": "view",
      "type": "function"
    },
    {
      "inputs": [
        {
          "internalType": "address",
          "name": "",
          "type": "address"
        }
      ],
      "name": "platformBalance",
      "outputs": [
        {
          "internalType": "uint256",
          "name": "",
          "type": "uint256"
        }
      ],
      "stateMutability": "view",
      "type": "function"
    },
    {
      "inputs": [],
      "name": "platformFeePercent",
      "outputs": [
        {
          "internalType": "uint256",
          "name": "",
          "type": "uint256"
        }
      ],
      "stateMutability": "view",
      "type": "function"
    },
    {
      "inputs": [
        {
          "internalType": "uint256",
          "name": "_voucherTokenId",
          "type": "uint256"
        },
        {
          "internalType": "uint256",
          "name": "_amount",
          "type": "uint256"
        },
        {
          "internalType": "address",
          "name": "_token",
          "type": "address"
        }
      ],
      "name": "purchaseVoucher",
      "outputs": [
        {
          "internalType": "uint256",
          "name": "",
          "type": "uint256"
        }
      ],
      "stateMutability": "nonpayable",
      "type": "function"
    },
    {
      "inputs": [],
      "name": "renounceOwnership",
      "outputs": [],
      "stateMutability": "nonpayable",
      "type": "function"
    },
    {
      "inputs": [
        {
          "internalType": "address",
          "name": "_plateNFT",
          "type": "address"
        }
      ],
      "name": "setPlateNFT",
      "outputs": [],
      "stateMutability": "nonpayable",
      "type": "function"
    },
    {
      "inputs": [
        {
          "internalType": "uint256",
          "name": "_feePercent",
          "type": "uint256"
        }
      ],
      "name": "setPlatformFee",
      "outputs": [],
      "stateMutability": "nonpayable",
      "type": "function"
    },
    {
      "inputs": [
        {
          "internalType": "address",
          "name": "newOwner",
          "type": "address"
        }
      ],
      "name": "transferOwnership",
      "outputs": [],
      "stateMutability": "nonpayable",
      "type": "function"
    },
    {
      "inputs": [
        {
          "internalType": "address",
          "name": "",
          "type": "address"
        },
        {
          "internalType": "address",
          "name": "",
          "type": "address"
        }
      ],
      "name": "vendorEarnings",
      "outputs": [
        {
          "internalType": "uint256",
          "name": "",
          "type": "uint256"
        }
      ],
      "stateMutability": "view",
      "type": "function"
    },
    {
      "inputs": [
        {
          "internalType": "address",
          "name": "",
          "type": "address"
        }
      ],
      "name": "vendorProfiles",
      "outputs": [
        {
          "internalType": "string",
          "name": "name",
          "type": "string"
        },
        {
          "internalType": "uint256",
          "name": "ratingSum",
          "type": "uint256"
        },
        {
          "internalType": "uint256",
          "name": "ratingCount",
          "type": "uint256"
        },
        {
          "internalType": "uint256",
          "name": "totalSales",
          "type": "uint256"
        },
        {
          "internalType": "bool",
          "name": "verified",
          "type": "bool"
        }
      ],
      "stateMutability": "view",
      "type": "function"
    },
    {
      "inputs": [
        {
          "internalType": "uint256",
          "name": "",
          "type": "uint256"
        }
      ],
      "name": "vendorRated",
      "outputs": [
        {
          "internalType": "bool",
          "name": "",
          "type": "bool"
        }
      ],
      "stateMutability": "view",
      "type": "function"
    },
    {
      "inputs": [
        {
          "internalType": "uint256",
          "name": "",
          "type": "uint256"
        }
      ],
      "name": "voucherBeneficiary",
      "outputs": [
        {
          "internalType": "address",
          "name": "",
          "type": "address"
        }
      ],
      "stateMutability": "view",
      "type": "function"
    },
    {
      "inputs": [],
      "name": "voucherTransactionCounter",
      "outputs": [
        {
          "internalType": "uint256",
          "name": "",
          "type": "uint256"
        }
      ],
      "stateMutability": "view",
      "type": "function"
    },
    {
      "inputs": [
        {
          "internalType": "uint256",
          "name": "",
          "type": "uint256"
        }
      ],
      "name": "voucherTransactions",
      "outputs": [
        {
          "internalType": "address",
          "name": "buyer",
          "type": "address"
        },
        {
          "internalType": "address",
          "name": "vendor",
          "type": "address"
        },
        {
          "internalType": "uint256",
          "name": "amount",
          "type": "uint256"
        },
        {
          "internalType": "contract IERC20",
          "name": "token",
          "type": "address"
        },
        {
          "internalType": "enum MesaCompartida.DeliveryStatus",
          "name": "status",
          "type": "uint8"
        },
        {
          "internalType": "uint256",
          "name": "timestamp",
          "type": "uint256"
        },
        {
          "internalType": "uint256",
          "name": "voucherTokenId",
          "type": "uint256"
        }
      ],
      "stateMutability": "view",
      "type": "function"
    }
  ],
  "bytecode": "0x60806040525f600b55348015610013575f5ffd5b506040516131fd3803806131fd8339810160408190526100329161011f565b338061005857604051631e4fbdf760e01b81525f60048201526024015b60405180910390fd5b610061816100d0565b506001600160a01b0381166100ab5760405162461bcd60e51b815260206004820152601060248201526f125b9d985b1a59081c1b185d1953919560821b604482015260640161004f565b600e80546001600160a01b0319166001600160a01b039290921691909117905561014c565b5f80546001600160a01b038381166001600160a01b0319831681178455604051919092169283917f8be0079c531659141344cd1fd0a4f28419497f9722a3daafe3b4186f6b6457e09190a35050565b5f6020828403121561012f575f5ffd5b81516001600160a01b0381168114610145575f5ffd5b9392505050565b6130a4806101595f395ff3fe608060405234801561000f575f5ffd5b5060043610610229575f3560e01c80637ec2b0d41161012a578063b326d665116100b4578063e9aa988511610079578063e9aa988514610609578063ee54d54f1461061c578063f2fde38b1461063e578063fd84cb9714610651578063fea1426514610664575f5ffd5b8063b326d6651461056e578063b875bbb714610581578063c3f70de5146105a2578063c67e32e9146105c2578063c9321edb146105e1575f5ffd5b806394df9fa3116100fa57806394df9fa3146104fe57806396e8ddb41461051e5780639ade9687146105315780639d19b22614610544578063a0af70f014610566575f5ffd5b80637ec2b0d4146104af578063809587c2146104d25780638c639a85146104e55780638da5cb5b146104ee575f5ffd5b80633ebb309a116101b65780635cc387d91161017b5780635cc387d91461043a5780635d19e56c1461046257806360fe0ffd14610481578063715018a6146104945780637e0ae5f71461049c575f5ffd5b80633ebb309a146103b2578063451ee191146103dd5780634b300ad2146103fc5780634fff1d14146104115780635480df891461041a575f5ffd5b8063145984a8116101fc578063145984a8146102b05780631948f46c146102da5780631f11fd9d1461034b5780632a55feec1461037d5780633cd419821461039f575f5ffd5b8063014ae4081461022d5780630caccdb51461025a5780630f5c8db41461027a57806312e8e2c31461029b575b5f5ffd5b61024061023b36600461251c565b610684565b60405161025195949392919061256c565b60405180910390f35b61026d6102683660046125a4565b61073b565b604051610251919061264a565b61028d610288366004612658565b61081a565b604051908152602001610251565b6102ae6102a93660046125a4565b610846565b005b61028d6102be366004612658565b600d60209081525f928352604080842090915290825290205481565b6103386102e83660046125a4565b600160208190525f91825260409091208054918101546002820154600383015460048401546005909401546001600160a01b0395861695938416949293821692600160a01b90920460ff16919087565b604051610251979695949392919061268f565b61036d6103593660046125a4565b60026020525f908152604090205460ff1681565b6040519015158152602001610251565b61036d61038b36600461251c565b60076020525f908152604090205460ff1681565b6102ae6103ad36600461251c565b6108a2565b600e546103c5906001600160a01b031681565b6040516001600160a01b039091168152602001610251565b61028d6103eb3660046125a4565b5f908152600a602052604090205490565b610404610915565b60405161025191906126d8565b61028d600f5481565b61042d61042836600461251c565b610b51565b604051610251919061271a565b6103c56104483660046125a4565b60096020525f90815260409020546001600160a01b031681565b61028d6104703660046125a4565b600a6020525f908152604090205481565b6102ae61048f366004612850565b610c66565b6102ae610d65565b61028d6104aa366004612889565b610d78565b6104c26104bd36600461251c565b610e58565b6040516102519493929190612925565b6102ae6104e03660046125a4565b610f05565b61028d600b5481565b5f546001600160a01b03166103c5565b61051161050c36600461251c565b610fe6565b6040516102519190612953565b6102ae61052c366004612850565b611297565b6102ae61053f3660046125a4565b61136b565b61036d61055236600461251c565b60086020525f908152604090205460ff1681565b610511611547565b61028d61057c366004612a3a565b6116e8565b61059461058f36600461251c565b611c38565b604051610251929190612a70565b6105b56105b036600461251c565b611cd9565b6040516102519190612a91565b61028d6105d036600461251c565b600c6020525f908152604090205481565b6103c56105ef3660046125a4565b5f908152600960205260409020546001600160a01b031690565b6102ae610617366004612ac2565b611dae565b61036d61062a36600461251c565b60066020525f908152604090205460ff1681565b6102ae61064c36600461251c565b611f13565b6102ae61065f3660046125a4565b611f50565b61067761067236600461251c565b612237565b6040516102519190612b25565b60036020525f908152604090208054819061069e90612b6a565b80601f01602080910402602001604051908101604052809291908181526020018280546106ca90612b6a565b80156107155780601f106106ec57610100808354040283529160200191610715565b820191905f5260205f20905b8154815290600101906020018083116106f857829003601f168201915b505050506001830154600284015460038501546004909501549394919390925060ff1685565b6107786040805160e0810182525f808252602082018190529181018290526060810182905290608082019081526020015f81526020015f81525090565b5f82815260016020818152604092839020835160e08101855281546001600160a01b039081168252938201548416928101929092526002808201549483019490945260038101549283166060830152909290916080840191600160a01b90910460ff16908111156107eb576107eb6125bb565b60028111156107fc576107fc6125bb565b81526004820154602082015260059091015460409091015292915050565b6001600160a01b038083165f908152600d60209081526040808320938516835292905220545b92915050565b61084e612335565b600a81111561089d5760405162461bcd60e51b815260206004820152601660248201527546656520746f6f206869676820286d6178203130252960501b60448201526064015b60405180910390fd5b600b55565b6108aa612335565b6001600160a01b0381166108f35760405162461bcd60e51b815260206004820152601060248201526f125b9d985b1a59081c1b185d1953919560821b6044820152606401610894565b600e80546001600160a01b0319166001600160a01b0392909216919091179055565b60605f805b600f5481101561098d575f5f82815260016020526040902060030154600160a01b900460ff166002811115610951576109516125bb565b14801561097257505f818152600960205260409020546001600160a01b0316155b15610985578161098181612bb6565b9250505b60010161091a565b505f816001600160401b038111156109a7576109a761276b565b604051908082528060200260200182016040528015610a1557816020015b610a026040805160e0810182525f808252602082018190529181018290526060810182905290608082019081526020015f81526020015f81525090565b8152602001906001900390816109c55790505b5090505f805b600f54811015610b48575f5f82815260016020526040902060030154600160a01b900460ff166002811115610a5257610a526125bb565b148015610a7357505f818152600960205260409020546001600160a01b0316155b15610b40575f81815260016020818152604092839020835160e08101855281546001600160a01b039081168252938201548416928101929092526002808201549483019490945260038101549283166060830152909290916080840191600160a01b90910460ff1690811115610aeb57610aeb6125bb565b6002811115610afc57610afc6125bb565b815260200160048201548152602001600582015481525050838381518110610b2657610b26612bce565b60200260200101819052508180610b3c90612bb6565b9250505b600101610a1b565b50909392505050565b610b816040518060a00160405280606081526020015f81526020015f81526020015f81526020015f151581525090565b6001600160a01b0382165f9081526003602052604090819020815160a08101909252805482908290610bb290612b6a565b80601f0160208091040260200160405190810160405280929190818152602001828054610bde90612b6a565b8015610c295780601f10610c0057610100808354040283529160200191610c29565b820191905f5260205f20905b815481529060010190602001808311610c0c57829003601f168201915b505050918352505060018201546020820152600282015460408201526003820154606082015260049091015460ff16151560809091015292915050565b335f9081526008602052604090205460ff1615610ccf5760405162461bcd60e51b815260206004820152602160248201527f416c726561647920726567697374657265642061732062656e656669636961726044820152607960f81b6064820152608401610894565b5f815111610cef5760405162461bcd60e51b815260040161089490612be2565b335f818152600860209081526040808320805460ff191660011790558051608081018252858152808301849052808201849052606081018490529383526005909152902081518190610d419082612c54565b50602082015160018201556040820151600282015560609091015160039091015550565b610d6d612335565b610d765f612361565b565b335f9081526006602052604081205460ff16610dd65760405162461bcd60e51b815260206004820152601e60248201527f4f6e6c792076656e646f72732063616e2063726561746520706c6174657300006044820152606401610894565b600e54604051637e0ae5f760e01b81526001600160a01b0390911690637e0ae5f790610e0e9089908990899089908990600401612d0e565b6020604051808303815f875af1158015610e2a573d5f5f3e3d5ffd5b505050506040513d601f19601f82011682018060405250810190610e4e9190612d5b565b9695505050505050565b60056020525f9081526040902080548190610e7290612b6a565b80601f0160208091040260200160405190810160405280929190818152602001828054610e9e90612b6a565b8015610ee95780601f10610ec057610100808354040283529160200191610ee9565b820191905f5260205f20905b815481529060010190602001808311610ecc57829003601f168201915b5050505050908060010154908060020154908060030154905084565b5f818152600160208190526040909120908101546001600160a01b03163314610f705760405162461bcd60e51b815260206004820152601a60248201527f4f6e6c792076656e646f722063616e206d61726b2072656164790000000000006044820152606401610894565b5f6003820154600160a01b900460ff166002811115610f9157610f916125bb565b14610fcf5760405162461bcd60e51b815260206004820152600e60248201526d496e76616c69642073746174757360901b6044820152606401610894565b600301805460ff60a01b1916600160a01b17905550565b60605f600e5f9054906101000a90046001600160a01b03166001600160a01b03166318160ddd6040518163ffffffff1660e01b8152600401602060405180830381865afa158015611039573d5f5f3e3d5ffd5b505050506040513d601f19601f8201168201806040525081019061105d9190612d5b565b90505f805b8281101561110557600e546040516331a9108f60e11b8152600481018390526001600160a01b0390911690636352211e90602401602060405180830381865afa9250505080156110cf575060408051601f3d908101601f191682019092526110cc91810190612d82565b60015b156110fd57856001600160a01b0316816001600160a01b0316036110fb57826110f781612bb6565b9350505b505b600101611062565b505f816001600160401b0381111561111f5761111f61276b565b60405190808252806020026020018201604052801561115857816020015b6111456124bf565b81526020019060019003908161113d5790505b5090505f805b8481101561128c57600e546040516331a9108f60e11b8152600481018390526001600160a01b0390911690636352211e90602401602060405180830381865afa9250505080156111cb575060408051601f3d908101601f191682019092526111c891810190612d82565b60015b1561128457876001600160a01b0316816001600160a01b03160361128257600e5460405163e6ae2b7d60e01b8152600481018490526001600160a01b039091169063e6ae2b7d906024015f60405180830381865afa15801561122f573d5f5f3e3d5ffd5b505050506040513d5f823e601f3d908101601f191682016040526112569190810190612ebe565b84848151811061126857611268612bce565b6020026020010181905250828061127e90612bb6565b9350505b505b60010161115e565b509095945050505050565b335f9081526007602052604090205460ff16156112f65760405162461bcd60e51b815260206004820152601b60248201527f416c7265616479207265676973746572656420617320627579657200000000006044820152606401610894565b5f8151116113165760405162461bcd60e51b815260040161089490612be2565b335f818152600760209081526040808320805460ff1916600117905580518082018252858152808301849052938352600490915290208151819061135a9082612c54565b506020820151816001015590505050565b5f818152600160205260408120906003820154600160a01b900460ff166002811115611399576113996125bb565b146113de5760405162461bcd60e51b8152602060048201526015602482015274566f7563686572206e6f7420617661696c61626c6560581b6044820152606401610894565b5f828152600960205260409020546001600160a01b0316156114425760405162461bcd60e51b815260206004820152601760248201527f566f756368657220616c726561647920636c61696d65640000000000000000006044820152606401610894565b335f9081526008602052604090205460ff166114b05760405162461bcd60e51b815260206004820152602760248201527f4f6e6c7920726567697374657265642062656e656669636961726965732063616044820152666e20636c61696d60c81b6064820152608401610894565b5f828152600960205260409081902080546001600160a01b03191633908117909155600e546005840154845493516366debc2160e01b815260048101919091526001600160a01b039384166024820152604481019290925291909116906366debc21906064015f604051808303815f87803b15801561152d575f5ffd5b505af115801561153f573d5f5f3e3d5ffd5b505050505050565b60605f600e5f9054906101000a90046001600160a01b03166001600160a01b031663a39dbca66040518163ffffffff1660e01b81526004015f60405180830381865afa158015611599573d5f5f3e3d5ffd5b505050506040513d5f823e601f3d908101601f191682016040526115c09190810190612eef565b90505f805b8251811015611609575f8382815181106115e1576115e1612bce565b602002602001015160e00151111561160157816115fd81612bb6565b9250505b6001016115c5565b505f816001600160401b038111156116235761162361276b565b60405190808252806020026020018201604052801561165c57816020015b6116496124bf565b8152602001906001900390816116415790505b5090505f805b84518110156116de575f85828151811061167e5761167e612bce565b602002602001015160e0015111156116d6578481815181106116a2576116a2612bce565b60200260200101518383815181106116bc576116bc612bce565b602002602001018190525081806116d290612bb6565b9250505b600101611662565b5090949350505050565b600e546040516331a9108f60e11b8152600481018590525f9182916001600160a01b0390911690636352211e90602401602060405180830381865afa158015611733573d5f5f3e3d5ffd5b505050506040513d601f19601f820116820180604052508101906117579190612d82565b90506001600160a01b0381166117a15760405162461bcd60e51b815260206004820152600f60248201526e24b73b30b634b2103b37bab1b432b960891b6044820152606401610894565b5f84116117e55760405162461bcd60e51b81526020600482015260126024820152710416d6f756e74206d757374206265203e20360741b6044820152606401610894565b6001600160a01b03831661182b5760405162461bcd60e51b815260206004820152600d60248201526c24b73b30b634b2103a37b5b2b760991b6044820152606401610894565b6001600160a01b0381165f9081526006602052604090205460ff1661188a5760405162461bcd60e51b815260206004820152601560248201527415995b991bdc881b9bdd081c9959da5cdd195c9959605a1b6044820152606401610894565b600e5460405163bffb29e760e01b8152600481018790525f916001600160a01b03169063bffb29e790602401606060405180830381865afa1580156118d1573d5f5f3e3d5ffd5b505050506040513d601f19601f820116820180604052508101906118f59190612fad565b600e54815160405163e6ae2b7d60e01b81529293505f926001600160a01b039092169163e6ae2b7d9161192e9160040190815260200190565b5f60405180830381865afa158015611948573d5f5f3e3d5ffd5b505050506040513d5f823e601f3d908101601f1916820160405261196f9190810190612ebe565b90508160200151156119c35760405162461bcd60e51b815260206004820152601860248201527f566f756368657220616c72656164792072656465656d656400000000000000006044820152606401610894565b8060a001514210611a0a5760405162461bcd60e51b8152602060048201526011602482015270141b185d19481a185cc8195e1c1a5c9959607a1b6044820152606401610894565b600f80545f9182611a1a83612bb6565b909155506040805160e0810182523381526001600160a01b0387811660208301529181018a90529088166060820152909150608081015f81524260208083019190915260409182018b90525f848152600180835290839020845181546001600160a01b03199081166001600160a01b039283161783559386015192820180548516938216939093179092559284015160028085019190915560608501516003850180549485169190931690811783556080860151936001600160a81b0319161790600160a01b908490811115611af257611af26125bb565b021790555060a0820151600482015560c0909101516005909101555f818152600a60205260409020879055611b326001600160a01b03871633308a6123b0565b600e5460405163047ec48b60e01b8152600481018a90523360248201526001600160a01b039091169063047ec48b906044015f604051808303815f87803b158015611b7b575f5ffd5b505af1158015611b8d573d5f5f3e3d5ffd5b5050335f9081526007602052604090205460ff169150611c0a905057335f818152600760209081526040808320805460ff1916600190811790915581516060810183528083018581528152808401919091529383526004909152902081518190611bf79082612c54565b5060208201518160010155905050611c2d565b335f908152600460205260408120600101805491611c2783612bb6565b91905055505b979650505050505050565b60046020525f9081526040902080548190611c5290612b6a565b80601f0160208091040260200160405190810160405280929190818152602001828054611c7e90612b6a565b8015611cc95780601f10611ca057610100808354040283529160200191611cc9565b820191905f5260205f20905b815481529060010190602001808311611cac57829003601f168201915b5050505050908060010154905082565b60408051808201909152606081525f60208201526001600160a01b0382165f90815260046020526040908190208151808301909252805482908290611d1d90612b6a565b80601f0160208091040260200160405190810160405280929190818152602001828054611d4990612b6a565b8015611d945780601f10611d6b57610100808354040283529160200191611d94565b820191905f5260205f20905b815481529060010190602001808311611d7757829003601f168201915b505050505081526020016001820154815250509050919050565b335f9081526006602052604090205460ff1615611e0d5760405162461bcd60e51b815260206004820152601c60248201527f416c726561647920726567697374657265642061732076656e646f72000000006044820152606401610894565b5f825111611e2d5760405162461bcd60e51b815260040161089490612be2565b5f815111611e7d5760405162461bcd60e51b815260206004820152601a60248201527f454e5320646f6d61696e2063616e6e6f7420626520656d7074790000000000006044820152606401610894565b335f818152600660209081526040808320805460ff19166001179055805160a08101825286815280830184905280820184905260608101849052608081018490529383526003909152902081518190611ed69082612c54565b506020820151600182015560408201516002820155606082015160038201556080909101516004909101805460ff19169115159190911790555050565b611f1b612335565b6001600160a01b038116611f4457604051631e4fbdf760e01b81525f6004820152602401610894565b611f4d81612361565b50565b5f8181526001602090815260408083206009909252909120546001600160a01b03168015611fd557336001600160a01b03821614611fd05760405162461bcd60e51b815260206004820152601c60248201527f4f6e6c792062656e65666963696172792063616e20636f6e6669726d000000006044820152606401610894565b612027565b81546001600160a01b031633146120275760405162461bcd60e51b81526020600482015260166024820152754f6e6c792062757965722063616e20636f6e6669726d60501b6044820152606401610894565b60016003830154600160a01b900460ff166002811115612049576120496125bb565b146120825760405162461bcd60e51b81526020600482015260096024820152684e6f7420726561647960b81b6044820152606401610894565b60038201805460ff60a01b1916600160a11b179055600b5460028301545f916064916120ae9190613012565b6120b89190613029565b90505f8184600201546120cb9190613048565b60038501546001600160a01b03165f908152600c60205260408120805492935084929091906120fb90849061305b565b909155505060028401545f868152600a6020526040902054146121525760405162461bcd60e51b815260206004820152600f60248201526e08ae6c6e4deee40dad2e6dac2e8c6d608b1b6044820152606401610894565b5f858152600a602052604081205560018401546003850154612181916001600160a01b0391821691168361241d565b60018401546001600160a01b03165f9081526003602081905260408220018054916121ab83612bb6565b909155505060018401546001600160a01b039081165f908152600d602090815260408083206003890154909416835292905290812080548392906121f090849061305b565b90915550506001600160a01b03831615612230576001600160a01b0383165f90815260056020526040812060030180549161222a83612bb6565b91905055505b5050505050565b61225f6040518060800160405280606081526020015f81526020015f81526020015f81525090565b6001600160a01b0382165f908152600560205260409081902081516080810190925280548290829061229090612b6a565b80601f01602080910402602001604051908101604052809291908181526020018280546122bc90612b6a565b80156123075780601f106122de57610100808354040283529160200191612307565b820191905f5260205f20905b8154815290600101906020018083116122ea57829003601f168201915b5050505050815260200160018201548152602001600282015481526020016003820154815250509050919050565b5f546001600160a01b03163314610d765760405163118cdaa760e01b8152336004820152602401610894565b5f80546001600160a01b038381166001600160a01b0319831681178455604051919092169283917f8be0079c531659141344cd1fd0a4f28419497f9722a3daafe3b4186f6b6457e09190a35050565b6040516001600160a01b0384811660248301528381166044830152606482018390526124179186918216906323b872dd906084015b604051602081830303815290604052915060e01b6020820180516001600160e01b038381831617835250505050612453565b50505050565b6040516001600160a01b0383811660248301526044820183905261244e91859182169063a9059cbb906064016123e5565b505050565b5f5f60205f8451602086015f885af180612472576040513d5f823e3d81fd5b50505f513d91508115612489578060011415612496565b6001600160a01b0384163b155b1561241757604051635274afe760e01b81526001600160a01b0385166004820152602401610894565b6040518061010001604052806060815260200160608152602001606081526020015f6001600160a01b031681526020015f81526020015f81526020015f81526020015f81525090565b6001600160a01b0381168114611f4d575f5ffd5b5f6020828403121561252c575f5ffd5b813561253781612508565b9392505050565b5f81518084528060208401602086015e5f602082860101526020601f19601f83011685010191505092915050565b60a081525f61257e60a083018861253e565b905085602083015284604083015283606083015282151560808301529695505050505050565b5f602082840312156125b4575f5ffd5b5035919050565b634e487b7160e01b5f52602160045260245ffd5b600381106125eb57634e487b7160e01b5f52602160045260245ffd5b9052565b80516001600160a01b039081168352602080830151821690840152604080830151908401526060808301519091169083015260808082015190612634908401826125cf565b5060a0818101519083015260c090810151910152565b60e0810161084082846125ef565b5f5f60408385031215612669575f5ffd5b823561267481612508565b9150602083013561268481612508565b809150509250929050565b6001600160a01b0388811682528781166020830152604082018790528516606082015260e081016126c360808301866125cf565b60a082019390935260c0015295945050505050565b602080825282518282018190525f918401906040840190835b8181101561128c576127048385516125ef565b6020939093019260e092909201916001016126f1565b602081525f825160a0602084015261273560c084018261253e565b90506020840151604084015260408401516060840152606084015160808401526080840151151560a08401528091505092915050565b634e487b7160e01b5f52604160045260245ffd5b60405161010081016001600160401b03811182821017156127a2576127a261276b565b60405290565b604051601f8201601f191681016001600160401b03811182821017156127d0576127d061276b565b604052919050565b5f6001600160401b038211156127f0576127f061276b565b50601f01601f191660200190565b5f82601f83011261280d575f5ffd5b813561282061281b826127d8565b6127a8565b818152846020838601011115612834575f5ffd5b816020850160208301375f918101602001919091529392505050565b5f60208284031215612860575f5ffd5b81356001600160401b03811115612875575f5ffd5b612881848285016127fe565b949350505050565b5f5f5f5f5f60a0868803121561289d575f5ffd5b85356001600160401b038111156128b2575f5ffd5b6128be888289016127fe565b95505060208601356001600160401b038111156128d9575f5ffd5b6128e5888289016127fe565b94505060408601356001600160401b03811115612900575f5ffd5b61290c888289016127fe565b9598949750949560608101359550608001359392505050565b608081525f612937608083018761253e565b6020830195909552506040810192909252606090910152919050565b5f602082016020835280845180835260408501915060408160051b8601019250602086015f5b82811015612a2e57603f198786030184528151805161010087526129a161010088018261253e565b9050602082015187820360208901526129ba828261253e565b915050604082015187820360408901526129d4828261253e565b91505060608201516129f160608901826001600160a01b03169052565b506080828101519088015260a0808301519088015260c0808301519088015260e09182015191909601526020938401939190910190600101612979565b50929695505050505050565b5f5f5f60608486031215612a4c575f5ffd5b83359250602084013591506040840135612a6581612508565b809150509250925092565b604081525f612a82604083018561253e565b90508260208301529392505050565b602081525f825160406020840152612aac606084018261253e565b9050602084015160408401528091505092915050565b5f5f60408385031215612ad3575f5ffd5b82356001600160401b03811115612ae8575f5ffd5b612af4858286016127fe565b92505060208301356001600160401b03811115612b0f575f5ffd5b612b1b858286016127fe565b9150509250929050565b602081525f825160806020840152612b4060a084018261253e565b90506020840151604084015260408401516060840152606084015160808401528091505092915050565b600181811c90821680612b7e57607f821691505b602082108103612b9c57634e487b7160e01b5f52602260045260245ffd5b50919050565b634e487b7160e01b5f52601160045260245ffd5b5f60018201612bc757612bc7612ba2565b5060010190565b634e487b7160e01b5f52603260045260245ffd5b6020808252601490820152734e616d652063616e6e6f7420626520656d70747960601b604082015260600190565b601f82111561244e57805f5260205f20601f840160051c81016020851015612c355750805b601f840160051c820191505b81811015612230575f8155600101612c41565b81516001600160401b03811115612c6d57612c6d61276b565b612c8181612c7b8454612b6a565b84612c10565b6020601f821160018114612cb3575f8315612c9c5750848201515b5f19600385901b1c1916600184901b178455612230565b5f84815260208120601f198516915b82811015612ce25787850151825560209485019460019092019101612cc2565b5084821015612cff57868401515f19600387901b60f8161c191681555b50505050600190811b01905550565b60a081525f612d2060a083018861253e565b8281036020840152612d32818861253e565b90508281036040840152612d46818761253e565b60608401959095525050608001529392505050565b5f60208284031215612d6b575f5ffd5b5051919050565b8051612d7d81612508565b919050565b5f60208284031215612d92575f5ffd5b815161253781612508565b5f82601f830112612dac575f5ffd5b8151612dba61281b826127d8565b818152846020838601011115612dce575f5ffd5b8160208501602083015e5f918101602001919091529392505050565b5f6101008284031215612dfb575f5ffd5b612e0361277f565b905081516001600160401b03811115612e1a575f5ffd5b612e2684828501612d9d565b82525060208201516001600160401b03811115612e41575f5ffd5b612e4d84828501612d9d565b60208301525060408201516001600160401b03811115612e6b575f5ffd5b612e7784828501612d9d565b604083015250612e8960608301612d72565b60608201526080828101519082015260a0808301519082015260c0808301519082015260e09182015191810191909152919050565b5f60208284031215612ece575f5ffd5b81516001600160401b03811115612ee3575f5ffd5b61288184828501612dea565b5f60208284031215612eff575f5ffd5b81516001600160401b03811115612f14575f5ffd5b8201601f81018413612f24575f5ffd5b80516001600160401b03811115612f3d57612f3d61276b565b8060051b612f4d602082016127a8565b91825260208184018101929081019087841115612f68575f5ffd5b6020850192505b83831015611c2d5782516001600160401b03811115612f8c575f5ffd5b612f9b89602083890101612dea565b83525060209283019290910190612f6f565b5f6060828403128015612fbe575f5ffd5b50604051606081016001600160401b0381118282101715612fe157612fe161276b565b6040528251815260208301518015158114612ffa575f5ffd5b60208201526040928301519281019290925250919050565b808202811582820484141761084057610840612ba2565b5f8261304357634e487b7160e01b5f52601260045260245ffd5b500490565b8181038181111561084057610840612ba2565b8082018082111561084057610840612ba256fea2646970667358221220ef9dc8c134e936df75af1e3ba73d174786a31bad8ba4308930c852e6293fc10164736f6c634300081c0033",
  "linkReferences": {},
  "deployedLinkReferences": {},
  "immutableReferences": {},
  "inputSourceName": "project/contracts/MesaCompartida.sol",
  "buildInfoId": "solc-0_8_28-28d483487af45006d8260adc0d60151943d532d6"
}