{
  "_format": "hh3-artifact-1",
  "contractName": "MesaCompartida",
  "sourceName": "contracts/MesaCompartida.sol",
  "abi": [
    {
      "inputs": [
        {
          "internalType": "address",
          "name": "_plateNFT",
          "type": "address"
        }
      ],
      "stateMutability": "nonpayable",
      "type": "constructor"
    },
    {
      "inputs": [
        {
          "internalType": "address",
          "name": "owner",
          "type": "address"
        }
      ],
      "name": "OwnableInvalidOwner",
      "type": "error"
    },
    {
      "inputs": [
        {
          "internalType": "address",
          "name": "account",
          "type": "address"
        }
      ],
      "name": "OwnableUnauthorizedAccount",
      "type": "error"
    },
    {
      "inputs": [
        {
          "internalType": "address",
          "name": "token",
          "type": "address"
        }
      ],
      "name": "SafeERC20FailedOperation",
      "type": "error"
    },
    {
      "anonymous": false,
      "inputs": [
        {
          "indexed": true,
          "internalType": "address",
          "name": "previousOwner",
          "type": "address"
        },
        {
          "indexed": true,
          "internalType": "address",
          "name": "newOwner",
          "type": "address"
        }
      ],
      "name": "OwnershipTransferred",
      "type": "event"
    },
    {
      "inputs": [
        {
          "internalType": "address",
          "name": "",
          "type": "address"
        }
      ],
      "name": "beneficiaryProfiles",
      "outputs": [
        {
          "internalType": "string",
          "name": "name",
          "type": "string"
        },
        {
          "internalType": "uint256",
          "name": "ratingSum",
          "type": "uint256"
        },
        {
          "internalType": "uint256",
          "name": "ratingCount",
          "type": "uint256"
        },
        {
          "internalType": "uint256",
          "name": "totalRedemptions",
          "type": "uint256"
        }
      ],
      "stateMutability": "view",
      "type": "function"
    },
    {
      "inputs": [
        {
          "internalType": "address",
          "name": "",
          "type": "address"
        }
      ],
      "name": "buyerProfiles",
      "outputs": [
        {
          "internalType": "string",
          "name": "name",
          "type": "string"
        },
        {
          "internalType": "uint256",
          "name": "totalPurchases",
          "type": "uint256"
        }
      ],
      "stateMutability": "view",
      "type": "function"
    },
    {
      "inputs": [
        {
          "internalType": "uint256",
          "name": "_transactionId",
          "type": "uint256"
        }
      ],
      "name": "claimVoucher",
      "outputs": [],
      "stateMutability": "nonpayable",
      "type": "function"
    },
    {
      "inputs": [
        {
          "internalType": "uint256",
          "name": "_transactionId",
          "type": "uint256"
        }
      ],
      "name": "confirmDelivery",
      "outputs": [],
      "stateMutability": "nonpayable",
      "type": "function"
    },
    {
      "inputs": [
        {
          "internalType": "string",
          "name": "_name",
          "type": "string"
        }
      ],
      "name": "createBeneficiaryProfile",
      "outputs": [],
      "stateMutability": "nonpayable",
      "type": "function"
    },
    {
      "inputs": [
        {
          "internalType": "string",
          "name": "_name",
          "type": "string"
        }
      ],
      "name": "createBuyerProfile",
      "outputs": [],
      "stateMutability": "nonpayable",
      "type": "function"
    },
    {
      "inputs": [
        {
          "internalType": "string",
          "name": "_name",
          "type": "string"
        },
        {
          "internalType": "string",
          "name": "_description",
          "type": "string"
        },
        {
          "internalType": "string",
          "name": "_ipfsHash",
          "type": "string"
        },
        {
          "internalType": "uint256",
          "name": "_maxSupply",
          "type": "uint256"
        },
        {
          "internalType": "uint256",
          "name": "_expiresAt",
          "type": "uint256"
        }
      ],
      "name": "createPlate",
      "outputs": [
        {
          "internalType": "uint256",
          "name": "",
          "type": "uint256"
        }
      ],
      "stateMutability": "nonpayable",
      "type": "function"
    },
    {
      "inputs": [
        {
          "internalType": "string",
          "name": "_name",
          "type": "string"
        },
        {
          "internalType": "string",
          "name": "_ensDomain",
          "type": "string"
        }
      ],
      "name": "createVendorProfile",
      "outputs": [],
      "stateMutability": "nonpayable",
      "type": "function"
    },
    {
      "inputs": [
        {
          "internalType": "uint256",
          "name": "",
          "type": "uint256"
        }
      ],
      "name": "escrowAmount",
      "outputs": [
        {
          "internalType": "uint256",
          "name": "",
          "type": "uint256"
        }
      ],
      "stateMutability": "view",
      "type": "function"
    },
    {
      "inputs": [],
      "name": "getAvailableVouchersForBeneficiary",
      "outputs": [
        {
          "components": [
            {
              "internalType": "address",
              "name": "buyer",
              "type": "address"
            },
            {
              "internalType": "address",
              "name": "vendor",
              "type": "address"
            },
            {
              "internalType": "uint256",
              "name": "amount",
              "type": "uint256"
            },
            {
              "internalType": "contract IERC20",
              "name": "token",
              "type": "address"
            },
            {
              "internalType": "enum MesaCompartida.DeliveryStatus",
              "name": "status",
              "type": "uint8"
            },
            {
              "internalType": "uint256",
              "name": "timestamp",
              "type": "uint256"
            },
            {
              "internalType": "uint256",
              "name": "voucherTokenId",
              "type": "uint256"
            }
          ],
          "internalType": "struct MesaCompartida.VoucherTransaction[]",
          "name": "",
          "type": "tuple[]"
        }
      ],
      "stateMutability": "view",
      "type": "function"
    },
    {
      "inputs": [
        {
          "internalType": "address",
          "name": "_beneficiary",
          "type": "address"
        }
      ],
      "name": "getBeneficiaryProfile",
      "outputs": [
        {
          "components": [
            {
              "internalType": "string",
              "name": "name",
              "type": "string"
            },
            {
              "internalType": "uint256",
              "name": "ratingSum",
              "type": "uint256"
            },
            {
              "internalType": "uint256",
              "name": "ratingCount",
              "type": "uint256"
            },
            {
              "internalType": "uint256",
              "name": "totalRedemptions",
              "type": "uint256"
            }
          ],
          "internalType": "struct MesaCompartida.BeneficiaryProfile",
          "name": "",
          "type": "tuple"
        }
      ],
      "stateMutability": "view",
      "type": "function"
    },
    {
      "inputs": [
        {
          "internalType": "address",
          "name": "_buyer",
          "type": "address"
        }
      ],
      "name": "getBuyerProfile",
      "outputs": [
        {
          "components": [
            {
              "internalType": "string",
              "name": "name",
              "type": "string"
            },
            {
              "internalType": "uint256",
              "name": "totalPurchases",
              "type": "uint256"
            }
          ],
          "internalType": "struct MesaCompartida.BuyerProfile",
          "name": "",
          "type": "tuple"
        }
      ],
      "stateMutability": "view",
      "type": "function"
    },
    {
      "inputs": [
        {
          "internalType": "uint256",
          "name": "_transactionId",
          "type": "uint256"
        }
      ],
      "name": "getEscrowAmount",
      "outputs": [
        {
          "internalType": "uint256",
          "name": "",
          "type": "uint256"
        }
      ],
      "stateMutability": "view",
      "type": "function"
    },
    {
      "inputs": [],
      "name": "getMarketplaceVouchers",
      "outputs": [
        {
          "components": [
            {
              "internalType": "string",
              "name": "name",
              "type": "string"
            },
            {
              "internalType": "string",
              "name": "description",
              "type": "string"
            },
            {
              "internalType": "string",
              "name": "ipfsHash",
              "type": "string"
            },
            {
              "internalType": "address",
              "name": "vendor",
              "type": "address"
            },
            {
              "internalType": "uint256",
              "name": "createdAt",
              "type": "uint256"
            },
            {
              "internalType": "uint256",
              "name": "expiresAt",
              "type": "uint256"
            },
            {
              "internalType": "uint256",
              "name": "maxSupply",
              "type": "uint256"
            },
            {
              "internalType": "uint256",
              "name": "availableVouchers",
              "type": "uint256"
            }
          ],
          "internalType": "struct PlateNFT.PlateMetadata[]",
          "name": "",
          "type": "tuple[]"
        }
      ],
      "stateMutability": "view",
      "type": "function"
    },
    {
      "inputs": [
        {
          "internalType": "address",
          "name": "_vendor",
          "type": "address"
        },
        {
          "internalType": "address",
          "name": "_token",
          "type": "address"
        }
      ],
      "name": "getVendorEarnings",
      "outputs": [
        {
          "internalType": "uint256",
          "name": "",
          "type": "uint256"
        }
      ],
      "stateMutability": "view",
      "type": "function"
    },
    {
      "inputs": [
        {
          "internalType": "address",
          "name": "_vendor",
          "type": "address"
        }
      ],
      "name": "getVendorPlates",
      "outputs": [
        {
          "components": [
            {
              "internalType": "string",
              "name": "name",
              "type": "string"
            },
            {
              "internalType": "string",
              "name": "description",
              "type": "string"
            },
            {
              "internalType": "string",
              "name": "ipfsHash",
              "type": "string"
            },
            {
              "internalType": "address",
              "name": "vendor",
              "type": "address"
            },
            {
              "internalType": "uint256",
              "name": "createdAt",
              "type": "uint256"
            },
            {
              "internalType": "uint256",
              "name": "expiresAt",
              "type": "uint256"
            },
            {
              "internalType": "uint256",
              "name": "maxSupply",
              "type": "uint256"
            },
            {
              "internalType": "uint256",
              "name": "availableVouchers",
              "type": "uint256"
            }
          ],
          "internalType": "struct PlateNFT.PlateMetadata[]",
          "name": "",
          "type": "tuple[]"
        }
      ],
      "stateMutability": "view",
      "type": "function"
    },
    {
      "inputs": [
        {
          "internalType": "address",
          "name": "_vendor",
          "type": "address"
        }
      ],
      "name": "getVendorProfile",
      "outputs": [
        {
          "components": [
            {
              "internalType": "string",
              "name": "name",
              "type": "string"
            },
            {
              "internalType": "uint256",
              "name": "ratingSum",
              "type": "uint256"
            },
            {
              "internalType": "uint256",
              "name": "ratingCount",
              "type": "uint256"
            },
            {
              "internalType": "uint256",
              "name": "totalSales",
              "type": "uint256"
            },
            {
              "internalType": "bool",
              "name": "verified",
              "type": "bool"
            }
          ],
          "internalType": "struct MesaCompartida.VendorProfile",
          "name": "",
          "type": "tuple"
        }
      ],
      "stateMutability": "view",
      "type": "function"
    },
    {
      "inputs": [
        {
          "internalType": "uint256",
          "name": "_transactionId",
          "type": "uint256"
        }
      ],
      "name": "getVoucherBeneficiary",
      "outputs": [
        {
          "internalType": "address",
          "name": "",
          "type": "address"
        }
      ],
      "stateMutability": "view",
      "type": "function"
    },
    {
      "inputs": [
        {
          "internalType": "uint256",
          "name": "_transactionId",
          "type": "uint256"
        }
      ],
      "name": "getVoucherTransaction",
      "outputs": [
        {
          "components": [
            {
              "internalType": "address",
              "name": "buyer",
              "type": "address"
            },
            {
              "internalType": "address",
              "name": "vendor",
              "type": "address"
            },
            {
              "internalType": "uint256",
              "name": "amount",
              "type": "uint256"
            },
            {
              "internalType": "contract IERC20",
              "name": "token",
              "type": "address"
            },
            {
              "internalType": "enum MesaCompartida.DeliveryStatus",
              "name": "status",
              "type": "uint8"
            },
            {
              "internalType": "uint256",
              "name": "timestamp",
              "type": "uint256"
            },
            {
              "internalType": "uint256",
              "name": "voucherTokenId",
              "type": "uint256"
            }
          ],
          "internalType": "struct MesaCompartida.VoucherTransaction",
          "name": "",
          "type": "tuple"
        }
      ],
      "stateMutability": "view",
      "type": "function"
    },
    {
      "inputs": [
        {
          "internalType": "address",
          "name": "",
          "type": "address"
        }
      ],
      "name": "isBeneficiary",
      "outputs": [
        {
          "internalType": "bool",
          "name": "",
          "type": "bool"
        }
      ],
      "stateMutability": "view",
      "type": "function"
    },
    {
      "inputs": [
        {
          "internalType": "address",
          "name": "",
          "type": "address"
        }
      ],
      "name": "isBuyer",
      "outputs": [
        {
          "internalType": "bool",
          "name": "",
          "type": "bool"
        }
      ],
      "stateMutability": "view",
      "type": "function"
    },
    {
      "inputs": [
        {
          "internalType": "address",
          "name": "",
          "type": "address"
        }
      ],
      "name": "isVendor",
      "outputs": [
        {
          "internalType": "bool",
          "name": "",
          "type": "bool"
        }
      ],
      "stateMutability": "view",
      "type": "function"
    },
    {
      "inputs": [
        {
          "internalType": "uint256",
          "name": "_transactionId",
          "type": "uint256"
        }
      ],
      "name": "markReady",
      "outputs": [],
      "stateMutability": "nonpayable",
      "type": "function"
    },
    {
      "inputs": [],
      "name": "owner",
      "outputs": [
        {
          "internalType": "address",
          "name": "",
          "type": "address"
        }
      ],
      "stateMutability": "view",
      "type": "function"
    },
    {
      "inputs": [],
      "name": "plateNFT",
      "outputs": [
        {
          "internalType": "contract PlateNFT",
          "name": "",
          "type": "address"
        }
      ],
      "stateMutability": "view",
      "type": "function"
    },
    {
      "inputs": [
        {
          "internalType": "address",
          "name": "",
          "type": "address"
        }
      ],
      "name": "platformBalance",
      "outputs": [
        {
          "internalType": "uint256",
          "name": "",
          "type": "uint256"
        }
      ],
      "stateMutability": "view",
      "type": "function"
    },
    {
      "inputs": [],
      "name": "platformFeePercent",
      "outputs": [
        {
          "internalType": "uint256",
          "name": "",
          "type": "uint256"
        }
      ],
      "stateMutability": "view",
      "type": "function"
    },
    {
      "inputs": [
        {
          "internalType": "uint256",
          "name": "_voucherTokenId",
          "type": "uint256"
        },
        {
          "internalType": "uint256",
          "name": "_amount",
          "type": "uint256"
        },
        {
          "internalType": "address",
          "name": "_token",
          "type": "address"
        }
      ],
      "name": "purchaseVoucher",
      "outputs": [
        {
          "internalType": "uint256",
          "name": "",
          "type": "uint256"
        }
      ],
      "stateMutability": "nonpayable",
      "type": "function"
    },
    {
      "inputs": [],
      "name": "renounceOwnership",
      "outputs": [],
      "stateMutability": "nonpayable",
      "type": "function"
    },
    {
      "inputs": [
        {
          "internalType": "address",
          "name": "_plateNFT",
          "type": "address"
        }
      ],
      "name": "setPlateNFT",
      "outputs": [],
      "stateMutability": "nonpayable",
      "type": "function"
    },
    {
      "inputs": [
        {
          "internalType": "uint256",
          "name": "_feePercent",
          "type": "uint256"
        }
      ],
      "name": "setPlatformFee",
      "outputs": [],
      "stateMutability": "nonpayable",
      "type": "function"
    },
    {
      "inputs": [
        {
          "internalType": "address",
          "name": "newOwner",
          "type": "address"
        }
      ],
      "name": "transferOwnership",
      "outputs": [],
      "stateMutability": "nonpayable",
      "type": "function"
    },
    {
      "inputs": [
        {
          "internalType": "address",
          "name": "",
          "type": "address"
        },
        {
          "internalType": "address",
          "name": "",
          "type": "address"
        }
      ],
      "name": "vendorEarnings",
      "outputs": [
        {
          "internalType": "uint256",
          "name": "",
          "type": "uint256"
        }
      ],
      "stateMutability": "view",
      "type": "function"
    },
    {
      "inputs": [
        {
          "internalType": "address",
          "name": "",
          "type": "address"
        }
      ],
      "name": "vendorProfiles",
      "outputs": [
        {
          "internalType": "string",
          "name": "name",
          "type": "string"
        },
        {
          "internalType": "uint256",
          "name": "ratingSum",
          "type": "uint256"
        },
        {
          "internalType": "uint256",
          "name": "ratingCount",
          "type": "uint256"
        },
        {
          "internalType": "uint256",
          "name": "totalSales",
          "type": "uint256"
        },
        {
          "internalType": "bool",
          "name": "verified",
          "type": "bool"
        }
      ],
      "stateMutability": "view",
      "type": "function"
    },
    {
      "inputs": [
        {
          "internalType": "uint256",
          "name": "",
          "type": "uint256"
        }
      ],
      "name": "vendorRated",
      "outputs": [
        {
          "internalType": "bool",
          "name": "",
          "type": "bool"
        }
      ],
      "stateMutability": "view",
      "type": "function"
    },
    {
      "inputs": [
        {
          "internalType": "uint256",
          "name": "",
          "type": "uint256"
        }
      ],
      "name": "voucherBeneficiary",
      "outputs": [
        {
          "internalType": "address",
          "name": "",
          "type": "address"
        }
      ],
      "stateMutability": "view",
      "type": "function"
    },
    {
      "inputs": [],
      "name": "voucherTransactionCounter",
      "outputs": [
        {
          "internalType": "uint256",
          "name": "",
          "type": "uint256"
        }
      ],
      "stateMutability": "view",
      "type": "function"
    },
    {
      "inputs": [
        {
          "internalType": "uint256",
          "name": "",
          "type": "uint256"
        }
      ],
      "name": "voucherTransactions",
      "outputs": [
        {
          "internalType": "address",
          "name": "buyer",
          "type": "address"
        },
        {
          "internalType": "address",
          "name": "vendor",
          "type": "address"
        },
        {
          "internalType": "uint256",
          "name": "amount",
          "type": "uint256"
        },
        {
          "internalType": "contract IERC20",
          "name": "token",
          "type": "address"
        },
        {
          "internalType": "enum MesaCompartida.DeliveryStatus",
          "name": "status",
          "type": "uint8"
        },
        {
          "internalType": "uint256",
          "name": "timestamp",
          "type": "uint256"
        },
        {
          "internalType": "uint256",
          "name": "voucherTokenId",
          "type": "uint256"
        }
      ],
      "stateMutability": "view",
      "type": "function"
    }
  ],
  "bytecode": "0x60806040525f600b55348015610013575f5ffd5b506040516131963803806131968339810160408190526100329161011f565b338061005857604051631e4fbdf760e01b81525f60048201526024015b60405180910390fd5b610061816100d0565b506001600160a01b0381166100ab5760405162461bcd60e51b815260206004820152601060248201526f125b9d985b1a59081c1b185d1953919560821b604482015260640161004f565b600e80546001600160a01b0319166001600160a01b039290921691909117905561014c565b5f80546001600160a01b038381166001600160a01b0319831681178455604051919092169283917f8be0079c531659141344cd1fd0a4f28419497f9722a3daafe3b4186f6b6457e09190a35050565b5f6020828403121561012f575f5ffd5b81516001600160a01b0381168114610145575f5ffd5b9392505050565b61303d806101595f395ff3fe608060405234801561000f575f5ffd5b5060043610610229575f3560e01c80637ec2b0d41161012a578063b326d665116100b4578063e9aa988511610079578063e9aa988514610609578063ee54d54f1461061c578063f2fde38b1461063e578063fd84cb9714610651578063fea1426514610664575f5ffd5b8063b326d6651461056e578063b875bbb714610581578063c3f70de5146105a2578063c67e32e9146105c2578063c9321edb146105e1575f5ffd5b806394df9fa3116100fa57806394df9fa3146104fe57806396e8ddb41461051e5780639ade9687146105315780639d19b22614610544578063a0af70f014610566575f5ffd5b80637ec2b0d4146104af578063809587c2146104d25780638c639a85146104e55780638da5cb5b146104ee575f5ffd5b80633ebb309a116101b65780635cc387d91161017b5780635cc387d91461043a5780635d19e56c1461046257806360fe0ffd14610481578063715018a6146104945780637e0ae5f71461049c575f5ffd5b80633ebb309a146103b2578063451ee191146103dd5780634b300ad2146103fc5780634fff1d14146104115780635480df891461041a575f5ffd5b8063145984a8116101fc578063145984a8146102b05780631948f46c146102da5780631f11fd9d1461034b5780632a55feec1461037d5780633cd419821461039f575f5ffd5b8063014ae4081461022d5780630caccdb51461025a5780630f5c8db41461027a57806312e8e2c31461029b575b5f5ffd5b61024061023b3660046123ff565b610684565b60405161025195949392919061244f565b60405180910390f35b61026d610268366004612487565b61073b565b604051610251919061252d565b61028d61028836600461253b565b61081a565b604051908152602001610251565b6102ae6102a9366004612487565b610846565b005b61028d6102be36600461253b565b600d60209081525f928352604080842090915290825290205481565b6103386102e8366004612487565b600160208190525f91825260409091208054918101546002820154600383015460048401546005909401546001600160a01b0395861695938416949293821692600160a01b90920460ff16919087565b6040516102519796959493929190612572565b61036d610359366004612487565b60026020525f908152604090205460ff1681565b6040519015158152602001610251565b61036d61038b3660046123ff565b60076020525f908152604090205460ff1681565b6102ae6103ad3660046123ff565b6108a2565b600e546103c5906001600160a01b031681565b6040516001600160a01b039091168152602001610251565b61028d6103eb366004612487565b5f908152600a602052604090205490565b610404610915565b60405161025191906125bb565b61028d600f5481565b61042d6104283660046123ff565b610b51565b6040516102519190612608565b6103c5610448366004612487565b60096020525f90815260409020546001600160a01b031681565b61028d610470366004612487565b600a6020525f908152604090205481565b6102ae61048f36600461273e565b610c66565b6102ae610d65565b61028d6104aa366004612777565b610d78565b6104c26104bd3660046123ff565b610e5a565b6040516102519493929190612813565b6102ae6104e0366004612487565b610f07565b61028d600b5481565b5f546001600160a01b03166103c5565b61051161050c3660046123ff565b610fe8565b6040516102519190612841565b6102ae61052c36600461273e565b61117a565b6102ae61053f366004612487565b61124e565b61036d6105523660046123ff565b60086020525f908152604090205460ff1681565b61051161142a565b61028d61057c366004612928565b6115cb565b61059461058f3660046123ff565b611b1b565b60405161025192919061295e565b6105b56105b03660046123ff565b611bbc565b604051610251919061297f565b61028d6105d03660046123ff565b600c6020525f908152604090205481565b6103c56105ef366004612487565b5f908152600960205260409020546001600160a01b031690565b6102ae6106173660046129b0565b611c91565b61036d61062a3660046123ff565b60066020525f908152604090205460ff1681565b6102ae61064c3660046123ff565b611df6565b6102ae61065f366004612487565b611e33565b6106776106723660046123ff565b61211a565b6040516102519190612a13565b60036020525f908152604090208054819061069e90612a58565b80601f01602080910402602001604051908101604052809291908181526020018280546106ca90612a58565b80156107155780601f106106ec57610100808354040283529160200191610715565b820191905f5260205f20905b8154815290600101906020018083116106f857829003601f168201915b505050506001830154600284015460038501546004909501549394919390925060ff1685565b6107786040805160e0810182525f808252602082018190529181018290526060810182905290608082019081526020015f81526020015f81525090565b5f82815260016020818152604092839020835160e08101855281546001600160a01b039081168252938201548416928101929092526002808201549483019490945260038101549283166060830152909290916080840191600160a01b90910460ff16908111156107eb576107eb61249e565b60028111156107fc576107fc61249e565b81526004820154602082015260059091015460409091015292915050565b6001600160a01b038083165f908152600d60209081526040808320938516835292905220545b92915050565b61084e612218565b600a81111561089d5760405162461bcd60e51b815260206004820152601660248201527546656520746f6f206869676820286d6178203130252960501b60448201526064015b60405180910390fd5b600b55565b6108aa612218565b6001600160a01b0381166108f35760405162461bcd60e51b815260206004820152601060248201526f125b9d985b1a59081c1b185d1953919560821b6044820152606401610894565b600e80546001600160a01b0319166001600160a01b0392909216919091179055565b60605f805b600f5481101561098d575f5f82815260016020526040902060030154600160a01b900460ff1660028111156109515761095161249e565b14801561097257505f818152600960205260409020546001600160a01b0316155b15610985578161098181612aa4565b9250505b60010161091a565b505f816001600160401b038111156109a7576109a7612659565b604051908082528060200260200182016040528015610a1557816020015b610a026040805160e0810182525f808252602082018190529181018290526060810182905290608082019081526020015f81526020015f81525090565b8152602001906001900390816109c55790505b5090505f805b600f54811015610b48575f5f82815260016020526040902060030154600160a01b900460ff166002811115610a5257610a5261249e565b148015610a7357505f818152600960205260409020546001600160a01b0316155b15610b40575f81815260016020818152604092839020835160e08101855281546001600160a01b039081168252938201548416928101929092526002808201549483019490945260038101549283166060830152909290916080840191600160a01b90910460ff1690811115610aeb57610aeb61249e565b6002811115610afc57610afc61249e565b815260200160048201548152602001600582015481525050838381518110610b2657610b26612abc565b60200260200101819052508180610b3c90612aa4565b9250505b600101610a1b565b50909392505050565b610b816040518060a00160405280606081526020015f81526020015f81526020015f81526020015f151581525090565b6001600160a01b0382165f9081526003602052604090819020815160a08101909252805482908290610bb290612a58565b80601f0160208091040260200160405190810160405280929190818152602001828054610bde90612a58565b8015610c295780601f10610c0057610100808354040283529160200191610c29565b820191905f5260205f20905b815481529060010190602001808311610c0c57829003601f168201915b505050918352505060018201546020820152600282015460408201526003820154606082015260049091015460ff16151560809091015292915050565b335f9081526008602052604090205460ff1615610ccf5760405162461bcd60e51b815260206004820152602160248201527f416c726561647920726567697374657265642061732062656e656669636961726044820152607960f81b6064820152608401610894565b5f815111610cef5760405162461bcd60e51b815260040161089490612ad0565b335f818152600860209081526040808320805460ff191660011790558051608081018252858152808301849052808201849052606081018490529383526005909152902081518190610d419082612b42565b50602082015160018201556040820151600282015560609091015160039091015550565b610d6d612218565b610d765f612244565b565b335f9081526006602052604081205460ff16610dd65760405162461bcd60e51b815260206004820152601e60248201527f4f6e6c792076656e646f72732063616e2063726561746520706c6174657300006044820152606401610894565b600e546040516301d24ba360e31b81526001600160a01b0390911690630e925d1890610e109033908a908a908a908a908a90600401612bfc565b6020604051808303815f875af1158015610e2c573d5f5f3e3d5ffd5b505050506040513d601f19601f82011682018060405250810190610e509190612c5b565b9695505050505050565b60056020525f9081526040902080548190610e7490612a58565b80601f0160208091040260200160405190810160405280929190818152602001828054610ea090612a58565b8015610eeb5780601f10610ec257610100808354040283529160200191610eeb565b820191905f5260205f20905b815481529060010190602001808311610ece57829003601f168201915b5050505050908060010154908060020154908060030154905084565b5f818152600160208190526040909120908101546001600160a01b03163314610f725760405162461bcd60e51b815260206004820152601a60248201527f4f6e6c792076656e646f722063616e206d61726b2072656164790000000000006044820152606401610894565b5f6003820154600160a01b900460ff166002811115610f9357610f9361249e565b14610fd15760405162461bcd60e51b815260206004820152600e60248201526d496e76616c69642073746174757360901b6044820152606401610894565b600301805460ff60a01b1916600160a01b17905550565b600e546040516394df9fa360e01b81526001600160a01b0383811660048301526060925f929116906394df9fa3906024015f60405180830381865afa158015611033573d5f5f3e3d5ffd5b505050506040513d5f823e601f3d908101601f1916820160405261105a9190810190612c94565b90505f81516001600160401b0381111561107657611076612659565b6040519080825280602002602001820160405280156110af57816020015b61109c6123a2565b8152602001906001900390816110945790505b5090505f5b825181101561117257600e5483516001600160a01b039091169063e6ae2b7d908590849081106110e6576110e6612abc565b60200260200101516040518263ffffffff1660e01b815260040161110c91815260200190565b5f60405180830381865afa158015611126573d5f5f3e3d5ffd5b505050506040513d5f823e601f3d908101601f1916820160405261114d9190810190612e4b565b82828151811061115f5761115f612abc565b60209081029190910101526001016110b4565b509392505050565b335f9081526007602052604090205460ff16156111d95760405162461bcd60e51b815260206004820152601b60248201527f416c7265616479207265676973746572656420617320627579657200000000006044820152606401610894565b5f8151116111f95760405162461bcd60e51b815260040161089490612ad0565b335f818152600760209081526040808320805460ff1916600117905580518082018252858152808301849052938352600490915290208151819061123d9082612b42565b506020820151816001015590505050565b5f818152600160205260408120906003820154600160a01b900460ff16600281111561127c5761127c61249e565b146112c15760405162461bcd60e51b8152602060048201526015602482015274566f7563686572206e6f7420617661696c61626c6560581b6044820152606401610894565b5f828152600960205260409020546001600160a01b0316156113255760405162461bcd60e51b815260206004820152601760248201527f566f756368657220616c726561647920636c61696d65640000000000000000006044820152606401610894565b335f9081526008602052604090205460ff166113935760405162461bcd60e51b815260206004820152602760248201527f4f6e6c7920726567697374657265642062656e656669636961726965732063616044820152666e20636c61696d60c81b6064820152608401610894565b5f828152600960205260409081902080546001600160a01b03191633908117909155600e546005840154845493516366debc2160e01b815260048101919091526001600160a01b039384166024820152604481019290925291909116906366debc21906064015f604051808303815f87803b158015611410575f5ffd5b505af1158015611422573d5f5f3e3d5ffd5b505050505050565b60605f600e5f9054906101000a90046001600160a01b03166001600160a01b031663a39dbca66040518163ffffffff1660e01b81526004015f60405180830381865afa15801561147c573d5f5f3e3d5ffd5b505050506040513d5f823e601f3d908101601f191682016040526114a39190810190612e7c565b90505f805b82518110156114ec575f8382815181106114c4576114c4612abc565b602002602001015160e0015111156114e457816114e081612aa4565b9250505b6001016114a8565b505f816001600160401b0381111561150657611506612659565b60405190808252806020026020018201604052801561153f57816020015b61152c6123a2565b8152602001906001900390816115245790505b5090505f805b84518110156115c1575f85828151811061156157611561612abc565b602002602001015160e0015111156115b95784818151811061158557611585612abc565b602002602001015183838151811061159f5761159f612abc565b602002602001018190525081806115b590612aa4565b9250505b600101611545565b5090949350505050565b600e546040516331a9108f60e11b8152600481018590525f9182916001600160a01b0390911690636352211e90602401602060405180830381865afa158015611616573d5f5f3e3d5ffd5b505050506040513d601f19601f8201168201806040525081019061163a9190612f2b565b90506001600160a01b0381166116845760405162461bcd60e51b815260206004820152600f60248201526e24b73b30b634b2103b37bab1b432b960891b6044820152606401610894565b5f84116116c85760405162461bcd60e51b81526020600482015260126024820152710416d6f756e74206d757374206265203e20360741b6044820152606401610894565b6001600160a01b03831661170e5760405162461bcd60e51b815260206004820152600d60248201526c24b73b30b634b2103a37b5b2b760991b6044820152606401610894565b6001600160a01b0381165f9081526006602052604090205460ff1661176d5760405162461bcd60e51b815260206004820152601560248201527415995b991bdc881b9bdd081c9959da5cdd195c9959605a1b6044820152606401610894565b600e5460405163bffb29e760e01b8152600481018790525f916001600160a01b03169063bffb29e790602401606060405180830381865afa1580156117b4573d5f5f3e3d5ffd5b505050506040513d601f19601f820116820180604052508101906117d89190612f46565b600e54815160405163e6ae2b7d60e01b81529293505f926001600160a01b039092169163e6ae2b7d916118119160040190815260200190565b5f60405180830381865afa15801561182b573d5f5f3e3d5ffd5b505050506040513d5f823e601f3d908101601f191682016040526118529190810190612e4b565b90508160200151156118a65760405162461bcd60e51b815260206004820152601860248201527f566f756368657220616c72656164792072656465656d656400000000000000006044820152606401610894565b8060a0015142106118ed5760405162461bcd60e51b8152602060048201526011602482015270141b185d19481a185cc8195e1c1a5c9959607a1b6044820152606401610894565b600f80545f91826118fd83612aa4565b909155506040805160e0810182523381526001600160a01b0387811660208301529181018a90529088166060820152909150608081015f81524260208083019190915260409182018b90525f848152600180835290839020845181546001600160a01b03199081166001600160a01b039283161783559386015192820180548516938216939093179092559284015160028085019190915560608501516003850180549485169190931690811783556080860151936001600160a81b0319161790600160a01b9084908111156119d5576119d561249e565b021790555060a0820151600482015560c0909101516005909101555f818152600a60205260409020879055611a156001600160a01b03871633308a612293565b600e5460405163047ec48b60e01b8152600481018a90523360248201526001600160a01b039091169063047ec48b906044015f604051808303815f87803b158015611a5e575f5ffd5b505af1158015611a70573d5f5f3e3d5ffd5b5050335f9081526007602052604090205460ff169150611aed905057335f818152600760209081526040808320805460ff1916600190811790915581516060810183528083018581528152808401919091529383526004909152902081518190611ada9082612b42565b5060208201518160010155905050611b10565b335f908152600460205260408120600101805491611b0a83612aa4565b91905055505b979650505050505050565b60046020525f9081526040902080548190611b3590612a58565b80601f0160208091040260200160405190810160405280929190818152602001828054611b6190612a58565b8015611bac5780601f10611b8357610100808354040283529160200191611bac565b820191905f5260205f20905b815481529060010190602001808311611b8f57829003601f168201915b5050505050908060010154905082565b60408051808201909152606081525f60208201526001600160a01b0382165f90815260046020526040908190208151808301909252805482908290611c0090612a58565b80601f0160208091040260200160405190810160405280929190818152602001828054611c2c90612a58565b8015611c775780601f10611c4e57610100808354040283529160200191611c77565b820191905f5260205f20905b815481529060010190602001808311611c5a57829003601f168201915b505050505081526020016001820154815250509050919050565b335f9081526006602052604090205460ff1615611cf05760405162461bcd60e51b815260206004820152601c60248201527f416c726561647920726567697374657265642061732076656e646f72000000006044820152606401610894565b5f825111611d105760405162461bcd60e51b815260040161089490612ad0565b5f815111611d605760405162461bcd60e51b815260206004820152601a60248201527f454e5320646f6d61696e2063616e6e6f7420626520656d7074790000000000006044820152606401610894565b335f818152600660209081526040808320805460ff19166001179055805160a08101825286815280830184905280820184905260608101849052608081018490529383526003909152902081518190611db99082612b42565b506020820151600182015560408201516002820155606082015160038201556080909101516004909101805460ff19169115159190911790555050565b611dfe612218565b6001600160a01b038116611e2757604051631e4fbdf760e01b81525f6004820152602401610894565b611e3081612244565b50565b5f8181526001602090815260408083206009909252909120546001600160a01b03168015611eb857336001600160a01b03821614611eb35760405162461bcd60e51b815260206004820152601c60248201527f4f6e6c792062656e65666963696172792063616e20636f6e6669726d000000006044820152606401610894565b611f0a565b81546001600160a01b03163314611f0a5760405162461bcd60e51b81526020600482015260166024820152754f6e6c792062757965722063616e20636f6e6669726d60501b6044820152606401610894565b60016003830154600160a01b900460ff166002811115611f2c57611f2c61249e565b14611f655760405162461bcd60e51b81526020600482015260096024820152684e6f7420726561647960b81b6044820152606401610894565b60038201805460ff60a01b1916600160a11b179055600b5460028301545f91606491611f919190612fab565b611f9b9190612fc2565b90505f818460020154611fae9190612fe1565b60038501546001600160a01b03165f908152600c6020526040812080549293508492909190611fde908490612ff4565b909155505060028401545f868152600a6020526040902054146120355760405162461bcd60e51b815260206004820152600f60248201526e08ae6c6e4deee40dad2e6dac2e8c6d608b1b6044820152606401610894565b5f858152600a602052604081205560018401546003850154612064916001600160a01b03918216911683612300565b60018401546001600160a01b03165f90815260036020819052604082200180549161208e83612aa4565b909155505060018401546001600160a01b039081165f908152600d602090815260408083206003890154909416835292905290812080548392906120d3908490612ff4565b90915550506001600160a01b03831615612113576001600160a01b0383165f90815260056020526040812060030180549161210d83612aa4565b91905055505b5050505050565b6121426040518060800160405280606081526020015f81526020015f81526020015f81525090565b6001600160a01b0382165f908152600560205260409081902081516080810190925280548290829061217390612a58565b80601f016020809104026020016040519081016040528092919081815260200182805461219f90612a58565b80156121ea5780601f106121c1576101008083540402835291602001916121ea565b820191905f5260205f20905b8154815290600101906020018083116121cd57829003601f168201915b5050505050815260200160018201548152602001600282015481526020016003820154815250509050919050565b5f546001600160a01b03163314610d765760405163118cdaa760e01b8152336004820152602401610894565b5f80546001600160a01b038381166001600160a01b0319831681178455604051919092169283917f8be0079c531659141344cd1fd0a4f28419497f9722a3daafe3b4186f6b6457e09190a35050565b6040516001600160a01b0384811660248301528381166044830152606482018390526122fa9186918216906323b872dd906084015b604051602081830303815290604052915060e01b6020820180516001600160e01b038381831617835250505050612336565b50505050565b6040516001600160a01b0383811660248301526044820183905261233191859182169063a9059cbb906064016122c8565b505050565b5f5f60205f8451602086015f885af180612355576040513d5f823e3d81fd5b50505f513d9150811561236c578060011415612379565b6001600160a01b0384163b155b156122fa57604051635274afe760e01b81526001600160a01b0385166004820152602401610894565b6040518061010001604052806060815260200160608152602001606081526020015f6001600160a01b031681526020015f81526020015f81526020015f81526020015f81525090565b6001600160a01b0381168114611e30575f5ffd5b5f6020828403121561240f575f5ffd5b813561241a816123eb565b9392505050565b5f81518084528060208401602086015e5f602082860101526020601f19601f83011685010191505092915050565b60a081525f61246160a0830188612421565b905085602083015284604083015283606083015282151560808301529695505050505050565b5f60208284031215612497575f5ffd5b5035919050565b634e487b7160e01b5f52602160045260245ffd5b600381106124ce57634e487b7160e01b5f52602160045260245ffd5b9052565b80516001600160a01b039081168352602080830151821690840152604080830151908401526060808301519091169083015260808082015190612517908401826124b2565b5060a0818101519083015260c090810151910152565b60e0810161084082846124d2565b5f5f6040838503121561254c575f5ffd5b8235612557816123eb565b91506020830135612567816123eb565b809150509250929050565b6001600160a01b0388811682528781166020830152604082018790528516606082015260e081016125a660808301866124b2565b60a082019390935260c0015295945050505050565b602080825282518282018190525f918401906040840190835b818110156125fd576125e78385516124d2565b6020939093019260e092909201916001016125d4565b509095945050505050565b602081525f825160a0602084015261262360c0840182612421565b90506020840151604084015260408401516060840152606084015160808401526080840151151560a08401528091505092915050565b634e487b7160e01b5f52604160045260245ffd5b60405161010081016001600160401b038111828210171561269057612690612659565b60405290565b604051601f8201601f191681016001600160401b03811182821017156126be576126be612659565b604052919050565b5f6001600160401b038211156126de576126de612659565b50601f01601f191660200190565b5f82601f8301126126fb575f5ffd5b813561270e612709826126c6565b612696565b818152846020838601011115612722575f5ffd5b816020850160208301375f918101602001919091529392505050565b5f6020828403121561274e575f5ffd5b81356001600160401b03811115612763575f5ffd5b61276f848285016126ec565b949350505050565b5f5f5f5f5f60a0868803121561278b575f5ffd5b85356001600160401b038111156127a0575f5ffd5b6127ac888289016126ec565b95505060208601356001600160401b038111156127c7575f5ffd5b6127d3888289016126ec565b94505060408601356001600160401b038111156127ee575f5ffd5b6127fa888289016126ec565b9598949750949560608101359550608001359392505050565b608081525f6128256080830187612421565b6020830195909552506040810192909252606090910152919050565b5f602082016020835280845180835260408501915060408160051b8601019250602086015f5b8281101561291c57603f1987860301845281518051610100875261288f610100880182612421565b9050602082015187820360208901526128a88282612421565b915050604082015187820360408901526128c28282612421565b91505060608201516128df60608901826001600160a01b03169052565b506080828101519088015260a0808301519088015260c0808301519088015260e09182015191909601526020938401939190910190600101612867565b50929695505050505050565b5f5f5f6060848603121561293a575f5ffd5b83359250602084013591506040840135612953816123eb565b809150509250925092565b604081525f6129706040830185612421565b90508260208301529392505050565b602081525f82516040602084015261299a6060840182612421565b9050602084015160408401528091505092915050565b5f5f604083850312156129c1575f5ffd5b82356001600160401b038111156129d6575f5ffd5b6129e2858286016126ec565b92505060208301356001600160401b038111156129fd575f5ffd5b612a09858286016126ec565b9150509250929050565b602081525f825160806020840152612a2e60a0840182612421565b90506020840151604084015260408401516060840152606084015160808401528091505092915050565b600181811c90821680612a6c57607f821691505b602082108103612a8a57634e487b7160e01b5f52602260045260245ffd5b50919050565b634e487b7160e01b5f52601160045260245ffd5b5f60018201612ab557612ab5612a90565b5060010190565b634e487b7160e01b5f52603260045260245ffd5b6020808252601490820152734e616d652063616e6e6f7420626520656d70747960601b604082015260600190565b601f82111561233157805f5260205f20601f840160051c81016020851015612b235750805b601f840160051c820191505b81811015612113575f8155600101612b2f565b81516001600160401b03811115612b5b57612b5b612659565b612b6f81612b698454612a58565b84612afe565b6020601f821160018114612ba1575f8315612b8a5750848201515b5f19600385901b1c1916600184901b178455612113565b5f84815260208120601f198516915b82811015612bd05787850151825560209485019460019092019101612bb0565b5084821015612bed57868401515f19600387901b60f8161c191681555b50505050600190811b01905550565b6001600160a01b038716815260c0602082018190525f90612c1f90830188612421565b8281036040840152612c318188612421565b90508281036060840152612c458187612421565b6080840195909552505060a00152949350505050565b5f60208284031215612c6b575f5ffd5b5051919050565b5f6001600160401b03821115612c8a57612c8a612659565b5060051b60200190565b5f60208284031215612ca4575f5ffd5b81516001600160401b03811115612cb9575f5ffd5b8201601f81018413612cc9575f5ffd5b8051612cd761270982612c72565b8082825260208201915060208360051b850101925086831115612cf8575f5ffd5b6020840193505b82841015610e50578351825260209384019390910190612cff565b5f82601f830112612d29575f5ffd5b8151612d37612709826126c6565b818152846020838601011115612d4b575f5ffd5b8160208501602083015e5f918101602001919091529392505050565b8051612d72816123eb565b919050565b5f6101008284031215612d88575f5ffd5b612d9061266d565b905081516001600160401b03811115612da7575f5ffd5b612db384828501612d1a565b82525060208201516001600160401b03811115612dce575f5ffd5b612dda84828501612d1a565b60208301525060408201516001600160401b03811115612df8575f5ffd5b612e0484828501612d1a565b604083015250612e1660608301612d67565b60608201526080828101519082015260a0808301519082015260c0808301519082015260e09182015191810191909152919050565b5f60208284031215612e5b575f5ffd5b81516001600160401b03811115612e70575f5ffd5b61276f84828501612d77565b5f60208284031215612e8c575f5ffd5b81516001600160401b03811115612ea1575f5ffd5b8201601f81018413612eb1575f5ffd5b8051612ebf61270982612c72565b8082825260208201915060208360051b850101925086831115612ee0575f5ffd5b602084015b83811015612f205780516001600160401b03811115612f02575f5ffd5b612f1189602083890101612d77565b84525060209283019201612ee5565b509695505050505050565b5f60208284031215612f3b575f5ffd5b815161241a816123eb565b5f6060828403128015612f57575f5ffd5b50604051606081016001600160401b0381118282101715612f7a57612f7a612659565b6040528251815260208301518015158114612f93575f5ffd5b60208201526040928301519281019290925250919050565b808202811582820484141761084057610840612a90565b5f82612fdc57634e487b7160e01b5f52601260045260245ffd5b500490565b8181038181111561084057610840612a90565b8082018082111561084057610840612a9056fea2646970667358221220abb7d6c7e5cfbde3b81069edd4ad0721ffb70bb3de48a2467790c3eb55de700d64736f6c634300081c0033",
  "linkReferences": {},
  "deployedLinkReferences": {},
  "immutableReferences": {},
  "inputSourceName": "project/contracts/MesaCompartida.sol",
  "buildInfoId": "solc-0_8_28-8d7db3a704f2c4de3fe4d6fe1d116d089e2ceb72"
}