{
  "_format": "hh3-artifact-1",
  "contractName": "PlateNFT",
  "sourceName": "contracts/PlateNFT.sol",
  "abi": [
    {
      "inputs": [],
      "stateMutability": "nonpayable",
      "type": "constructor"
    },
    {
      "inputs": [],
      "name": "ERC721EnumerableForbiddenBatchMint",
      "type": "error"
    },
    {
      "inputs": [
        {
          "internalType": "address",
          "name": "sender",
          "type": "address"
        },
        {
          "internalType": "uint256",
          "name": "tokenId",
          "type": "uint256"
        },
        {
          "internalType": "address",
          "name": "owner",
          "type": "address"
        }
      ],
      "name": "ERC721IncorrectOwner",
      "type": "error"
    },
    {
      "inputs": [
        {
          "internalType": "address",
          "name": "operator",
          "type": "address"
        },
        {
          "internalType": "uint256",
          "name": "tokenId",
          "type": "uint256"
        }
      ],
      "name": "ERC721InsufficientApproval",
      "type": "error"
    },
    {
      "inputs": [
        {
          "internalType": "address",
          "name": "approver",
          "type": "address"
        }
      ],
      "name": "ERC721InvalidApprover",
      "type": "error"
    },
    {
      "inputs": [
        {
          "internalType": "address",
          "name": "operator",
          "type": "address"
        }
      ],
      "name": "ERC721InvalidOperator",
      "type": "error"
    },
    {
      "inputs": [
        {
          "internalType": "address",
          "name": "owner",
          "type": "address"
        }
      ],
      "name": "ERC721InvalidOwner",
      "type": "error"
    },
    {
      "inputs": [
        {
          "internalType": "address",
          "name": "receiver",
          "type": "address"
        }
      ],
      "name": "ERC721InvalidReceiver",
      "type": "error"
    },
    {
      "inputs": [
        {
          "internalType": "address",
          "name": "sender",
          "type": "address"
        }
      ],
      "name": "ERC721InvalidSender",
      "type": "error"
    },
    {
      "inputs": [
        {
          "internalType": "uint256",
          "name": "tokenId",
          "type": "uint256"
        }
      ],
      "name": "ERC721NonexistentToken",
      "type": "error"
    },
    {
      "inputs": [
        {
          "internalType": "address",
          "name": "owner",
          "type": "address"
        },
        {
          "internalType": "uint256",
          "name": "index",
          "type": "uint256"
        }
      ],
      "name": "ERC721OutOfBoundsIndex",
      "type": "error"
    },
    {
      "inputs": [
        {
          "internalType": "address",
          "name": "owner",
          "type": "address"
        }
      ],
      "name": "OwnableInvalidOwner",
      "type": "error"
    },
    {
      "inputs": [
        {
          "internalType": "address",
          "name": "account",
          "type": "address"
        }
      ],
      "name": "OwnableUnauthorizedAccount",
      "type": "error"
    },
    {
      "anonymous": false,
      "inputs": [
        {
          "indexed": true,
          "internalType": "address",
          "name": "owner",
          "type": "address"
        },
        {
          "indexed": true,
          "internalType": "address",
          "name": "approved",
          "type": "address"
        },
        {
          "indexed": true,
          "internalType": "uint256",
          "name": "tokenId",
          "type": "uint256"
        }
      ],
      "name": "Approval",
      "type": "event"
    },
    {
      "anonymous": false,
      "inputs": [
        {
          "indexed": true,
          "internalType": "address",
          "name": "owner",
          "type": "address"
        },
        {
          "indexed": true,
          "internalType": "address",
          "name": "operator",
          "type": "address"
        },
        {
          "indexed": false,
          "internalType": "bool",
          "name": "approved",
          "type": "bool"
        }
      ],
      "name": "ApprovalForAll",
      "type": "event"
    },
    {
      "anonymous": false,
      "inputs": [
        {
          "indexed": true,
          "internalType": "address",
          "name": "previousOwner",
          "type": "address"
        },
        {
          "indexed": true,
          "internalType": "address",
          "name": "newOwner",
          "type": "address"
        }
      ],
      "name": "OwnershipTransferred",
      "type": "event"
    },
    {
      "anonymous": false,
      "inputs": [
        {
          "indexed": true,
          "internalType": "address",
          "name": "from",
          "type": "address"
        },
        {
          "indexed": true,
          "internalType": "address",
          "name": "to",
          "type": "address"
        },
        {
          "indexed": true,
          "internalType": "uint256",
          "name": "tokenId",
          "type": "uint256"
        }
      ],
      "name": "Transfer",
      "type": "event"
    },
    {
      "inputs": [
        {
          "internalType": "address",
          "name": "to",
          "type": "address"
        },
        {
          "internalType": "uint256",
          "name": "tokenId",
          "type": "uint256"
        }
      ],
      "name": "approve",
      "outputs": [],
      "stateMutability": "nonpayable",
      "type": "function"
    },
    {
      "inputs": [
        {
          "internalType": "address",
          "name": "owner",
          "type": "address"
        }
      ],
      "name": "balanceOf",
      "outputs": [
        {
          "internalType": "uint256",
          "name": "",
          "type": "uint256"
        }
      ],
      "stateMutability": "view",
      "type": "function"
    },
    {
      "inputs": [
        {
          "internalType": "string",
          "name": "_name",
          "type": "string"
        },
        {
          "internalType": "string",
          "name": "_description",
          "type": "string"
        },
        {
          "internalType": "string",
          "name": "_ipfsHash",
          "type": "string"
        },
        {
          "internalType": "uint256",
          "name": "_maxSupply",
          "type": "uint256"
        },
        {
          "internalType": "uint256",
          "name": "_expiresAt",
          "type": "uint256"
        }
      ],
      "name": "createPlate",
      "outputs": [
        {
          "internalType": "uint256",
          "name": "",
          "type": "uint256"
        }
      ],
      "stateMutability": "nonpayable",
      "type": "function"
    },
    {
      "inputs": [],
      "name": "getActivePlates",
      "outputs": [
        {
          "components": [
            {
              "internalType": "string",
              "name": "name",
              "type": "string"
            },
            {
              "internalType": "string",
              "name": "description",
              "type": "string"
            },
            {
              "internalType": "string",
              "name": "ipfsHash",
              "type": "string"
            },
            {
              "internalType": "address",
              "name": "vendor",
              "type": "address"
            },
            {
              "internalType": "uint256",
              "name": "createdAt",
              "type": "uint256"
            },
            {
              "internalType": "uint256",
              "name": "expiresAt",
              "type": "uint256"
            },
            {
              "internalType": "uint256",
              "name": "maxSupply",
              "type": "uint256"
            },
            {
              "internalType": "uint256",
              "name": "availableVouchers",
              "type": "uint256"
            }
          ],
          "internalType": "struct PlateNFT.PlateMetadata[]",
          "name": "",
          "type": "tuple[]"
        }
      ],
      "stateMutability": "view",
      "type": "function"
    },
    {
      "inputs": [
        {
          "internalType": "uint256",
          "name": "tokenId",
          "type": "uint256"
        }
      ],
      "name": "getApproved",
      "outputs": [
        {
          "internalType": "address",
          "name": "",
          "type": "address"
        }
      ],
      "stateMutability": "view",
      "type": "function"
    },
    {
      "inputs": [
        {
          "internalType": "uint256",
          "name": "_plateId",
          "type": "uint256"
        }
      ],
      "name": "getPlateMetadata",
      "outputs": [
        {
          "components": [
            {
              "internalType": "string",
              "name": "name",
              "type": "string"
            },
            {
              "internalType": "string",
              "name": "description",
              "type": "string"
            },
            {
              "internalType": "string",
              "name": "ipfsHash",
              "type": "string"
            },
            {
              "internalType": "address",
              "name": "vendor",
              "type": "address"
            },
            {
              "internalType": "uint256",
              "name": "createdAt",
              "type": "uint256"
            },
            {
              "internalType": "uint256",
              "name": "expiresAt",
              "type": "uint256"
            },
            {
              "internalType": "uint256",
              "name": "maxSupply",
              "type": "uint256"
            },
            {
              "internalType": "uint256",
              "name": "availableVouchers",
              "type": "uint256"
            }
          ],
          "internalType": "struct PlateNFT.PlateMetadata",
          "name": "",
          "type": "tuple"
        }
      ],
      "stateMutability": "view",
      "type": "function"
    },
    {
      "inputs": [
        {
          "internalType": "address",
          "name": "_vendor",
          "type": "address"
        }
      ],
      "name": "getVendorPlates",
      "outputs": [
        {
          "internalType": "uint256[]",
          "name": "",
          "type": "uint256[]"
        }
      ],
      "stateMutability": "view",
      "type": "function"
    },
    {
      "inputs": [
        {
          "internalType": "uint256",
          "name": "_tokenId",
          "type": "uint256"
        }
      ],
      "name": "getVoucherInfo",
      "outputs": [
        {
          "components": [
            {
              "internalType": "uint256",
              "name": "plateId",
              "type": "uint256"
            },
            {
              "internalType": "bool",
              "name": "redeemed",
              "type": "bool"
            },
            {
              "internalType": "uint256",
              "name": "redeemedAt",
              "type": "uint256"
            }
          ],
          "internalType": "struct PlateNFT.VoucherNFT",
          "name": "",
          "type": "tuple"
        }
      ],
      "stateMutability": "view",
      "type": "function"
    },
    {
      "inputs": [
        {
          "internalType": "address",
          "name": "owner",
          "type": "address"
        },
        {
          "internalType": "address",
          "name": "operator",
          "type": "address"
        }
      ],
      "name": "isApprovedForAll",
      "outputs": [
        {
          "internalType": "bool",
          "name": "",
          "type": "bool"
        }
      ],
      "stateMutability": "view",
      "type": "function"
    },
    {
      "inputs": [
        {
          "internalType": "uint256",
          "name": "_tokenId",
          "type": "uint256"
        }
      ],
      "name": "isVoucherExpired",
      "outputs": [
        {
          "internalType": "bool",
          "name": "",
          "type": "bool"
        }
      ],
      "stateMutability": "view",
      "type": "function"
    },
    {
      "inputs": [
        {
          "internalType": "uint256",
          "name": "_tokenId",
          "type": "uint256"
        }
      ],
      "name": "isVoucherValid",
      "outputs": [
        {
          "internalType": "bool",
          "name": "",
          "type": "bool"
        }
      ],
      "stateMutability": "view",
      "type": "function"
    },
    {
      "inputs": [],
      "name": "name",
      "outputs": [
        {
          "internalType": "string",
          "name": "",
          "type": "string"
        }
      ],
      "stateMutability": "view",
      "type": "function"
    },
    {
      "inputs": [],
      "name": "owner",
      "outputs": [
        {
          "internalType": "address",
          "name": "",
          "type": "address"
        }
      ],
      "stateMutability": "view",
      "type": "function"
    },
    {
      "inputs": [
        {
          "internalType": "uint256",
          "name": "tokenId",
          "type": "uint256"
        }
      ],
      "name": "ownerOf",
      "outputs": [
        {
          "internalType": "address",
          "name": "",
          "type": "address"
        }
      ],
      "stateMutability": "view",
      "type": "function"
    },
    {
      "inputs": [
        {
          "internalType": "uint256",
          "name": "",
          "type": "uint256"
        }
      ],
      "name": "plateMetadata",
      "outputs": [
        {
          "internalType": "string",
          "name": "name",
          "type": "string"
        },
        {
          "internalType": "string",
          "name": "description",
          "type": "string"
        },
        {
          "internalType": "string",
          "name": "ipfsHash",
          "type": "string"
        },
        {
          "internalType": "address",
          "name": "vendor",
          "type": "address"
        },
        {
          "internalType": "uint256",
          "name": "createdAt",
          "type": "uint256"
        },
        {
          "internalType": "uint256",
          "name": "expiresAt",
          "type": "uint256"
        },
        {
          "internalType": "uint256",
          "name": "maxSupply",
          "type": "uint256"
        },
        {
          "internalType": "uint256",
          "name": "availableVouchers",
          "type": "uint256"
        }
      ],
      "stateMutability": "view",
      "type": "function"
    },
    {
      "inputs": [
        {
          "internalType": "uint256",
          "name": "_tokenId",
          "type": "uint256"
        }
      ],
      "name": "redeemVoucher",
      "outputs": [],
      "stateMutability": "nonpayable",
      "type": "function"
    },
    {
      "inputs": [
        {
          "internalType": "uint256",
          "name": "_redemptionCode",
          "type": "uint256"
        }
      ],
      "name": "redeemVoucherByCode",
      "outputs": [],
      "stateMutability": "nonpayable",
      "type": "function"
    },
    {
      "inputs": [
        {
          "internalType": "uint256",
          "name": "",
          "type": "uint256"
        }
      ],
      "name": "redemptionCodeToVoucher",
      "outputs": [
        {
          "internalType": "uint256",
          "name": "",
          "type": "uint256"
        }
      ],
      "stateMutability": "view",
      "type": "function"
    },
    {
      "inputs": [],
      "name": "renounceOwnership",
      "outputs": [],
      "stateMutability": "nonpayable",
      "type": "function"
    },
    {
      "inputs": [
        {
          "internalType": "address",
          "name": "from",
          "type": "address"
        },
        {
          "internalType": "address",
          "name": "to",
          "type": "address"
        },
        {
          "internalType": "uint256",
          "name": "tokenId",
          "type": "uint256"
        }
      ],
      "name": "safeTransferFrom",
      "outputs": [],
      "stateMutability": "nonpayable",
      "type": "function"
    },
    {
      "inputs": [
        {
          "internalType": "address",
          "name": "from",
          "type": "address"
        },
        {
          "internalType": "address",
          "name": "to",
          "type": "address"
        },
        {
          "internalType": "uint256",
          "name": "tokenId",
          "type": "uint256"
        },
        {
          "internalType": "bytes",
          "name": "data",
          "type": "bytes"
        }
      ],
      "name": "safeTransferFrom",
      "outputs": [],
      "stateMutability": "nonpayable",
      "type": "function"
    },
    {
      "inputs": [
        {
          "internalType": "address",
          "name": "operator",
          "type": "address"
        },
        {
          "internalType": "bool",
          "name": "approved",
          "type": "bool"
        }
      ],
      "name": "setApprovalForAll",
      "outputs": [],
      "stateMutability": "nonpayable",
      "type": "function"
    },
    {
      "inputs": [
        {
          "internalType": "bytes4",
          "name": "interfaceId",
          "type": "bytes4"
        }
      ],
      "name": "supportsInterface",
      "outputs": [
        {
          "internalType": "bool",
          "name": "",
          "type": "bool"
        }
      ],
      "stateMutability": "view",
      "type": "function"
    },
    {
      "inputs": [],
      "name": "symbol",
      "outputs": [
        {
          "internalType": "string",
          "name": "",
          "type": "string"
        }
      ],
      "stateMutability": "view",
      "type": "function"
    },
    {
      "inputs": [
        {
          "internalType": "uint256",
          "name": "index",
          "type": "uint256"
        }
      ],
      "name": "tokenByIndex",
      "outputs": [
        {
          "internalType": "uint256",
          "name": "",
          "type": "uint256"
        }
      ],
      "stateMutability": "view",
      "type": "function"
    },
    {
      "inputs": [
        {
          "internalType": "address",
          "name": "owner",
          "type": "address"
        },
        {
          "internalType": "uint256",
          "name": "index",
          "type": "uint256"
        }
      ],
      "name": "tokenOfOwnerByIndex",
      "outputs": [
        {
          "internalType": "uint256",
          "name": "",
          "type": "uint256"
        }
      ],
      "stateMutability": "view",
      "type": "function"
    },
    {
      "inputs": [
        {
          "internalType": "uint256",
          "name": "_tokenId",
          "type": "uint256"
        }
      ],
      "name": "tokenURI",
      "outputs": [
        {
          "internalType": "string",
          "name": "",
          "type": "string"
        }
      ],
      "stateMutability": "view",
      "type": "function"
    },
    {
      "inputs": [],
      "name": "totalSupply",
      "outputs": [
        {
          "internalType": "uint256",
          "name": "",
          "type": "uint256"
        }
      ],
      "stateMutability": "view",
      "type": "function"
    },
    {
      "inputs": [
        {
          "internalType": "address",
          "name": "from",
          "type": "address"
        },
        {
          "internalType": "address",
          "name": "to",
          "type": "address"
        },
        {
          "internalType": "uint256",
          "name": "tokenId",
          "type": "uint256"
        }
      ],
      "name": "transferFrom",
      "outputs": [],
      "stateMutability": "nonpayable",
      "type": "function"
    },
    {
      "inputs": [
        {
          "internalType": "address",
          "name": "newOwner",
          "type": "address"
        }
      ],
      "name": "transferOwnership",
      "outputs": [],
      "stateMutability": "nonpayable",
      "type": "function"
    },
    {
      "inputs": [
        {
          "internalType": "uint256",
          "name": "_tokenId",
          "type": "uint256"
        },
        {
          "internalType": "address",
          "name": "_to",
          "type": "address"
        }
      ],
      "name": "transferVoucher",
      "outputs": [],
      "stateMutability": "nonpayable",
      "type": "function"
    },
    {
      "inputs": [
        {
          "internalType": "uint256",
          "name": "_tokenId",
          "type": "uint256"
        },
        {
          "internalType": "address",
          "name": "_from",
          "type": "address"
        },
        {
          "internalType": "address",
          "name": "_to",
          "type": "address"
        }
      ],
      "name": "transferVoucherFrom",
      "outputs": [],
      "stateMutability": "nonpayable",
      "type": "function"
    },
    {
      "inputs": [
        {
          "internalType": "address",
          "name": "",
          "type": "address"
        },
        {
          "internalType": "uint256",
          "name": "",
          "type": "uint256"
        }
      ],
      "name": "vendorPlates",
      "outputs": [
        {
          "internalType": "uint256",
          "name": "",
          "type": "uint256"
        }
      ],
      "stateMutability": "view",
      "type": "function"
    },
    {
      "inputs": [
        {
          "internalType": "uint256",
          "name": "",
          "type": "uint256"
        }
      ],
      "name": "voucherNFTs",
      "outputs": [
        {
          "internalType": "uint256",
          "name": "plateId",
          "type": "uint256"
        },
        {
          "internalType": "bool",
          "name": "redeemed",
          "type": "bool"
        },
        {
          "internalType": "uint256",
          "name": "redeemedAt",
          "type": "uint256"
        }
      ],
      "stateMutability": "view",
      "type": "function"
    },
    {
      "inputs": [
        {
          "internalType": "uint256",
          "name": "",
          "type": "uint256"
        }
      ],
      "name": "voucherToRedemptionCode",
      "outputs": [
        {
          "internalType": "uint256",
          "name": "",
          "type": "uint256"
        }
      ],
      "stateMutability": "view",
      "type": "function"
    }
  ],
  "bytecode": "0x608060405234801561000f575f5ffd5b50336040518060400160405280601481526020017f4d657361436f6d70617274696461506c6174657300000000000000000000000081525060405180604001604052806005815260200164504c41544560d81b815250815f908161007391906101a8565b50600161008082826101a8565b5050506001600160a01b0381166100b057604051631e4fbdf760e01b81525f600482015260240160405180910390fd5b6100b9816100bf565b50610262565b600a80546001600160a01b038381166001600160a01b0319831681179093556040519116919082907f8be0079c531659141344cd1fd0a4f28419497f9722a3daafe3b4186f6b6457e0905f90a35050565b634e487b7160e01b5f52604160045260245ffd5b600181811c9082168061013857607f821691505b60208210810361015657634e487b7160e01b5f52602260045260245ffd5b50919050565b601f8211156101a357805f5260205f20601f840160051c810160208510156101815750805b601f840160051c820191505b818110156101a0575f815560010161018d565b50505b505050565b81516001600160401b038111156101c1576101c1610110565b6101d5816101cf8454610124565b8461015c565b6020601f821160018114610207575f83156101f05750848201515b5f19600385901b1c1916600184901b1784556101a0565b5f84815260208120601f198516915b828110156102365787850151825560209485019460019092019101610216565b508482101561025357868401515f19600387901b60f8161c191681555b50505050600190811b01905550565b6138228061026f5f395ff3fe608060405234801561000f575f5ffd5b5060043610610208575f3560e01c806374f87cf91161011f578063bffb29e7116100a9578063e31058af11610079578063e31058af146104de578063e6ae2b7d146104fd578063e985e9c51461051d578063f2fde38b14610530578063f7c900ff14610543575f5ffd5b8063bffb29e714610421578063c043c45514610458578063c0f9f9fd146104a4578063c87b56dd146104cb575f5ffd5b806394df9fa3116100ef57806394df9fa3146103be57806395d89b41146103de578063a22cb465146103e6578063a39dbca6146103f9578063b88d4fde1461040e575f5ffd5b806374f87cf9146103745780637e0ae5f71461038757806385acceea1461039a5780638da5cb5b146103ad575f5ffd5b80632f745c59116101a05780636352211e116101705780636352211e1461032057806366debc21146103335780636c3bc7221461034657806370a0823114610359578063715018a61461036c575f5ffd5b80632f745c59146102d457806342842e0e146102e75780634f6ccce7146102fa5780636200ee7a1461030d575f5ffd5b8063095ea7b3116101db578063095ea7b31461028957806318160ddd1461029c5780631c6d6b5e146102ae57806323b872dd146102c1575f5ffd5b806301ffc9a71461020c578063047ec48b1461023457806306fdde0314610249578063081812fc1461025e575b5f5ffd5b61021f61021a366004612dd7565b610562565b60405190151581526020015b60405180910390f35b610247610242366004612e0d565b610572565b005b610251610657565b60405161022b9190612e65565b61027161026c366004612e77565b6106e6565b6040516001600160a01b03909116815260200161022b565b610247610297366004612e8e565b61070d565b6008545b60405190815260200161022b565b6102476102bc366004612e77565b61071c565b6102476102cf366004612eb6565b6107cb565b6102a06102e2366004612e8e565b61084e565b6102476102f5366004612eb6565b6108b1565b6102a0610308366004612e77565b6108d0565b61021f61031b366004612e77565b610925565b61027161032e366004612e77565b610b80565b610247610341366004612ef0565b610b8a565b610247610354366004612e77565b610c62565b6102a0610367366004612f29565b610d70565b610247610db5565b6102a0610382366004612e8e565b610dc8565b6102a0610395366004612feb565b610df3565b61021f6103a8366004612e77565b611100565b600a546001600160a01b0316610271565b6103d16103cc366004612f29565b611346565b60405161022b919061308a565b6102516113af565b6102476103f43660046130cc565b6113be565b6104016113c9565b60405161022b919061319e565b61024761041c366004613201565b611708565b61043461042f366004612e77565b611720565b6040805182518152602080840151151590820152918101519082015260600161022b565b610489610466366004612e77565b600e6020525f9081526040902080546001820154600290920154909160ff169083565b6040805193845291151560208401529082015260600161022b565b6104b76104b2366004612e77565b611780565b60405161022b989796959493929190613278565b6102516104d9366004612e77565b61195c565b6102a06104ec366004612e77565b60106020525f908152604090205481565b61051061050b366004612e77565b611cd4565b60405161022b91906132e7565b61021f61052b3660046132f9565b611ee6565b61024761053e366004612f29565b611f13565b6102a0610551366004612e77565b60116020525f908152604090205481565b5f61056c82611f50565b92915050565b3361057c83610b80565b6001600160a01b0316146105ab5760405162461bcd60e51b81526004016105a290613321565b60405180910390fd5b5f828152600e6020908152604080832081516060810183528154808252600183015460ff1615158286015260029092015481840152908452600d9092529091206005810154421061060e5760405162461bcd60e51b81526004016105a29061334c565b8160200151156106305760405162461bcd60e51b81526004016105a290613379565b600781018054905f610641836133c4565b9190505550610651338486611f74565b50505050565b60605f8054610665906133d9565b80601f0160208091040260200160405190810160405280929190818152602001828054610691906133d9565b80156106dc5780601f106106b3576101008083540402835291602001916106dc565b820191905f5260205f20905b8154815290600101906020018083116106bf57829003601f168201915b5050505050905090565b5f6106f082612021565b505f828152600460205260409020546001600160a01b031661056c565b610718828233612059565b5050565b5f818152600e6020908152604080832080548452600d9092529091203361074284610b80565b6001600160a01b0316146107685760405162461bcd60e51b81526004016105a290613321565b600182015460ff161561078d5760405162461bcd60e51b81526004016105a290613379565b806005015442106107b05760405162461bcd60e51b81526004016105a29061334c565b506001818101805460ff191690911790554260029091015550565b6001600160a01b0382166107f457604051633250574960e11b81525f60048201526024016105a2565b5f610800838333612066565b9050836001600160a01b0316816001600160a01b031614610651576040516364283d7b60e01b81526001600160a01b03808616600483015260248201849052821660448201526064016105a2565b5f61085883610d70565b82106108895760405163295f44f760e21b81526001600160a01b0384166004820152602481018390526044016105a2565b506001600160a01b03919091165f908152600660209081526040808320938352929052205490565b6108cb83838360405180602001604052805f815250611708565b505050565b5f6108da60085490565b82106109025760405163295f44f760e21b81525f6004820152602481018390526044016105a2565b6008828154811061091557610915613411565b905f5260205f2001549050919050565b5f818152600e6020908152604080832081516060810183528154808252600183015460ff1615158286015260029092015481840152908452600d9092528083208151610100810190925280548492919082908290610982906133d9565b80601f01602080910402602001604051908101604052809291908181526020018280546109ae906133d9565b80156109f95780601f106109d0576101008083540402835291602001916109f9565b820191905f5260205f20905b8154815290600101906020018083116109dc57829003601f168201915b50505050508152602001600182018054610a12906133d9565b80601f0160208091040260200160405190810160405280929190818152602001828054610a3e906133d9565b8015610a895780601f10610a6057610100808354040283529160200191610a89565b820191905f5260205f20905b815481529060010190602001808311610a6c57829003601f168201915b50505050508152602001600282018054610aa2906133d9565b80601f0160208091040260200160405190810160405280929190818152602001828054610ace906133d9565b8015610b195780601f10610af057610100808354040283529160200191610b19565b820191905f5260205f20905b815481529060010190602001808311610afc57829003601f168201915b505050918352505060038201546001600160a01b031660208083019190915260048301546040830152600583015460608301526006830154608083015260079092015460a090910152830151909150158015610b7857508060a0015142105b949350505050565b5f61056c82612021565b610b9261207c565b816001600160a01b0316610ba584610b80565b6001600160a01b031614610bcb5760405162461bcd60e51b81526004016105a290613321565b5f838152600e6020908152604080832081516060810183528154808252600183015460ff1615158286015260029092015481840152908452600d90925290912060058101544210610c2e5760405162461bcd60e51b81526004016105a29061334c565b816020015115610c505760405162461bcd60e51b81526004016105a290613379565b610c5b848487611f74565b5050505050565b5f8181526011602052604081205490819003610cc05760405162461bcd60e51b815260206004820152601760248201527f496e76616c696420726564656d7074696f6e20636f646500000000000000000060448201526064016105a2565b5f818152600e6020908152604080832080548452600d90925290912033610ce684610b80565b6001600160a01b031614610d0c5760405162461bcd60e51b81526004016105a290613321565b600182015460ff1615610d315760405162461bcd60e51b81526004016105a290613379565b80600501544210610d545760405162461bcd60e51b81526004016105a29061334c565b506001818101805460ff19169091179055426002909101555050565b5f6001600160a01b038216610d9a576040516322718ad960e21b81525f60048201526024016105a2565b506001600160a01b03165f9081526003602052604090205490565b610dbd61207c565b610dc65f6120a9565b565b600f602052815f5260405f208181548110610de1575f80fd5b905f5260205f20015f91509150505481565b5f5f865111610e3b5760405162461bcd60e51b81526020600482015260146024820152734e616d652063616e6e6f7420626520656d70747960601b60448201526064016105a2565b5f8311610e835760405162461bcd60e51b815260206004820152601660248201527504d617820737570706c79206d757374206265203e20360541b60448201526064016105a2565b428211610ed25760405162461bcd60e51b815260206004820181905260248201527f45787069726174696f6e206d75737420626520696e207468652066757475726560448201526064016105a2565b600b80545f9182610ee283613425565b90915550604080516101008101825289815260208082018a905281830189905233606083015242608083015260a0820187905260c0820188905260e082018890525f848152600d90915291909120815192935090918190610f439082613481565b5060208201516001820190610f589082613481565b5060408201516002820190610f6d9082613481565b5060608201516003820180546001600160a01b0319166001600160a01b039092169190911790556080820151600482015560a0820151600582015560c0820151600682015560e090910151600790910155335f908152600f602090815260408220805460018181018355918452918320909101839055600c8054918201815582527fdf6966c971051c3d54ec59162606531493a51404a002842f56009d7e5cf4a8c7018290555b848110156110f557600b80545f918261102c83613425565b9091555060408051606080820183528682525f6020808401828152848601838152878452600e835286842095518655905160018601805460ff191691151591909117905551600290940193909355835192830188905292820186905242828201526bffffffffffffffffffffffff193390911b1660808201529192509060940160408051601f1981840301815291815281516020928301205f858152601084528281208290558181526011909352912083905590506110eb33836120fa565b5050600101611014565b509695505050505050565b5f818152600e6020908152604080832081516060810183528154808252600183015460ff1615158286015260029092015481840152908452600d909252808320815161010081019092528054849291908290829061115d906133d9565b80601f0160208091040260200160405190810160405280929190818152602001828054611189906133d9565b80156111d45780601f106111ab576101008083540402835291602001916111d4565b820191905f5260205f20905b8154815290600101906020018083116111b757829003601f168201915b505050505081526020016001820180546111ed906133d9565b80601f0160208091040260200160405190810160405280929190818152602001828054611219906133d9565b80156112645780601f1061123b57610100808354040283529160200191611264565b820191905f5260205f20905b81548152906001019060200180831161124757829003601f168201915b5050505050815260200160028201805461127d906133d9565b80601f01602080910402602001604051908101604052809291908181526020018280546112a9906133d9565b80156112f45780601f106112cb576101008083540402835291602001916112f4565b820191905f5260205f20905b8154815290600101906020018083116112d757829003601f168201915b505050918352505060038201546001600160a01b0316602082015260048201546040820152600582015460608201526006820154608082015260079091015460a0918201520151421015949350505050565b6001600160a01b0381165f908152600f60209081526040918290208054835181840281018401909452808452606093928301828280156113a357602002820191905f5260205f20905b81548152602001906001019080831161138f575b50505050509050919050565b606060018054610665906133d9565b610718338383612113565b60605f805b600c548110156114255742600d5f600c84815481106113ef576113ef613411565b905f5260205f20015481526020019081526020015f2060050154111561141d578161141981613425565b9250505b6001016113ce565b505f8167ffffffffffffffff81111561144057611440612f42565b60405190808252806020026020018201604052801561147957816020015b611466612d79565b81526020019060019003908161145e5790505b5090505f805b600c548110156116ff575f600c828154811061149d5761149d613411565b905f5260205f200154905042600d5f8381526020019081526020015f206005015411156116f6575f818152600d602052604090819020815161010081019092528054829082906114ec906133d9565b80601f0160208091040260200160405190810160405280929190818152602001828054611518906133d9565b80156115635780601f1061153a57610100808354040283529160200191611563565b820191905f5260205f20905b81548152906001019060200180831161154657829003601f168201915b5050505050815260200160018201805461157c906133d9565b80601f01602080910402602001604051908101604052809291908181526020018280546115a8906133d9565b80156115f35780601f106115ca576101008083540402835291602001916115f3565b820191905f5260205f20905b8154815290600101906020018083116115d657829003601f168201915b5050505050815260200160028201805461160c906133d9565b80601f0160208091040260200160405190810160405280929190818152602001828054611638906133d9565b80156116835780601f1061165a57610100808354040283529160200191611683565b820191905f5260205f20905b81548152906001019060200180831161166657829003601f168201915b505050918352505060038201546001600160a01b0316602082015260048201546040820152600582015460608201526006820154608082015260079091015460a09091015284518590859081106116dc576116dc613411565b602002602001018190525082806116f290613425565b9350505b5060010161147f565b50909392505050565b6117138484846107cb565b61065133858585856121b1565b61174360405180606001604052805f81526020015f151581526020015f81525090565b505f908152600e6020908152604091829020825160608101845281548152600182015460ff16151592810192909252600201549181019190915290565b600d6020525f908152604090208054819061179a906133d9565b80601f01602080910402602001604051908101604052809291908181526020018280546117c6906133d9565b80156118115780601f106117e857610100808354040283529160200191611811565b820191905f5260205f20905b8154815290600101906020018083116117f457829003601f168201915b505050505090806001018054611826906133d9565b80601f0160208091040260200160405190810160405280929190818152602001828054611852906133d9565b801561189d5780601f106118745761010080835404028352916020019161189d565b820191905f5260205f20905b81548152906001019060200180831161188057829003601f168201915b5050505050908060020180546118b2906133d9565b80601f01602080910402602001604051908101604052809291908181526020018280546118de906133d9565b80156119295780601f1061190057610100808354040283529160200191611929565b820191905f5260205f20905b81548152906001019060200180831161190c57829003601f168201915b505050600384015460048501546005860154600687015460079097015495966001600160a01b0390931695919450925088565b60605f61196883610b80565b6001600160a01b0316036119b55760405162461bcd60e51b8152602060048201526014602482015273151bdad95b88191bd95cc81b9bdd08195e1a5cdd60621b60448201526064016105a2565b5f828152600e6020908152604080832081516060810183528154808252600183015460ff1615158286015260029092015481840152908452600d90925280832081516101008101909252805492939282908290611a11906133d9565b80601f0160208091040260200160405190810160405280929190818152602001828054611a3d906133d9565b8015611a885780601f10611a5f57610100808354040283529160200191611a88565b820191905f5260205f20905b815481529060010190602001808311611a6b57829003601f168201915b50505050508152602001600182018054611aa1906133d9565b80601f0160208091040260200160405190810160405280929190818152602001828054611acd906133d9565b8015611b185780601f10611aef57610100808354040283529160200191611b18565b820191905f5260205f20905b815481529060010190602001808311611afb57829003601f168201915b50505050508152602001600282018054611b31906133d9565b80601f0160208091040260200160405190810160405280929190818152602001828054611b5d906133d9565b8015611ba85780601f10611b7f57610100808354040283529160200191611ba8565b820191905f5260205f20905b815481529060010190602001808311611b8b57829003601f168201915b50505050508152602001600382015f9054906101000a90046001600160a01b03166001600160a01b03166001600160a01b0316815260200160048201548152602001600582015481526020016006820154815260200160078201548152505090505f611ca8825f015183602001518460400151611c2886606001516122d8565b8760200151611c54576040518060400160405280600581526020016466616c736560d81b815250611c72565b604051806040016040528060048152602001637472756560e01b8152505b611c7f8860a001516124b2565b604051602001611c9496959493929190613553565b604051602081830303815290604052612542565b905080604051602001611cbb91906136b4565b6040516020818303038152906040529350505050919050565b611cdc612d79565b5f828152600d60205260409081902081516101008101909252805482908290611d04906133d9565b80601f0160208091040260200160405190810160405280929190818152602001828054611d30906133d9565b8015611d7b5780601f10611d5257610100808354040283529160200191611d7b565b820191905f5260205f20905b815481529060010190602001808311611d5e57829003601f168201915b50505050508152602001600182018054611d94906133d9565b80601f0160208091040260200160405190810160405280929190818152602001828054611dc0906133d9565b8015611e0b5780601f10611de257610100808354040283529160200191611e0b565b820191905f5260205f20905b815481529060010190602001808311611dee57829003601f168201915b50505050508152602001600282018054611e24906133d9565b80601f0160208091040260200160405190810160405280929190818152602001828054611e50906133d9565b8015611e9b5780601f10611e7257610100808354040283529160200191611e9b565b820191905f5260205f20905b815481529060010190602001808311611e7e57829003601f168201915b505050918352505060038201546001600160a01b0316602082015260048201546040820152600582015460608201526006820154608082015260079091015460a09091015292915050565b6001600160a01b039182165f90815260056020908152604080832093909416825291909152205460ff1690565b611f1b61207c565b6001600160a01b038116611f4457604051631e4fbdf760e01b81525f60048201526024016105a2565b611f4d816120a9565b50565b5f6001600160e01b0319821663780e9d6360e01b148061056c575061056c82612568565b6001600160a01b038216611f9d57604051633250574960e11b81525f60048201526024016105a2565b5f611fa983835f612066565b90506001600160a01b038116611fd557604051637e27328960e01b8152600481018390526024016105a2565b836001600160a01b0316816001600160a01b031614610651576040516364283d7b60e01b81526001600160a01b03808616600483015260248201849052821660448201526064016105a2565b5f818152600260205260408120546001600160a01b03168061056c57604051637e27328960e01b8152600481018490526024016105a2565b6108cb83838360016125b7565b5f6120728484846126bb565b90505b9392505050565b600a546001600160a01b03163314610dc65760405163118cdaa760e01b81523360048201526024016105a2565b600a80546001600160a01b038381166001600160a01b0319831681179093556040519116919082907f8be0079c531659141344cd1fd0a4f28419497f9722a3daafe3b4186f6b6457e0905f90a35050565b610718828260405180602001604052805f815250612786565b6001600160a01b03821661214557604051630b61174360e31b81526001600160a01b03831660048201526024016105a2565b6001600160a01b038381165f81815260056020908152604080832094871680845294825291829020805460ff191686151590811790915591519182527f17307eab39ab6107e8899845ad3d59bd9653f200f220920489ca2b5937696c31910160405180910390a3505050565b6001600160a01b0383163b15610c5b57604051630a85bd0160e11b81526001600160a01b0384169063150b7a02906121f39088908890879087906004016136e5565b6020604051808303815f875af192505050801561222d575060408051601f3d908101601f1916820190925261222a91810190613721565b60015b612294573d80801561225a576040519150601f19603f3d011682016040523d82523d5f602084013e61225f565b606091505b5080515f0361228c57604051633250574960e11b81526001600160a01b03851660048201526024016105a2565b805160208201fd5b6001600160e01b03198116630a85bd0160e11b146122d057604051633250574960e11b81526001600160a01b03851660048201526024016105a2565b505050505050565b604080518082018252601081526f181899199a1a9b1b9c1cb0b131b232b360811b60208201528151602a80825260608281019094526001600160a01b03851692915f91602082018180368337019050509050600360fc1b815f8151811061234157612341613411565b60200101906001600160f81b03191690815f1a905350600f60fb1b8160018151811061236f5761236f613411565b60200101906001600160f81b03191690815f1a9053505f5b60148110156124a9578260048561239f84600c61373c565b602081106123af576123af613411565b1a60f81b6001600160f81b031916901c60f81c60ff16815181106123d5576123d5613411565b01602001516001600160f81b031916826123f083600261374f565b6123fb90600261373c565b8151811061240b5761240b613411565b60200101906001600160f81b03191690815f1a905350828461242e83600c61373c565b6020811061243e5761243e613411565b825191901a600f1690811061245557612455613411565b01602001516001600160f81b0319168261247083600261374f565b61247b90600361373c565b8151811061248b5761248b613411565b60200101906001600160f81b03191690815f1a905350600101612387565b50949350505050565b60605f6124be8361279d565b60010190505f8167ffffffffffffffff8111156124dd576124dd612f42565b6040519080825280601f01601f191660200182016040528015612507576020820181803683370190505b5090508181016020015b5f19016f181899199a1a9b1b9c1cb0b131b232b360811b600a86061a8153600a850494508461251157509392505050565b606061056c826040518060600160405280604081526020016137ad604091396001612874565b5f6001600160e01b031982166380ac58cd60e01b148061259857506001600160e01b03198216635b5e139f60e01b145b8061056c57506301ffc9a760e01b6001600160e01b031983161461056c565b80806125cb57506001600160a01b03821615155b1561268c575f6125da84612021565b90506001600160a01b038316158015906126065750826001600160a01b0316816001600160a01b031614155b801561261957506126178184611ee6565b155b156126425760405163a9fbf51f60e01b81526001600160a01b03841660048201526024016105a2565b811561268a5783856001600160a01b0316826001600160a01b03167f8c5be1e5ebec7d5bd14f71427d1e84f3dd0314c0f7b2291e5b200ac8c7c3b92560405160405180910390a45b505b50505f90815260046020526040902080546001600160a01b0319166001600160a01b0392909216919091179055565b5f5f6126c88585856129ef565b90506001600160a01b0381166127245761271f84600880545f838152600960205260408120829055600182018355919091527ff3f7a9fe364faab93b216da50a3214154f22a0a2b415b23a84c8169e8b636ee30155565b612747565b846001600160a01b0316816001600160a01b031614612747576127478185612ae1565b6001600160a01b0385166127635761275e84612b5e565b612072565b846001600160a01b0316816001600160a01b031614612072576120728585612c05565b6127908383612c53565b6108cb335f8585856121b1565b5f8072184f03e93ff9f4daa797ed6e38ed64bf6a1f0160401b83106127db5772184f03e93ff9f4daa797ed6e38ed64bf6a1f0160401b830492506040015b6d04ee2d6d415b85acef81000000008310612807576d04ee2d6d415b85acef8100000000830492506020015b662386f26fc10000831061282557662386f26fc10000830492506010015b6305f5e100831061283d576305f5e100830492506008015b612710831061285157612710830492506004015b60648310612863576064830492506002015b600a831061056c5760010192915050565b606083515f03612892575060408051602081019091525f8152612075565b5f826128c2576003855160046128a8919061374f565b6128b390600261373c565b6128bd9190613766565b6128e7565b6003855160026128d2919061373c565b6128dc9190613766565b6128e790600461374f565b90505f8167ffffffffffffffff81111561290357612903612f42565b6040519080825280601f01601f19166020018201604052801561292d576020820181803683370190505b509050600185016020820187885189016020810180515f82525b828410156129a2576003840193508351603f8160121c168701518653600186019550603f81600c1c168701518653600186019550603f8160061c168701518653600186019550603f8116870151865350600185019450612947565b9052505085156129e3576003885106600181146129c657600281146129d9576129e1565b603d6001830353603d60028303536129e1565b603d60018303535b505b50909695505050505050565b5f828152600260205260408120546001600160a01b0390811690831615612a1b57612a1b818486612cb4565b6001600160a01b03811615612a5557612a365f855f5f6125b7565b6001600160a01b0381165f90815260036020526040902080545f190190555b6001600160a01b03851615612a83576001600160a01b0385165f908152600360205260409020805460010190555b5f8481526002602052604080822080546001600160a01b0319166001600160a01b0389811691821790925591518793918516917fddf252ad1be2c89b69c2b068fc378daa952ba7f163c4a11628f55a4df523b3ef91a4949350505050565b5f612aeb83610d70565b5f838152600760209081526040808320546001600160a01b0388168452600690925290912091925090818314612b40575f83815260208281526040808320548584528184208190558352600790915290208290555b5f938452600760209081526040808620869055938552525081205550565b6008545f90612b6f90600190613785565b5f8381526009602052604081205460088054939450909284908110612b9657612b96613411565b905f5260205f20015490508060088381548110612bb557612bb5613411565b5f918252602080832090910192909255828152600990915260408082208490558582528120556008805480612bec57612bec613798565b600190038181905f5260205f20015f9055905550505050565b5f6001612c1184610d70565b612c1b9190613785565b6001600160a01b039093165f908152600660209081526040808320868452825280832085905593825260079052919091209190915550565b6001600160a01b038216612c7c57604051633250574960e11b81525f60048201526024016105a2565b5f612c8883835f612066565b90506001600160a01b038116156108cb576040516339e3563760e11b81525f60048201526024016105a2565b612cbf838383612d18565b6108cb576001600160a01b038316612ced57604051637e27328960e01b8152600481018290526024016105a2565b60405163177e802f60e01b81526001600160a01b0383166004820152602481018290526044016105a2565b5f6001600160a01b038316158015906120725750826001600160a01b0316846001600160a01b03161480612d515750612d518484611ee6565b806120725750505f908152600460205260409020546001600160a01b03908116911614919050565b6040518061010001604052806060815260200160608152602001606081526020015f6001600160a01b031681526020015f81526020015f81526020015f81526020015f81525090565b6001600160e01b031981168114611f4d575f5ffd5b5f60208284031215612de7575f5ffd5b813561207581612dc2565b80356001600160a01b0381168114612e08575f5ffd5b919050565b5f5f60408385031215612e1e575f5ffd5b82359150612e2e60208401612df2565b90509250929050565b5f81518084528060208401602086015e5f602082860101526020601f19601f83011685010191505092915050565b602081525f6120756020830184612e37565b5f60208284031215612e87575f5ffd5b5035919050565b5f5f60408385031215612e9f575f5ffd5b612ea883612df2565b946020939093013593505050565b5f5f5f60608486031215612ec8575f5ffd5b612ed184612df2565b9250612edf60208501612df2565b929592945050506040919091013590565b5f5f5f60608486031215612f02575f5ffd5b83359250612f1260208501612df2565b9150612f2060408501612df2565b90509250925092565b5f60208284031215612f39575f5ffd5b61207582612df2565b634e487b7160e01b5f52604160045260245ffd5b5f5f67ffffffffffffffff841115612f7057612f70612f42565b50604051601f19601f85018116603f0116810181811067ffffffffffffffff82111715612f9f57612f9f612f42565b604052838152905080828401851015612fb6575f5ffd5b838360208301375f60208583010152509392505050565b5f82601f830112612fdc575f5ffd5b61207583833560208501612f56565b5f5f5f5f5f60a08688031215612fff575f5ffd5b853567ffffffffffffffff811115613015575f5ffd5b61302188828901612fcd565b955050602086013567ffffffffffffffff81111561303d575f5ffd5b61304988828901612fcd565b945050604086013567ffffffffffffffff811115613065575f5ffd5b61307188828901612fcd565b9598949750949560608101359550608001359392505050565b602080825282518282018190525f918401906040840190835b818110156130c15783518352602093840193909201916001016130a3565b509095945050505050565b5f5f604083850312156130dd575f5ffd5b6130e683612df2565b9150602083013580151581146130fa575f5ffd5b809150509250929050565b5f8151610100845261311b610100850182612e37565b9050602083015184820360208601526131348282612e37565b9150506040830151848203604086015261314e8282612e37565b915050606083015161316b60608601826001600160a01b03169052565b506080830151608085015260a083015160a085015260c083015160c085015260e083015160e08501528091505092915050565b5f602082016020835280845180835260408501915060408160051b8601019250602086015f5b828110156131f557603f198786030184526131e0858351613105565b945060209384019391909101906001016131c4565b50929695505050505050565b5f5f5f5f60808587031215613214575f5ffd5b61321d85612df2565b935061322b60208601612df2565b925060408501359150606085013567ffffffffffffffff81111561324d575f5ffd5b8501601f8101871361325d575f5ffd5b61326c87823560208401612f56565b91505092959194509250565b61010081525f61328c61010083018b612e37565b828103602084015261329e818b612e37565b905082810360408401526132b2818a612e37565b6001600160a01b039890981660608401525050608081019490945260a084019290925260c083015260e0909101529392505050565b602081525f6120756020830184613105565b5f5f6040838503121561330a575f5ffd5b61331383612df2565b9150612e2e60208401612df2565b6020808252601190820152702737ba103b37bab1b432b91037bbb732b960791b604082015260600190565b602080825260139082015272159bdd58da195c881a185cc8195e1c1a5c9959606a1b604082015260600190565b60208082526018908201527f566f756368657220616c72656164792072656465656d65640000000000000000604082015260600190565b634e487b7160e01b5f52601160045260245ffd5b5f816133d2576133d26133b0565b505f190190565b600181811c908216806133ed57607f821691505b60208210810361340b57634e487b7160e01b5f52602260045260245ffd5b50919050565b634e487b7160e01b5f52603260045260245ffd5b5f60018201613436576134366133b0565b5060010190565b601f8211156108cb57805f5260205f20601f840160051c810160208510156134625750805b601f840160051c820191505b81811015610c5b575f815560010161346e565b815167ffffffffffffffff81111561349b5761349b612f42565b6134af816134a984546133d9565b8461343d565b6020601f8211600181146134e1575f83156134ca5750848201515b5f19600385901b1c1916600184901b178455610c5b565b5f84815260208120601f198516915b8281101561351057878501518255602094850194600190920191016134f0565b508482101561352d57868401515f19600387901b60f8161c191681555b50505050600190811b01905550565b5f81518060208401855e5f93019283525090919050565b693d913730b6b2911d101160b11b81525f613571600a83018961353c565b72111610113232b9b1b934b83a34b7b7111d101160691b8152613597601382018961353c565b73222c2022696d616765223a2022697066733a2f2f60601b815290506135c0601482018861353c565b7f222c202261747472696275746573223a205b7b2274726169745f74797065223a81527410112b32b73237b9111610113b30b63ab2911d101160591b60208201529050613610603582018761353c565b7f227d2c207b2274726169745f74797065223a202252656465656d6564222c20228152683b30b63ab2911d101160b91b60208201529050613654602982018661353c565b7f227d2c207b2274726169745f74797065223a202245787069726573204174222c81526a10113b30b63ab2911d101160a91b6020820152905061369a602b82018561353c565b63227d5d7d60e01b81526004019998505050505050505050565b7f646174613a6170706c69636174696f6e2f6a736f6e3b6261736536342c00000081525f612075601d83018461353c565b6001600160a01b03858116825284166020820152604081018390526080606082018190525f9061371790830184612e37565b9695505050505050565b5f60208284031215613731575f5ffd5b815161207581612dc2565b8082018082111561056c5761056c6133b0565b808202811582820484141761056c5761056c6133b0565b5f8261378057634e487b7160e01b5f52601260045260245ffd5b500490565b8181038181111561056c5761056c6133b0565b634e487b7160e01b5f52603160045260245ffdfe4142434445464748494a4b4c4d4e4f505152535455565758595a6162636465666768696a6b6c6d6e6f707172737475767778797a303132333435363738392b2fa2646970667358221220e0670050b17a1a263434ff7945936481b37b6999b128f7d9f6fba0e9b99bad6064736f6c634300081c0033",
  "linkReferences": {},
  "deployedLinkReferences": {},
  "immutableReferences": {},
  "inputSourceName": "project/contracts/PlateNFT.sol",
  "buildInfoId": "solc-0_8_28-317655cc56f9b33304d9bd6fb8e48982b7b68311"
}