{
  "_format": "hh3-artifact-1",
  "contractName": "PlateNFT",
  "sourceName": "contracts/PlateNFT.sol",
  "abi": [
    {
      "inputs": [],
      "stateMutability": "nonpayable",
      "type": "constructor"
    },
    {
      "inputs": [],
      "name": "ERC721EnumerableForbiddenBatchMint",
      "type": "error"
    },
    {
      "inputs": [
        {
          "internalType": "address",
          "name": "sender",
          "type": "address"
        },
        {
          "internalType": "uint256",
          "name": "tokenId",
          "type": "uint256"
        },
        {
          "internalType": "address",
          "name": "owner",
          "type": "address"
        }
      ],
      "name": "ERC721IncorrectOwner",
      "type": "error"
    },
    {
      "inputs": [
        {
          "internalType": "address",
          "name": "operator",
          "type": "address"
        },
        {
          "internalType": "uint256",
          "name": "tokenId",
          "type": "uint256"
        }
      ],
      "name": "ERC721InsufficientApproval",
      "type": "error"
    },
    {
      "inputs": [
        {
          "internalType": "address",
          "name": "approver",
          "type": "address"
        }
      ],
      "name": "ERC721InvalidApprover",
      "type": "error"
    },
    {
      "inputs": [
        {
          "internalType": "address",
          "name": "operator",
          "type": "address"
        }
      ],
      "name": "ERC721InvalidOperator",
      "type": "error"
    },
    {
      "inputs": [
        {
          "internalType": "address",
          "name": "owner",
          "type": "address"
        }
      ],
      "name": "ERC721InvalidOwner",
      "type": "error"
    },
    {
      "inputs": [
        {
          "internalType": "address",
          "name": "receiver",
          "type": "address"
        }
      ],
      "name": "ERC721InvalidReceiver",
      "type": "error"
    },
    {
      "inputs": [
        {
          "internalType": "address",
          "name": "sender",
          "type": "address"
        }
      ],
      "name": "ERC721InvalidSender",
      "type": "error"
    },
    {
      "inputs": [
        {
          "internalType": "uint256",
          "name": "tokenId",
          "type": "uint256"
        }
      ],
      "name": "ERC721NonexistentToken",
      "type": "error"
    },
    {
      "inputs": [
        {
          "internalType": "address",
          "name": "owner",
          "type": "address"
        },
        {
          "internalType": "uint256",
          "name": "index",
          "type": "uint256"
        }
      ],
      "name": "ERC721OutOfBoundsIndex",
      "type": "error"
    },
    {
      "inputs": [
        {
          "internalType": "address",
          "name": "owner",
          "type": "address"
        }
      ],
      "name": "OwnableInvalidOwner",
      "type": "error"
    },
    {
      "inputs": [
        {
          "internalType": "address",
          "name": "account",
          "type": "address"
        }
      ],
      "name": "OwnableUnauthorizedAccount",
      "type": "error"
    },
    {
      "anonymous": false,
      "inputs": [
        {
          "indexed": true,
          "internalType": "address",
          "name": "owner",
          "type": "address"
        },
        {
          "indexed": true,
          "internalType": "address",
          "name": "approved",
          "type": "address"
        },
        {
          "indexed": true,
          "internalType": "uint256",
          "name": "tokenId",
          "type": "uint256"
        }
      ],
      "name": "Approval",
      "type": "event"
    },
    {
      "anonymous": false,
      "inputs": [
        {
          "indexed": true,
          "internalType": "address",
          "name": "owner",
          "type": "address"
        },
        {
          "indexed": true,
          "internalType": "address",
          "name": "operator",
          "type": "address"
        },
        {
          "indexed": false,
          "internalType": "bool",
          "name": "approved",
          "type": "bool"
        }
      ],
      "name": "ApprovalForAll",
      "type": "event"
    },
    {
      "anonymous": false,
      "inputs": [
        {
          "indexed": true,
          "internalType": "address",
          "name": "previousOwner",
          "type": "address"
        },
        {
          "indexed": true,
          "internalType": "address",
          "name": "newOwner",
          "type": "address"
        }
      ],
      "name": "OwnershipTransferred",
      "type": "event"
    },
    {
      "anonymous": false,
      "inputs": [
        {
          "indexed": true,
          "internalType": "address",
          "name": "from",
          "type": "address"
        },
        {
          "indexed": true,
          "internalType": "address",
          "name": "to",
          "type": "address"
        },
        {
          "indexed": true,
          "internalType": "uint256",
          "name": "tokenId",
          "type": "uint256"
        }
      ],
      "name": "Transfer",
      "type": "event"
    },
    {
      "inputs": [
        {
          "internalType": "address",
          "name": "to",
          "type": "address"
        },
        {
          "internalType": "uint256",
          "name": "tokenId",
          "type": "uint256"
        }
      ],
      "name": "approve",
      "outputs": [],
      "stateMutability": "nonpayable",
      "type": "function"
    },
    {
      "inputs": [
        {
          "internalType": "address",
          "name": "owner",
          "type": "address"
        }
      ],
      "name": "balanceOf",
      "outputs": [
        {
          "internalType": "uint256",
          "name": "",
          "type": "uint256"
        }
      ],
      "stateMutability": "view",
      "type": "function"
    },
    {
      "inputs": [
        {
          "internalType": "string",
          "name": "_name",
          "type": "string"
        },
        {
          "internalType": "string",
          "name": "_description",
          "type": "string"
        },
        {
          "internalType": "string",
          "name": "_ipfsHash",
          "type": "string"
        },
        {
          "internalType": "uint256",
          "name": "_maxSupply",
          "type": "uint256"
        },
        {
          "internalType": "uint256",
          "name": "_expiresAt",
          "type": "uint256"
        }
      ],
      "name": "createPlate",
      "outputs": [
        {
          "internalType": "uint256",
          "name": "",
          "type": "uint256"
        }
      ],
      "stateMutability": "nonpayable",
      "type": "function"
    },
    {
      "inputs": [
        {
          "internalType": "address",
          "name": "_vendor",
          "type": "address"
        },
        {
          "internalType": "string",
          "name": "_name",
          "type": "string"
        },
        {
          "internalType": "string",
          "name": "_description",
          "type": "string"
        },
        {
          "internalType": "string",
          "name": "_ipfsHash",
          "type": "string"
        },
        {
          "internalType": "uint256",
          "name": "_maxSupply",
          "type": "uint256"
        },
        {
          "internalType": "uint256",
          "name": "_expiresAt",
          "type": "uint256"
        }
      ],
      "name": "createPlateForVendor",
      "outputs": [
        {
          "internalType": "uint256",
          "name": "",
          "type": "uint256"
        }
      ],
      "stateMutability": "nonpayable",
      "type": "function"
    },
    {
      "inputs": [],
      "name": "getActivePlates",
      "outputs": [
        {
          "components": [
            {
              "internalType": "string",
              "name": "name",
              "type": "string"
            },
            {
              "internalType": "string",
              "name": "description",
              "type": "string"
            },
            {
              "internalType": "string",
              "name": "ipfsHash",
              "type": "string"
            },
            {
              "internalType": "address",
              "name": "vendor",
              "type": "address"
            },
            {
              "internalType": "uint256",
              "name": "createdAt",
              "type": "uint256"
            },
            {
              "internalType": "uint256",
              "name": "expiresAt",
              "type": "uint256"
            },
            {
              "internalType": "uint256",
              "name": "maxSupply",
              "type": "uint256"
            },
            {
              "internalType": "uint256",
              "name": "availableVouchers",
              "type": "uint256"
            }
          ],
          "internalType": "struct PlateNFT.PlateMetadata[]",
          "name": "",
          "type": "tuple[]"
        }
      ],
      "stateMutability": "view",
      "type": "function"
    },
    {
      "inputs": [
        {
          "internalType": "uint256",
          "name": "tokenId",
          "type": "uint256"
        }
      ],
      "name": "getApproved",
      "outputs": [
        {
          "internalType": "address",
          "name": "",
          "type": "address"
        }
      ],
      "stateMutability": "view",
      "type": "function"
    },
    {
      "inputs": [
        {
          "internalType": "uint256",
          "name": "_plateId",
          "type": "uint256"
        }
      ],
      "name": "getPlateMetadata",
      "outputs": [
        {
          "components": [
            {
              "internalType": "string",
              "name": "name",
              "type": "string"
            },
            {
              "internalType": "string",
              "name": "description",
              "type": "string"
            },
            {
              "internalType": "string",
              "name": "ipfsHash",
              "type": "string"
            },
            {
              "internalType": "address",
              "name": "vendor",
              "type": "address"
            },
            {
              "internalType": "uint256",
              "name": "createdAt",
              "type": "uint256"
            },
            {
              "internalType": "uint256",
              "name": "expiresAt",
              "type": "uint256"
            },
            {
              "internalType": "uint256",
              "name": "maxSupply",
              "type": "uint256"
            },
            {
              "internalType": "uint256",
              "name": "availableVouchers",
              "type": "uint256"
            }
          ],
          "internalType": "struct PlateNFT.PlateMetadata",
          "name": "",
          "type": "tuple"
        }
      ],
      "stateMutability": "view",
      "type": "function"
    },
    {
      "inputs": [
        {
          "internalType": "address",
          "name": "_vendor",
          "type": "address"
        }
      ],
      "name": "getVendorPlates",
      "outputs": [
        {
          "internalType": "uint256[]",
          "name": "",
          "type": "uint256[]"
        }
      ],
      "stateMutability": "view",
      "type": "function"
    },
    {
      "inputs": [
        {
          "internalType": "uint256",
          "name": "_tokenId",
          "type": "uint256"
        }
      ],
      "name": "getVoucherInfo",
      "outputs": [
        {
          "components": [
            {
              "internalType": "uint256",
              "name": "plateId",
              "type": "uint256"
            },
            {
              "internalType": "bool",
              "name": "redeemed",
              "type": "bool"
            },
            {
              "internalType": "uint256",
              "name": "redeemedAt",
              "type": "uint256"
            }
          ],
          "internalType": "struct PlateNFT.VoucherNFT",
          "name": "",
          "type": "tuple"
        }
      ],
      "stateMutability": "view",
      "type": "function"
    },
    {
      "inputs": [
        {
          "internalType": "address",
          "name": "owner",
          "type": "address"
        },
        {
          "internalType": "address",
          "name": "operator",
          "type": "address"
        }
      ],
      "name": "isApprovedForAll",
      "outputs": [
        {
          "internalType": "bool",
          "name": "",
          "type": "bool"
        }
      ],
      "stateMutability": "view",
      "type": "function"
    },
    {
      "inputs": [
        {
          "internalType": "uint256",
          "name": "_tokenId",
          "type": "uint256"
        }
      ],
      "name": "isVoucherExpired",
      "outputs": [
        {
          "internalType": "bool",
          "name": "",
          "type": "bool"
        }
      ],
      "stateMutability": "view",
      "type": "function"
    },
    {
      "inputs": [
        {
          "internalType": "uint256",
          "name": "_tokenId",
          "type": "uint256"
        }
      ],
      "name": "isVoucherValid",
      "outputs": [
        {
          "internalType": "bool",
          "name": "",
          "type": "bool"
        }
      ],
      "stateMutability": "view",
      "type": "function"
    },
    {
      "inputs": [],
      "name": "name",
      "outputs": [
        {
          "internalType": "string",
          "name": "",
          "type": "string"
        }
      ],
      "stateMutability": "view",
      "type": "function"
    },
    {
      "inputs": [],
      "name": "owner",
      "outputs": [
        {
          "internalType": "address",
          "name": "",
          "type": "address"
        }
      ],
      "stateMutability": "view",
      "type": "function"
    },
    {
      "inputs": [
        {
          "internalType": "uint256",
          "name": "tokenId",
          "type": "uint256"
        }
      ],
      "name": "ownerOf",
      "outputs": [
        {
          "internalType": "address",
          "name": "",
          "type": "address"
        }
      ],
      "stateMutability": "view",
      "type": "function"
    },
    {
      "inputs": [
        {
          "internalType": "uint256",
          "name": "",
          "type": "uint256"
        }
      ],
      "name": "plateMetadata",
      "outputs": [
        {
          "internalType": "string",
          "name": "name",
          "type": "string"
        },
        {
          "internalType": "string",
          "name": "description",
          "type": "string"
        },
        {
          "internalType": "string",
          "name": "ipfsHash",
          "type": "string"
        },
        {
          "internalType": "address",
          "name": "vendor",
          "type": "address"
        },
        {
          "internalType": "uint256",
          "name": "createdAt",
          "type": "uint256"
        },
        {
          "internalType": "uint256",
          "name": "expiresAt",
          "type": "uint256"
        },
        {
          "internalType": "uint256",
          "name": "maxSupply",
          "type": "uint256"
        },
        {
          "internalType": "uint256",
          "name": "availableVouchers",
          "type": "uint256"
        }
      ],
      "stateMutability": "view",
      "type": "function"
    },
    {
      "inputs": [
        {
          "internalType": "uint256",
          "name": "_tokenId",
          "type": "uint256"
        }
      ],
      "name": "redeemVoucher",
      "outputs": [],
      "stateMutability": "nonpayable",
      "type": "function"
    },
    {
      "inputs": [
        {
          "internalType": "uint256",
          "name": "_redemptionCode",
          "type": "uint256"
        }
      ],
      "name": "redeemVoucherByCode",
      "outputs": [],
      "stateMutability": "nonpayable",
      "type": "function"
    },
    {
      "inputs": [
        {
          "internalType": "uint256",
          "name": "",
          "type": "uint256"
        }
      ],
      "name": "redemptionCodeToVoucher",
      "outputs": [
        {
          "internalType": "uint256",
          "name": "",
          "type": "uint256"
        }
      ],
      "stateMutability": "view",
      "type": "function"
    },
    {
      "inputs": [],
      "name": "renounceOwnership",
      "outputs": [],
      "stateMutability": "nonpayable",
      "type": "function"
    },
    {
      "inputs": [
        {
          "internalType": "address",
          "name": "from",
          "type": "address"
        },
        {
          "internalType": "address",
          "name": "to",
          "type": "address"
        },
        {
          "internalType": "uint256",
          "name": "tokenId",
          "type": "uint256"
        }
      ],
      "name": "safeTransferFrom",
      "outputs": [],
      "stateMutability": "nonpayable",
      "type": "function"
    },
    {
      "inputs": [
        {
          "internalType": "address",
          "name": "from",
          "type": "address"
        },
        {
          "internalType": "address",
          "name": "to",
          "type": "address"
        },
        {
          "internalType": "uint256",
          "name": "tokenId",
          "type": "uint256"
        },
        {
          "internalType": "bytes",
          "name": "data",
          "type": "bytes"
        }
      ],
      "name": "safeTransferFrom",
      "outputs": [],
      "stateMutability": "nonpayable",
      "type": "function"
    },
    {
      "inputs": [
        {
          "internalType": "address",
          "name": "operator",
          "type": "address"
        },
        {
          "internalType": "bool",
          "name": "approved",
          "type": "bool"
        }
      ],
      "name": "setApprovalForAll",
      "outputs": [],
      "stateMutability": "nonpayable",
      "type": "function"
    },
    {
      "inputs": [
        {
          "internalType": "bytes4",
          "name": "interfaceId",
          "type": "bytes4"
        }
      ],
      "name": "supportsInterface",
      "outputs": [
        {
          "internalType": "bool",
          "name": "",
          "type": "bool"
        }
      ],
      "stateMutability": "view",
      "type": "function"
    },
    {
      "inputs": [],
      "name": "symbol",
      "outputs": [
        {
          "internalType": "string",
          "name": "",
          "type": "string"
        }
      ],
      "stateMutability": "view",
      "type": "function"
    },
    {
      "inputs": [
        {
          "internalType": "uint256",
          "name": "index",
          "type": "uint256"
        }
      ],
      "name": "tokenByIndex",
      "outputs": [
        {
          "internalType": "uint256",
          "name": "",
          "type": "uint256"
        }
      ],
      "stateMutability": "view",
      "type": "function"
    },
    {
      "inputs": [
        {
          "internalType": "address",
          "name": "owner",
          "type": "address"
        },
        {
          "internalType": "uint256",
          "name": "index",
          "type": "uint256"
        }
      ],
      "name": "tokenOfOwnerByIndex",
      "outputs": [
        {
          "internalType": "uint256",
          "name": "",
          "type": "uint256"
        }
      ],
      "stateMutability": "view",
      "type": "function"
    },
    {
      "inputs": [
        {
          "internalType": "uint256",
          "name": "_tokenId",
          "type": "uint256"
        }
      ],
      "name": "tokenURI",
      "outputs": [
        {
          "internalType": "string",
          "name": "",
          "type": "string"
        }
      ],
      "stateMutability": "view",
      "type": "function"
    },
    {
      "inputs": [],
      "name": "totalSupply",
      "outputs": [
        {
          "internalType": "uint256",
          "name": "",
          "type": "uint256"
        }
      ],
      "stateMutability": "view",
      "type": "function"
    },
    {
      "inputs": [
        {
          "internalType": "address",
          "name": "from",
          "type": "address"
        },
        {
          "internalType": "address",
          "name": "to",
          "type": "address"
        },
        {
          "internalType": "uint256",
          "name": "tokenId",
          "type": "uint256"
        }
      ],
      "name": "transferFrom",
      "outputs": [],
      "stateMutability": "nonpayable",
      "type": "function"
    },
    {
      "inputs": [
        {
          "internalType": "address",
          "name": "newOwner",
          "type": "address"
        }
      ],
      "name": "transferOwnership",
      "outputs": [],
      "stateMutability": "nonpayable",
      "type": "function"
    },
    {
      "inputs": [
        {
          "internalType": "uint256",
          "name": "_tokenId",
          "type": "uint256"
        },
        {
          "internalType": "address",
          "name": "_to",
          "type": "address"
        }
      ],
      "name": "transferVoucher",
      "outputs": [],
      "stateMutability": "nonpayable",
      "type": "function"
    },
    {
      "inputs": [
        {
          "internalType": "uint256",
          "name": "_tokenId",
          "type": "uint256"
        },
        {
          "internalType": "address",
          "name": "_from",
          "type": "address"
        },
        {
          "internalType": "address",
          "name": "_to",
          "type": "address"
        }
      ],
      "name": "transferVoucherFrom",
      "outputs": [],
      "stateMutability": "nonpayable",
      "type": "function"
    },
    {
      "inputs": [
        {
          "internalType": "address",
          "name": "",
          "type": "address"
        },
        {
          "internalType": "uint256",
          "name": "",
          "type": "uint256"
        }
      ],
      "name": "vendorPlates",
      "outputs": [
        {
          "internalType": "uint256",
          "name": "",
          "type": "uint256"
        }
      ],
      "stateMutability": "view",
      "type": "function"
    },
    {
      "inputs": [
        {
          "internalType": "uint256",
          "name": "",
          "type": "uint256"
        }
      ],
      "name": "voucherNFTs",
      "outputs": [
        {
          "internalType": "uint256",
          "name": "plateId",
          "type": "uint256"
        },
        {
          "internalType": "bool",
          "name": "redeemed",
          "type": "bool"
        },
        {
          "internalType": "uint256",
          "name": "redeemedAt",
          "type": "uint256"
        }
      ],
      "stateMutability": "view",
      "type": "function"
    },
    {
      "inputs": [
        {
          "internalType": "uint256",
          "name": "",
          "type": "uint256"
        }
      ],
      "name": "voucherToRedemptionCode",
      "outputs": [
        {
          "internalType": "uint256",
          "name": "",
          "type": "uint256"
        }
      ],
      "stateMutability": "view",
      "type": "function"
    }
  ],
  "bytecode": "0x608060405234801561000f575f5ffd5b50336040518060400160405280601481526020017f4d657361436f6d70617274696461506c6174657300000000000000000000000081525060405180604001604052806005815260200164504c41544560d81b815250815f908161007391906101a8565b50600161008082826101a8565b5050506001600160a01b0381166100b057604051631e4fbdf760e01b81525f600482015260240160405180910390fd5b6100b9816100bf565b50610262565b600a80546001600160a01b038381166001600160a01b0319831681179093556040519116919082907f8be0079c531659141344cd1fd0a4f28419497f9722a3daafe3b4186f6b6457e0905f90a35050565b634e487b7160e01b5f52604160045260245ffd5b600181811c9082168061013857607f821691505b60208210810361015657634e487b7160e01b5f52602260045260245ffd5b50919050565b601f8211156101a357805f5260205f20601f840160051c810160208510156101815750805b601f840160051c820191505b818110156101a0575f815560010161018d565b50505b505050565b81516001600160401b038111156101c1576101c1610110565b6101d5816101cf8454610124565b8461015c565b6020601f821160018114610207575f83156101f05750848201515b5f19600385901b1c1916600184901b1784556101a0565b5f84815260208120601f198516915b828110156102365787850151825560209485019460019092019101610216565b508482101561025357868401515f19600387901b60f8161c191681555b50505050600190811b01905550565b6138ea8061026f5f395ff3fe608060405234801561000f575f5ffd5b5060043610610213575f3560e01c806374f87cf91161011f578063bffb29e7116100a9578063e31058af11610079578063e31058af14610500578063e6ae2b7d1461051f578063e985e9c51461053f578063f2fde38b14610552578063f7c900ff14610565575f5ffd5b8063bffb29e714610443578063c043c4551461047a578063c0f9f9fd146104c6578063c87b56dd146104ed575f5ffd5b806394df9fa3116100ef57806394df9fa3146103e057806395d89b4114610400578063a22cb46514610408578063a39dbca61461041b578063b88d4fde14610430575f5ffd5b806374f87cf9146103965780637e0ae5f7146103a957806385acceea146103bc5780638da5cb5b146103cf575f5ffd5b80632f745c59116101a05780636352211e116101705780636352211e1461034257806366debc21146103555780636c3bc7221461036857806370a082311461037b578063715018a61461038e575f5ffd5b80632f745c59146102f657806342842e0e146103095780634f6ccce71461031c5780636200ee7a1461032f575f5ffd5b8063095ea7b3116101e6578063095ea7b3146102945780630e925d18146102a757806318160ddd146102c85780631c6d6b5e146102d057806323b872dd146102e3575f5ffd5b806301ffc9a714610217578063047ec48b1461023f57806306fdde0314610254578063081812fc14610269575b5f5ffd5b61022a610225366004612e03565b610584565b60405190151581526020015b60405180910390f35b61025261024d366004612e39565b610594565b005b61025c610679565b6040516102369190612e91565b61027c610277366004612ea3565b610708565b6040516001600160a01b039091168152602001610236565b6102526102a2366004612eba565b61072f565b6102ba6102b5366004612f89565b61073e565b604051908152602001610236565b6008546102ba565b6102526102de366004612ea3565b610758565b6102526102f1366004613036565b610807565b6102ba610304366004612eba565b61088a565b610252610317366004613036565b6108ed565b6102ba61032a366004612ea3565b61090c565b61022a61033d366004612ea3565b610961565b61027c610350366004612ea3565b610bbc565b610252610363366004613070565b610bc6565b610252610376366004612ea3565b610c9e565b6102ba6103893660046130a9565b610dac565b610252610df1565b6102ba6103a4366004612eba565b610e04565b6102ba6103b73660046130c2565b610e2f565b61022a6103ca366004612ea3565b610e48565b600a546001600160a01b031661027c565b6103f36103ee3660046130a9565b61108e565b604051610236919061315e565b61025c6110f7565b6102526104163660046131a0565b611106565b610423611111565b6040516102369190613272565b61025261043e3660046132d5565b61144f565b610456610451366004612ea3565b611467565b60408051825181526020808401511515908201529181015190820152606001610236565b6104ab610488366004612ea3565b600e6020525f9081526040902080546001820154600290920154909160ff169083565b60408051938452911515602084015290820152606001610236565b6104d96104d4366004612ea3565b6114c7565b60405161023698979695949392919061334b565b61025c6104fb366004612ea3565b6116a3565b6102ba61050e366004612ea3565b60106020525f908152604090205481565b61053261052d366004612ea3565b611a1b565b60405161023691906133ba565b61022a61054d3660046133cc565b611c2d565b6102526105603660046130a9565b611c5a565b6102ba610573366004612ea3565b60116020525f908152604090205481565b5f61058e82611c97565b92915050565b3361059e83610bbc565b6001600160a01b0316146105cd5760405162461bcd60e51b81526004016105c4906133f4565b60405180910390fd5b5f828152600e6020908152604080832081516060810183528154808252600183015460ff1615158286015260029092015481840152908452600d909252909120600581015442106106305760405162461bcd60e51b81526004016105c49061341f565b8160200151156106525760405162461bcd60e51b81526004016105c49061344c565b600781018054905f61066383613497565b9190505550610673338486611cbb565b50505050565b60605f8054610687906134ac565b80601f01602080910402602001604051908101604052809291908181526020018280546106b3906134ac565b80156106fe5780601f106106d5576101008083540402835291602001916106fe565b820191905f5260205f20905b8154815290600101906020018083116106e157829003601f168201915b5050505050905090565b5f61071282611d68565b505f828152600460205260409020546001600160a01b031661058e565b61073a828233611da0565b5050565b5f61074d878787878787611dad565b979650505050505050565b5f818152600e6020908152604080832080548452600d9092529091203361077e84610bbc565b6001600160a01b0316146107a45760405162461bcd60e51b81526004016105c4906133f4565b600182015460ff16156107c95760405162461bcd60e51b81526004016105c49061344c565b806005015442106107ec5760405162461bcd60e51b81526004016105c49061341f565b506001818101805460ff191690911790554260029091015550565b6001600160a01b03821661083057604051633250574960e11b81525f60048201526024016105c4565b5f61083c8383336120c4565b9050836001600160a01b0316816001600160a01b031614610673576040516364283d7b60e01b81526001600160a01b03808616600483015260248201849052821660448201526064016105c4565b5f61089483610dac565b82106108c55760405163295f44f760e21b81526001600160a01b0384166004820152602481018390526044016105c4565b506001600160a01b03919091165f908152600660209081526040808320938352929052205490565b61090783838360405180602001604052805f81525061144f565b505050565b5f61091660085490565b821061093e5760405163295f44f760e21b81525f6004820152602481018390526044016105c4565b60088281548110610951576109516134e4565b905f5260205f2001549050919050565b5f818152600e6020908152604080832081516060810183528154808252600183015460ff1615158286015260029092015481840152908452600d90925280832081516101008101909252805484929190829082906109be906134ac565b80601f01602080910402602001604051908101604052809291908181526020018280546109ea906134ac565b8015610a355780601f10610a0c57610100808354040283529160200191610a35565b820191905f5260205f20905b815481529060010190602001808311610a1857829003601f168201915b50505050508152602001600182018054610a4e906134ac565b80601f0160208091040260200160405190810160405280929190818152602001828054610a7a906134ac565b8015610ac55780601f10610a9c57610100808354040283529160200191610ac5565b820191905f5260205f20905b815481529060010190602001808311610aa857829003601f168201915b50505050508152602001600282018054610ade906134ac565b80601f0160208091040260200160405190810160405280929190818152602001828054610b0a906134ac565b8015610b555780601f10610b2c57610100808354040283529160200191610b55565b820191905f5260205f20905b815481529060010190602001808311610b3857829003601f168201915b505050918352505060038201546001600160a01b031660208083019190915260048301546040830152600583015460608301526006830154608083015260079092015460a090910152830151909150158015610bb457508060a0015142105b949350505050565b5f61058e82611d68565b610bce6120da565b816001600160a01b0316610be184610bbc565b6001600160a01b031614610c075760405162461bcd60e51b81526004016105c4906133f4565b5f838152600e6020908152604080832081516060810183528154808252600183015460ff1615158286015260029092015481840152908452600d90925290912060058101544210610c6a5760405162461bcd60e51b81526004016105c49061341f565b816020015115610c8c5760405162461bcd60e51b81526004016105c49061344c565b610c97848487611cbb565b5050505050565b5f8181526011602052604081205490819003610cfc5760405162461bcd60e51b815260206004820152601760248201527f496e76616c696420726564656d7074696f6e20636f646500000000000000000060448201526064016105c4565b5f818152600e6020908152604080832080548452600d90925290912033610d2284610bbc565b6001600160a01b031614610d485760405162461bcd60e51b81526004016105c4906133f4565b600182015460ff1615610d6d5760405162461bcd60e51b81526004016105c49061344c565b80600501544210610d905760405162461bcd60e51b81526004016105c49061341f565b506001818101805460ff19169091179055426002909101555050565b5f6001600160a01b038216610dd6576040516322718ad960e21b81525f60048201526024016105c4565b506001600160a01b03165f9081526003602052604090205490565b610df96120da565b610e025f612107565b565b600f602052815f5260405f208181548110610e1d575f80fd5b905f5260205f20015f91509150505481565b5f610e3e338787878787611dad565b9695505050505050565b5f818152600e6020908152604080832081516060810183528154808252600183015460ff1615158286015260029092015481840152908452600d9092528083208151610100810190925280548492919082908290610ea5906134ac565b80601f0160208091040260200160405190810160405280929190818152602001828054610ed1906134ac565b8015610f1c5780601f10610ef357610100808354040283529160200191610f1c565b820191905f5260205f20905b815481529060010190602001808311610eff57829003601f168201915b50505050508152602001600182018054610f35906134ac565b80601f0160208091040260200160405190810160405280929190818152602001828054610f61906134ac565b8015610fac5780601f10610f8357610100808354040283529160200191610fac565b820191905f5260205f20905b815481529060010190602001808311610f8f57829003601f168201915b50505050508152602001600282018054610fc5906134ac565b80601f0160208091040260200160405190810160405280929190818152602001828054610ff1906134ac565b801561103c5780601f106110135761010080835404028352916020019161103c565b820191905f5260205f20905b81548152906001019060200180831161101f57829003601f168201915b505050918352505060038201546001600160a01b0316602082015260048201546040820152600582015460608201526006820154608082015260079091015460a0918201520151421015949350505050565b6001600160a01b0381165f908152600f60209081526040918290208054835181840281018401909452808452606093928301828280156110eb57602002820191905f5260205f20905b8154815260200190600101908083116110d7575b50505050509050919050565b606060018054610687906134ac565b61073a338383612158565b60605f805b600c5481101561116d5742600d5f600c8481548110611137576111376134e4565b905f5260205f20015481526020019081526020015f206005015411156111655781611161816134f8565b9250505b600101611116565b505f816001600160401b0381111561118757611187612ee2565b6040519080825280602002602001820160405280156111c057816020015b6111ad612da5565b8152602001906001900390816111a55790505b5090505f805b600c54811015611446575f600c82815481106111e4576111e46134e4565b905f5260205f200154905042600d5f8381526020019081526020015f2060050154111561143d575f818152600d60205260409081902081516101008101909252805482908290611233906134ac565b80601f016020809104026020016040519081016040528092919081815260200182805461125f906134ac565b80156112aa5780601f10611281576101008083540402835291602001916112aa565b820191905f5260205f20905b81548152906001019060200180831161128d57829003601f168201915b505050505081526020016001820180546112c3906134ac565b80601f01602080910402602001604051908101604052809291908181526020018280546112ef906134ac565b801561133a5780601f106113115761010080835404028352916020019161133a565b820191905f5260205f20905b81548152906001019060200180831161131d57829003601f168201915b50505050508152602001600282018054611353906134ac565b80601f016020809104026020016040519081016040528092919081815260200182805461137f906134ac565b80156113ca5780601f106113a1576101008083540402835291602001916113ca565b820191905f5260205f20905b8154815290600101906020018083116113ad57829003601f168201915b505050918352505060038201546001600160a01b0316602082015260048201546040820152600582015460608201526006820154608082015260079091015460a0909101528451859085908110611423576114236134e4565b60200260200101819052508280611439906134f8565b9350505b506001016111c6565b50909392505050565b61145a848484610807565b61067333858585856121f6565b61148a60405180606001604052805f81526020015f151581526020015f81525090565b505f908152600e6020908152604091829020825160608101845281548152600182015460ff16151592810192909252600201549181019190915290565b600d6020525f90815260409020805481906114e1906134ac565b80601f016020809104026020016040519081016040528092919081815260200182805461150d906134ac565b80156115585780601f1061152f57610100808354040283529160200191611558565b820191905f5260205f20905b81548152906001019060200180831161153b57829003601f168201915b50505050509080600101805461156d906134ac565b80601f0160208091040260200160405190810160405280929190818152602001828054611599906134ac565b80156115e45780601f106115bb576101008083540402835291602001916115e4565b820191905f5260205f20905b8154815290600101906020018083116115c757829003601f168201915b5050505050908060020180546115f9906134ac565b80601f0160208091040260200160405190810160405280929190818152602001828054611625906134ac565b80156116705780601f1061164757610100808354040283529160200191611670565b820191905f5260205f20905b81548152906001019060200180831161165357829003601f168201915b505050600384015460048501546005860154600687015460079097015495966001600160a01b0390931695919450925088565b60605f6116af83610bbc565b6001600160a01b0316036116fc5760405162461bcd60e51b8152602060048201526014602482015273151bdad95b88191bd95cc81b9bdd08195e1a5cdd60621b60448201526064016105c4565b5f828152600e6020908152604080832081516060810183528154808252600183015460ff1615158286015260029092015481840152908452600d90925280832081516101008101909252805492939282908290611758906134ac565b80601f0160208091040260200160405190810160405280929190818152602001828054611784906134ac565b80156117cf5780601f106117a6576101008083540402835291602001916117cf565b820191905f5260205f20905b8154815290600101906020018083116117b257829003601f168201915b505050505081526020016001820180546117e8906134ac565b80601f0160208091040260200160405190810160405280929190818152602001828054611814906134ac565b801561185f5780601f106118365761010080835404028352916020019161185f565b820191905f5260205f20905b81548152906001019060200180831161184257829003601f168201915b50505050508152602001600282018054611878906134ac565b80601f01602080910402602001604051908101604052809291908181526020018280546118a4906134ac565b80156118ef5780601f106118c6576101008083540402835291602001916118ef565b820191905f5260205f20905b8154815290600101906020018083116118d257829003601f168201915b50505050508152602001600382015f9054906101000a90046001600160a01b03166001600160a01b03166001600160a01b0316815260200160048201548152602001600582015481526020016006820154815260200160078201548152505090505f6119ef825f01518360200151846040015161196f866060015161231d565b876020015161199b576040518060400160405280600581526020016466616c736560d81b8152506119b9565b604051806040016040528060048152602001637472756560e01b8152505b6119c68860a001516124f7565b6040516020016119db96959493929190613527565b604051602081830303815290604052612586565b905080604051602001611a029190613688565b6040516020818303038152906040529350505050919050565b611a23612da5565b5f828152600d60205260409081902081516101008101909252805482908290611a4b906134ac565b80601f0160208091040260200160405190810160405280929190818152602001828054611a77906134ac565b8015611ac25780601f10611a9957610100808354040283529160200191611ac2565b820191905f5260205f20905b815481529060010190602001808311611aa557829003601f168201915b50505050508152602001600182018054611adb906134ac565b80601f0160208091040260200160405190810160405280929190818152602001828054611b07906134ac565b8015611b525780601f10611b2957610100808354040283529160200191611b52565b820191905f5260205f20905b815481529060010190602001808311611b3557829003601f168201915b50505050508152602001600282018054611b6b906134ac565b80601f0160208091040260200160405190810160405280929190818152602001828054611b97906134ac565b8015611be25780601f10611bb957610100808354040283529160200191611be2565b820191905f5260205f20905b815481529060010190602001808311611bc557829003601f168201915b505050918352505060038201546001600160a01b0316602082015260048201546040820152600582015460608201526006820154608082015260079091015460a09091015292915050565b6001600160a01b039182165f90815260056020908152604080832093909416825291909152205460ff1690565b611c626120da565b6001600160a01b038116611c8b57604051631e4fbdf760e01b81525f60048201526024016105c4565b611c9481612107565b50565b5f6001600160e01b0319821663780e9d6360e01b148061058e575061058e826125ac565b6001600160a01b038216611ce457604051633250574960e11b81525f60048201526024016105c4565b5f611cf083835f6120c4565b90506001600160a01b038116611d1c57604051637e27328960e01b8152600481018390526024016105c4565b836001600160a01b0316816001600160a01b031614610673576040516364283d7b60e01b81526001600160a01b03808616600483015260248201849052821660448201526064016105c4565b5f818152600260205260408120546001600160a01b03168061058e57604051637e27328960e01b8152600481018490526024016105c4565b61090783838360016125fb565b5f5f865111611df55760405162461bcd60e51b81526020600482015260146024820152734e616d652063616e6e6f7420626520656d70747960601b60448201526064016105c4565b5f8311611e3d5760405162461bcd60e51b815260206004820152601660248201527504d617820737570706c79206d757374206265203e20360541b60448201526064016105c4565b428211611e8c5760405162461bcd60e51b815260206004820181905260248201527f45787069726174696f6e206d75737420626520696e207468652066757475726560448201526064016105c4565b600b80545f9182611e9c836134f8565b919050559050604051806101000160405280888152602001878152602001868152602001896001600160a01b0316815260200142815260200184815260200185815260200185815250600d5f8381526020019081526020015f205f820151815f019081611f0991906136fd565b5060208201516001820190611f1e90826136fd565b5060408201516002820190611f3390826136fd565b5060608201516003820180546001600160a01b0319166001600160a01b039283161790556080830151600483015560a0830151600583015560c0830151600683015560e09092015160079091015588165f908152600f602090815260408220805460018181018355918452918320909101839055600c8054918201815582527fdf6966c971051c3d54ec59162606531493a51404a002842f56009d7e5cf4a8c7018290555b848110156120b857600b80545f9182611ff0836134f8565b9091555060408051606080820183528682525f6020808401828152848601838152878452600e835286842095518655905160018601805460ff191691151591909117905551600290940193909355835192830188905292820186905242828201528d901b6bffffffffffffffffffffffff191660808201529192509060940160408051601f1981840301815291815281516020928301205f858152601084528281208290558181526011909352912083905590506120ae8b836126ff565b5050600101611fd8565b50979650505050505050565b5f6120d0848484612760565b90505b9392505050565b600a546001600160a01b03163314610e025760405163118cdaa760e01b81523360048201526024016105c4565b600a80546001600160a01b038381166001600160a01b0319831681179093556040519116919082907f8be0079c531659141344cd1fd0a4f28419497f9722a3daafe3b4186f6b6457e0905f90a35050565b6001600160a01b03821661218a57604051630b61174360e31b81526001600160a01b03831660048201526024016105c4565b6001600160a01b038381165f81815260056020908152604080832094871680845294825291829020805460ff191686151590811790915591519182527f17307eab39ab6107e8899845ad3d59bd9653f200f220920489ca2b5937696c31910160405180910390a3505050565b6001600160a01b0383163b15610c9757604051630a85bd0160e11b81526001600160a01b0384169063150b7a02906122389088908890879087906004016137b7565b6020604051808303815f875af1925050508015612272575060408051601f3d908101601f1916820190925261226f918101906137e9565b60015b6122d9573d80801561229f576040519150601f19603f3d011682016040523d82523d5f602084013e6122a4565b606091505b5080515f036122d157604051633250574960e11b81526001600160a01b03851660048201526024016105c4565b805160208201fd5b6001600160e01b03198116630a85bd0160e11b1461231557604051633250574960e11b81526001600160a01b03851660048201526024016105c4565b505050505050565b604080518082018252601081526f181899199a1a9b1b9c1cb0b131b232b360811b60208201528151602a80825260608281019094526001600160a01b03851692915f91602082018180368337019050509050600360fc1b815f81518110612386576123866134e4565b60200101906001600160f81b03191690815f1a905350600f60fb1b816001815181106123b4576123b46134e4565b60200101906001600160f81b03191690815f1a9053505f5b60148110156124ee57826004856123e484600c613804565b602081106123f4576123f46134e4565b1a60f81b6001600160f81b031916901c60f81c60ff168151811061241a5761241a6134e4565b01602001516001600160f81b03191682612435836002613817565b612440906002613804565b81518110612450576124506134e4565b60200101906001600160f81b03191690815f1a905350828461247383600c613804565b60208110612483576124836134e4565b825191901a600f1690811061249a5761249a6134e4565b01602001516001600160f81b031916826124b5836002613817565b6124c0906003613804565b815181106124d0576124d06134e4565b60200101906001600160f81b03191690815f1a9053506001016123cc565b50949350505050565b60605f6125038361282b565b60010190505f816001600160401b0381111561252157612521612ee2565b6040519080825280601f01601f19166020018201604052801561254b576020820181803683370190505b5090508181016020015b5f19016f181899199a1a9b1b9c1cb0b131b232b360811b600a86061a8153600a850494508461255557509392505050565b606061058e82604051806060016040528060408152602001613875604091396001612902565b5f6001600160e01b031982166380ac58cd60e01b14806125dc57506001600160e01b03198216635b5e139f60e01b145b8061058e57506301ffc9a760e01b6001600160e01b031983161461058e565b808061260f57506001600160a01b03821615155b156126d0575f61261e84611d68565b90506001600160a01b0383161580159061264a5750826001600160a01b0316816001600160a01b031614155b801561265d575061265b8184611c2d565b155b156126865760405163a9fbf51f60e01b81526001600160a01b03841660048201526024016105c4565b81156126ce5783856001600160a01b0316826001600160a01b03167f8c5be1e5ebec7d5bd14f71427d1e84f3dd0314c0f7b2291e5b200ac8c7c3b92560405160405180910390a45b505b50505f90815260046020526040902080546001600160a01b0319166001600160a01b0392909216919091179055565b6001600160a01b03821661272857604051633250574960e11b81525f60048201526024016105c4565b5f61273483835f6120c4565b90506001600160a01b03811615610907576040516339e3563760e11b81525f60048201526024016105c4565b5f5f61276d858585612a7c565b90506001600160a01b0381166127c9576127c484600880545f838152600960205260408120829055600182018355919091527ff3f7a9fe364faab93b216da50a3214154f22a0a2b415b23a84c8169e8b636ee30155565b6127ec565b846001600160a01b0316816001600160a01b0316146127ec576127ec8185612b6e565b6001600160a01b0385166128085761280384612beb565b6120d0565b846001600160a01b0316816001600160a01b0316146120d0576120d08585612c92565b5f8072184f03e93ff9f4daa797ed6e38ed64bf6a1f0160401b83106128695772184f03e93ff9f4daa797ed6e38ed64bf6a1f0160401b830492506040015b6d04ee2d6d415b85acef81000000008310612895576d04ee2d6d415b85acef8100000000830492506020015b662386f26fc1000083106128b357662386f26fc10000830492506010015b6305f5e10083106128cb576305f5e100830492506008015b61271083106128df57612710830492506004015b606483106128f1576064830492506002015b600a831061058e5760010192915050565b606083515f03612920575060408051602081019091525f81526120d3565b5f82612950576003855160046129369190613817565b612941906002613804565b61294b919061382e565b612975565b6003855160026129609190613804565b61296a919061382e565b612975906004613817565b90505f816001600160401b0381111561299057612990612ee2565b6040519080825280601f01601f1916602001820160405280156129ba576020820181803683370190505b509050600185016020820187885189016020810180515f82525b82841015612a2f576003840193508351603f8160121c168701518653600186019550603f81600c1c168701518653600186019550603f8160061c168701518653600186019550603f81168701518653506001850194506129d4565b905250508515612a7057600388510660018114612a535760028114612a6657612a6e565b603d6001830353603d6002830353612a6e565b603d60018303535b505b50909695505050505050565b5f828152600260205260408120546001600160a01b0390811690831615612aa857612aa8818486612ce0565b6001600160a01b03811615612ae257612ac35f855f5f6125fb565b6001600160a01b0381165f90815260036020526040902080545f190190555b6001600160a01b03851615612b10576001600160a01b0385165f908152600360205260409020805460010190555b5f8481526002602052604080822080546001600160a01b0319166001600160a01b0389811691821790925591518793918516917fddf252ad1be2c89b69c2b068fc378daa952ba7f163c4a11628f55a4df523b3ef91a4949350505050565b5f612b7883610dac565b5f838152600760209081526040808320546001600160a01b0388168452600690925290912091925090818314612bcd575f83815260208281526040808320548584528184208190558352600790915290208290555b5f938452600760209081526040808620869055938552525081205550565b6008545f90612bfc9060019061384d565b5f8381526009602052604081205460088054939450909284908110612c2357612c236134e4565b905f5260205f20015490508060088381548110612c4257612c426134e4565b5f918252602080832090910192909255828152600990915260408082208490558582528120556008805480612c7957612c79613860565b600190038181905f5260205f20015f9055905550505050565b5f6001612c9e84610dac565b612ca8919061384d565b6001600160a01b039093165f908152600660209081526040808320868452825280832085905593825260079052919091209190915550565b612ceb838383612d44565b610907576001600160a01b038316612d1957604051637e27328960e01b8152600481018290526024016105c4565b60405163177e802f60e01b81526001600160a01b0383166004820152602481018290526044016105c4565b5f6001600160a01b038316158015906120d05750826001600160a01b0316846001600160a01b03161480612d7d5750612d7d8484611c2d565b806120d05750505f908152600460205260409020546001600160a01b03908116911614919050565b6040518061010001604052806060815260200160608152602001606081526020015f6001600160a01b031681526020015f81526020015f81526020015f81526020015f81525090565b6001600160e01b031981168114611c94575f5ffd5b5f60208284031215612e13575f5ffd5b81356120d381612dee565b80356001600160a01b0381168114612e34575f5ffd5b919050565b5f5f60408385031215612e4a575f5ffd5b82359150612e5a60208401612e1e565b90509250929050565b5f81518084528060208401602086015e5f602082860101526020601f19601f83011685010191505092915050565b602081525f6120d36020830184612e63565b5f60208284031215612eb3575f5ffd5b5035919050565b5f5f60408385031215612ecb575f5ffd5b612ed483612e1e565b946020939093013593505050565b634e487b7160e01b5f52604160045260245ffd5b5f5f6001600160401b03841115612f0f57612f0f612ee2565b50604051601f19601f85018116603f011681018181106001600160401b0382111715612f3d57612f3d612ee2565b604052838152905080828401851015612f54575f5ffd5b838360208301375f60208583010152509392505050565b5f82601f830112612f7a575f5ffd5b6120d383833560208501612ef6565b5f5f5f5f5f5f60c08789031215612f9e575f5ffd5b612fa787612e1e565b955060208701356001600160401b03811115612fc1575f5ffd5b612fcd89828a01612f6b565b95505060408701356001600160401b03811115612fe8575f5ffd5b612ff489828a01612f6b565b94505060608701356001600160401b0381111561300f575f5ffd5b61301b89828a01612f6b565b9699959850939660808101359560a090910135945092505050565b5f5f5f60608486031215613048575f5ffd5b61305184612e1e565b925061305f60208501612e1e565b929592945050506040919091013590565b5f5f5f60608486031215613082575f5ffd5b8335925061309260208501612e1e565b91506130a060408501612e1e565b90509250925092565b5f602082840312156130b9575f5ffd5b6120d382612e1e565b5f5f5f5f5f60a086880312156130d6575f5ffd5b85356001600160401b038111156130eb575f5ffd5b6130f788828901612f6b565b95505060208601356001600160401b03811115613112575f5ffd5b61311e88828901612f6b565b94505060408601356001600160401b03811115613139575f5ffd5b61314588828901612f6b565b9598949750949560608101359550608001359392505050565b602080825282518282018190525f918401906040840190835b81811015613195578351835260209384019390920191600101613177565b509095945050505050565b5f5f604083850312156131b1575f5ffd5b6131ba83612e1e565b9150602083013580151581146131ce575f5ffd5b809150509250929050565b5f815161010084526131ef610100850182612e63565b9050602083015184820360208601526132088282612e63565b915050604083015184820360408601526132228282612e63565b915050606083015161323f60608601826001600160a01b03169052565b506080830151608085015260a083015160a085015260c083015160c085015260e083015160e08501528091505092915050565b5f602082016020835280845180835260408501915060408160051b8601019250602086015f5b828110156132c957603f198786030184526132b48583516131d9565b94506020938401939190910190600101613298565b50929695505050505050565b5f5f5f5f608085870312156132e8575f5ffd5b6132f185612e1e565b93506132ff60208601612e1e565b92506040850135915060608501356001600160401b03811115613320575f5ffd5b8501601f81018713613330575f5ffd5b61333f87823560208401612ef6565b91505092959194509250565b61010081525f61335f61010083018b612e63565b8281036020840152613371818b612e63565b90508281036040840152613385818a612e63565b6001600160a01b039890981660608401525050608081019490945260a084019290925260c083015260e0909101529392505050565b602081525f6120d360208301846131d9565b5f5f604083850312156133dd575f5ffd5b6133e683612e1e565b9150612e5a60208401612e1e565b6020808252601190820152702737ba103b37bab1b432b91037bbb732b960791b604082015260600190565b602080825260139082015272159bdd58da195c881a185cc8195e1c1a5c9959606a1b604082015260600190565b60208082526018908201527f566f756368657220616c72656164792072656465656d65640000000000000000604082015260600190565b634e487b7160e01b5f52601160045260245ffd5b5f816134a5576134a5613483565b505f190190565b600181811c908216806134c057607f821691505b6020821081036134de57634e487b7160e01b5f52602260045260245ffd5b50919050565b634e487b7160e01b5f52603260045260245ffd5b5f6001820161350957613509613483565b5060010190565b5f81518060208401855e5f93019283525090919050565b693d913730b6b2911d101160b11b81525f613545600a830189613510565b72111610113232b9b1b934b83a34b7b7111d101160691b815261356b6013820189613510565b73222c2022696d616765223a2022697066733a2f2f60601b815290506135946014820188613510565b7f222c202261747472696275746573223a205b7b2274726169745f74797065223a81527410112b32b73237b9111610113b30b63ab2911d101160591b602082015290506135e46035820187613510565b7f227d2c207b2274726169745f74797065223a202252656465656d6564222c20228152683b30b63ab2911d101160b91b602082015290506136286029820186613510565b7f227d2c207b2274726169745f74797065223a202245787069726573204174222c81526a10113b30b63ab2911d101160a91b6020820152905061366e602b820185613510565b63227d5d7d60e01b81526004019998505050505050505050565b7f646174613a6170706c69636174696f6e2f6a736f6e3b6261736536342c00000081525f6120d3601d830184613510565b601f82111561090757805f5260205f20601f840160051c810160208510156136de5750805b601f840160051c820191505b81811015610c97575f81556001016136ea565b81516001600160401b0381111561371657613716612ee2565b61372a8161372484546134ac565b846136b9565b6020601f82116001811461375c575f83156137455750848201515b5f19600385901b1c1916600184901b178455610c97565b5f84815260208120601f198516915b8281101561378b578785015182556020948501946001909201910161376b565b50848210156137a857868401515f19600387901b60f8161c191681555b50505050600190811b01905550565b6001600160a01b03858116825284166020820152604081018390526080606082018190525f90610e3e90830184612e63565b5f602082840312156137f9575f5ffd5b81516120d381612dee565b8082018082111561058e5761058e613483565b808202811582820484141761058e5761058e613483565b5f8261384857634e487b7160e01b5f52601260045260245ffd5b500490565b8181038181111561058e5761058e613483565b634e487b7160e01b5f52603160045260245ffdfe4142434445464748494a4b4c4d4e4f505152535455565758595a6162636465666768696a6b6c6d6e6f707172737475767778797a303132333435363738392b2fa26469706673582212205b5371bbcd5da0b281e41440a71e726081dbe7b81868574d9dc7f7c3da57df8764736f6c634300081c0033",
  "linkReferences": {},
  "deployedLinkReferences": {},
  "immutableReferences": {},
  "inputSourceName": "project/contracts/PlateNFT.sol",
  "buildInfoId": "solc-0_8_28-7854f9c58e341826c4925e9795c75aeedb7abf0e"
}